:020000040800F2
:1000000058520020956A0008055C0008075C00084B
:100010000B5C00080F5C0008135C00080000000087
:10002000000000000000000000000000175C000855
:10003000195C0008000000001B5C0008A95B0008B8
:10004000AF6A0008AF6A0008AF6A0008AF6A00082C
:10005000AF6A0008AF6A0008DB080008AF6A000852
:10006000AF6A0008AF6A0008AF6A0008AF6A00080C
:10007000AF6A0008AF6A0008AF6A0008AF6A0008FC
:10008000AF6A0008AF6A0008AF6A0008AF6A0008EC
:10009000AF6A0008AF6A0008AF6A0008AF6A0008DC
:1000A000AF6A0008AF6A0008AF6A0008AF6A0008CC
:1000B000AF6A0008AF6A0008AF6A0008AF6A0008BC
:1000C000AF6A0008AF6A0008AF6A0008AF6A0008AC
:1000D000AF6A0008AF6A0008AF6A000855610008FF
:1000E000AF6A0008AF6A0008AF6A0008C56300087D
:1000F000AF6A0008AF6A0008AF6A0008AF6A00087C
:10010000AF6A0008AF6A0008AF6A0008AF6A00086B
:10011000AF6A0008AF6A0008AF6A0008AF6A00085B
:10012000AF6A0008AF6A0008AF6A0008AF6A00084B
:10013000AF6A0008AF6A0008AF6A0008AF6A00083B
:10014000AF6A0008AF6A0008AF6A00081D5C0008CB
:10015000AF6A0008AF6A0008AF6A0008AF6A00081B
:10016000AF6A0008AF6A0008AF6A0008AF6A00080B
:10017000AF6A0008AF6A0008AF6A0008AF6A0008FB
:10018000AF6A0008AF6A000800F002F800F064F8F7
:100190000AA090E8000C82448344AAF10107DA45E2
:1001A00001D100F059F8AFF2090EBAE80F0013F0D0
:1001B000010F18BFFB1A43F001031847EC140100AC
:1001C0000C1501000A444FF0000C10F8013B13F02D
:1001D000070408BF10F8014B1D1108BF10F8015BA0
:1001E000641E05D010F8016B641E01F8016BF9D193
:1001F00013F0080F1EBF10F8014BAD1C0C1B09D1EA
:100200006D1E58BF01F801CBFAD505E014F8016B5B
:1002100001F8016B6D1EF9D59142D6D370470000ED
:100220000023002400250026103A28BF78C1FBD8FF
:10023000520728BF30C148BF0B60704778290EF0C5
:100240003D8673290FF09180002070471FB510F094
:1002500080FE1FBD10B510BD0FF094F81146FFF7DA
:10026000F5FF02F01FFF0FF0B2F803B4FFF7F2FF43
:1002700003BC0FF0B3F80000002115E0FE4800EBCE
:10028000C1004068002809DDFB4800EBC100406860
:10029000401EF94A02EBC102506004E00020F64A19
:1002A00002EBC1025060491C0229E7DB00207047C5
:1002B000002105E00020F04A02EBC1025060491C19
:1002C0000229F7DB0020704710B502F050FF02F062
:1002D00059FF002406E00020E74901EBC401486013
:1002E000601CC4B2022CF6DB002010BD70B50446C1
:1002F0000D46002D01DC002070BDDF4800EBC4007E
:10030000406810B14FF0FF30F6E70020DB49C1F83C
:100310001C010846D0F81C0118BB15B3D64840F89C
:1003200034504FF4FA60D44901EBC401486014B171
:10033000012C0ED106E0284602F02FFF0220D04902
:1003400008700DE0284602F044FF0120CC490870F7
:1003500006E002F017FF02F00AFF4FF0FF30CBE794
:1003600000BF0020C8E710B5FFF7AEFF002010BDAA
:1003700010B50024C348007800B92AE0BF48D0F87F
:10038000100100280BDDBD48D0F810110020FFF748
:10039000ADFF0020B949C1F81001012403E000209D
:1003A000B649C1F81001B548D0F8140100280BDD9A
:1003B0002CB9B248D0F814110120FFF797FF0020A4
:1003C000AE49C1F8140103E00020AC49C1F81401A2
:1003D00000BF0020AB490870062001218140AA4AD5
:1003E000430942F8231000BF10BD2DE9F0412DED67
:1003F000048B05460026002D02DA6C42012601E03E
:100400002C46002624B900209C49A1F8080154E09C
:10041000012C18D19D48006846F2A811B0FBF1F7F5
:10042000384610F0ABFA41EC190B9FED990B53ECE9
:10043000102B10F0F3FA41EC180B10F05BFA8F4917
:10044000A1F8080139E0022C18D19048006846F262
:10045000A811B0FBF1F7384610F090FA41EC190BF7
:100460009FED8D0B53EC102B10F0D8FA41EC180BCC
:1004700010F040FA8149A1F808011EE0032C18D1C0
:100480008248006846F2A811B0FBF1F7384610F038
:1004900075FA41EC190B9FED820B53EC102B10F009
:1004A000BDFA41EC180B10F025FA7449A1F80801C7
:1004B00003E000207149A1F808017049B1F8080172
:1004C000314602F020FF0020BDEC048BBDE8F08136
:1004D0002DE9F0412DED048B05460E46174600240C
:1004E00000EE105AB8EEC00ADFED6F0A80EE201A57
:1004F000B0EE418A00EE106AB8EEC00ADFED6A0A7B
:1005000080EE201AF0EE418A00EE107AB8EEC00AB2
:10051000DFED660A20EE200ADFED650A20EE200AF4
:10052000B0EE409A00BF26E0624800EB840090EDF8
:10053000000A20EE080A5F48103000EB8400D0ED7E
:10054000000A00EEA80A30EE090A4C48083000EB19
:10055000841080ED0D0A4948083000EB8410D0ED7E
:100560000D0AB0EE600A02F086FF4449083101EB43
:1005700084118863641C042CD6DB71B600240AE065
:100580003E48083000EB8410816B3C48083000EB9B
:100590008410C162641C042CF2DB61B60020BDEC47
:1005A000048BBDE8F08170B52DED0A8B82B0044656
:1005B0000D4616469FED400AB0EE409A9FED3E0A6A
:1005C000F0EE408A9FED3C0AB0EE408A9FED3A0A79
:1005D000F0EE409A9FED380AB0EE40AA00EE104AC5
:1005E000B8EEC00A3548D0ED000A30EE600AB0EE31
:1005F000409A00EE105AB8EEC00A3148D0ED000A19
:1006000030EE600AF0EE408A29EE090A08EEA80AE8
:10061000B0EE408AB0EE480AB5EEC00AF1EE10FA2C
:1006200004DDF1EEC00ACDED010A04E0DFED220A9F
:10063000CDED010A00BF9DED010ADFED220A30EE8B
:10064000200AB0EE408A89EE080AF0EE409A88EE61
:10065000880AB0EE40AAB3EE040AB4EEC08AF1EE06
:1006600010FA6BDDB3EE040AB0EE408A28EE290AD8
:10067000B0EE409A28E0000078030020C806002071
:10068000000000200200002080E100E024010020A2
:10069000333333333333D33F9A9999999999D93F67
:1006A000000000000000E03F0000C842CDCCCC3C80
:1006B0009EEFA73D0008002000000000040000207D
:1006C000080000206F12833A28EE0A0AF0EE408AF2
:1006D000884890ED000A30EE090A10EE101A08461C
:1006E00010F0C6FB41EC1C0BB0EE4C0AF0EE6C0AAD
:1006F0000FF0FAF8B0EE40BAF0EE60BA51EC1B0B16
:1007000010F0C8F804467C4890ED000A30EE280A44
:1007100010EE101A084610F0ABFB41EC1C0BB0EECB
:100720004C0AF0EE6C0A0FF0DFF8B0EE40BAF0EED3
:1007300060BA51EC1B0B10F0ADF805463246294665
:100740002046FFF7C5FE00EE104AB8EEC00A694821
:1007500080ED000A00EE105AB8EEC00A664880ED3F
:10076000000A002002B0BDEC0A8B70BD70B50446D3
:100770000D466248C0F810418CB1012006F04CFCD7
:10078000062000F0AEF802F0D0FD012804D1214689
:100790000020FFF7ABFD06E002F0D0FD03E015B945
:1007A0000CB902F0D9FD002070BD70B505460C46AD
:1007B0005248C0F8144184B1012006F02DFC0620F7
:1007C00000F08FF802F0B1FD012803D12146FFF7B8
:1007D0008DFD06E002F0B2FD03E014B90DB902F0A0
:1007E000BBFD002070BD10B5044645480068401CA4
:1007F00043490860084600680F2804DA4FF4807007
:100800004049088303E04FF480703E4948833C48E8
:1008100000681E2802DD0020394908603748007949
:10082000A0B939480078012810D16068FFF7DDFDD4
:10083000D4E90201FFF79AFFD4E90201FFF7B5FFFF
:10084000D4E905122069FFF7AEFE13E02B480079CA
:1008500002280FD16068FFF7C8FDD4E90201FFF755
:1008600085FFD4E90201FFF7A0FFD4E90512206952
:10087000FFF799FE002010BD10B50446234800681C
:10088000401C22490860084600680F2804DA4FF42B
:1008900080701C49088303E04FF480701949488335
:1008A0001A4800681E2802DD002018490860134815
:1008B000007901280FD16068FFF797FDD4E90201A4
:1008C000FFF754FFD4E90201FFF76FFFD4E90512E7
:1008D0002069FFF768FE002010BD10B5FFF748FD46
:1008E00010BD00F01F0201219140094A430942F85E
:1008F000231070470400002008000020C8060020D4
:100900000C00002000000240980000201000002091
:1009100080E200E010B54FF48070FE49C86000210D
:10092000FC480161FC48FB494860FC488860FC4881
:1009300008600020C1F8140103F076FC03F0CAFC43
:1009400003F0BDFC002010BD70B51921F148016114
:10095000F448007800287DD1F348C078C0F3C00087
:1009600050B9F148407AC0F3C00028B9EE48C07BC6
:10097000C0F3C00000286ED000250020EB490870AD
:10098000EB48006808280CDDE748407800F00F00CD
:10099000E7490978093901228A40104060B96D1E83
:1009A0000AE0E1488078E2490978491E01228A403C
:1009B000104008B94FF0FF35681C002834D00025DE
:1009C000DB480068092810DA002408E0D64880785F
:1009D0000121A140084008B1681C05B2641CD4483C
:1009E0000068401EA042F1DC1EE0002408E0CE4872
:1009F00080780121A140084008B1681C05B2641C40
:100A0000082CF4DB00240AE0C748407800F00F000F
:100A10000121A140084008B1681C05B2641CC4480B
:100A200000680938A042EFDC681C002812D005EBF2
:100A300045004000C01CBC49085CC0F3C000002851
:100A4000F4D0BC4803F074FEB8480078012801D106
:100A5000B84801E09BE073E00178AE480175B54805
:100A60004178AC484175B3488178AA488175B1484E
:100A7000C178A848C175AF480179A6480176AD484C
:100A80004179A4484176AB488179A2488176A9484A
:100A9000C179A048C176A748017A9E480177A54848
:100AA000417A9C484177A348817A9A488177A14846
:100AB000C17A9848C1779F48017B964880F82010FA
:100AC0009C48417B934880F821109A48817B91484B
:100AD00080F822109748C17B8E4880F823109548F3
:100AE000017C8C4880F824109248417C894880F829
:100AF00025109048817C874880F826108D48C17C5D
:100B0000844880F827108B48017D824880F828109F
:100B10008848417D7F4880F829108648817D7D483E
:100B200080F82A100021A0F82B108248C17D794856
:100B300080F82B108168884701207F49087026E0E3
:100B40007C4803F086FE7948007801281FD1FF21F8
:100B50007048017502214175764881786D4881752C
:100B60007448C1786B48C17572480179694801764B
:100B7000704841796748417613211A300EF015FB11
:100B80006C48C17D634880F82B108168884701203C
:100B900069490870002070BD30B587B004460D4625
:100BA0006648006858B92946204603F0FEFE5D49B4
:100BB00008700846007810B9012060490860FFF706
:100BC000C3FE5848007810B95948007918B1584800
:100BD0000079022817D11C2168460EF008FB2A462E
:100BE0002146684603F0FBFE002808DA4E48C0693B
:100BF000401C4D49C8614FF0FF3007B030BD68461A
:100C0000FFF7F1FD00BF0020F7E710B503F05BFB35
:100C1000002846D04648407918BB3E48416888477E
:100C200000283EDD03F052FB3A4800F1140102694E
:100C30003D480EF088FA3748007C3B494876084624
:100C4000417EFFF7A9FF3E480078FE2803DD002023
:100C50003B49087025E03A480078401C3849087044
:100C60001FE03348407901281BD101F06DFA0128BB
:100C700017D1344805F01FFA98B9192231492A488A
:100C80000EF01CFA1920284948760846417EFFF7E5
:100C900083FF00202C490870192005F03FF92B4AEA
:100CA00003C2002010BD2DE9F0472DED0C8B84B060
:100CB000044600210291039100200090019080469B
:100CC000814682462778657C032D01DA002505E000
:100CD000284605EBD0714910C91CCDB2A67C9FED0A
:100CE0001C8ADFED1C0A9FED1C0AB0EE40BA08EE2C
:100CF00060BADFED1A8ADFED1A0A9FED170AF0EEEF
:100D000040BA48EEE0BA9FED17AADFED120A9FED58
:100D1000120A29E07C0500200D4300084943000821
:100D200029420008180000208803002090000020BD
:100D3000C8060020C8040020CE0000201C000020AF
:100D40001900002068290020440100200001002033
:100D500092762CC00000204300000000ABAA2AC0FD
:100D60000000C04292762C40B0EE40DA0AEE60DA23
:100D7000DFEDB5AA5FED060A1FED090AF0EE40DAD5
:100D80004AEEE0DA1FED099A5FED0E0A1FED0E0A3A
:100D9000B0EE40CA09EE60CADFEDAB9A5FED100A13
:100DA0001FED130AF0EE40CA49EEE0CAE078A02831
:100DB00007DCE078602804DB0020A4494861824613
:100DC00001E04FF0010A2079A02807DC2079602893
:100DD00004DB00209D490861814601E04FF00109D4
:100DE0006079A02808DC6079602805DB002097493D
:100DF00088614FF0010801E04FF000082079A02839
:100E00000EDB207900EE100AF8EE400AB0EE4B0A35
:100E100008EE200ABDEEC00A8C4880ED040A10E0FE
:100E2000207960280DDC207900EE100AF8EE400AE7
:100E3000B0EE6B0A08EEA00ABDEEC00A834880ED52
:100E4000040AE078A0280EDBE07800EE100AF8EE45
:100E5000400AB0EE4D0A0AEE200ABDEEC00A7B48F9
:100E600080ED050A10E0E07860280DDCE07800EE07
:100E7000100AF8EE400AB0EE6D0A0AEEA00ABDEEC6
:100E8000C00A724880ED050A6079A0280EDB6079FF
:100E900000EE100AF8EE400AB0EE4C0A09EE200A05
:100EA000BDEEC00A694880ED060A10E0607960284E
:100EB0000DDC607900EE100AF8EE400AB0EE6C0A24
:100EC00009EEA00ABDEEC00A604880ED060A00BF28
:100ED00007F0010088B35E480068401C5C49086068
:100EE0000846006801280DD105F010F8594A106035
:100EF00051607F2D03DB96205449886001E0534800
:100F0000856064E005F002F8CDE902015149DDE9B0
:100F100002200B684968D31A60EB010040F6C41246
:100F20000021D21A81410CD20020494908607F2D4E
:100F300004DB96204549886002E006E0434885606E
:100F400045E000204149886041E0C7F3800088B354
:100F500041480068401C4049086008460068012874
:100F60000DD104F0D3FF3D4A106051607F2D03DBAB
:100F700096203649C86001E03448C56027E004F097
:100F8000C5FFCDE900013549DDE900200B6849685E
:100F9000D31A60EB010040F6C4120021D21A81413D
:100FA0000CD200202C4908607F2D04DB96202749B5
:100FB000C86002E006E02548C56008E0002023493B
:100FC000C86004E0002021498860C86000BF00BFFD
:100FD000402E03DA00201D49486014E0402E05DB56
:100FE000802E03DA0120194948600CE0802E05DBD1
:100FF000C02E03DA02201549486004E0C02E02DB4F
:10100000032012494860B8F1010F11D1B9F1010F65
:1010100002D0BAF1010F0BD101201149087011481B
:1010200090ED0C0ABDEEC00A084880ED060A02E009
:1010300000200B4908700548FFF71EFC002004B093
:10104000BDEC0C8BBDE8F087ABAA2A40A8030020BA
:101050002000002028000020240000203000002074
:101060001A0000209406002030B50446002003E05A
:10107000155C4D5D2554401C9842F9DB30BD30B500
:1010800090B00346002008E0441894FBF2F502FB00
:1010900015441C5D0DF80040401C9042F4DB00201C
:1010A00003E01DF800401C54401C9042F9DB10B0D6
:1010B00030BD70B5049C03E011F8015B00F8015BE2
:1010C0001D00A3F10103F7D103E012F8015B00F862
:1010D000015B2500A4F10104F7D170BD70B5044691
:1010E000002004E00D5C165C75402554401C9842BD
:1010F000F8DB70BD2DE9F047ADF5AB6D81468A4652
:10110000174698463823F94A39460DF5A460FFF78B
:10111000ABFF002506E00DF5A460405D0DF2045123
:1011200048556D1C1C2DF6DB002507E00DF5A4616C
:1011300005F11C00085C383948556D1C1C2DF5DB89
:10114000002524E0EA48415D1C220DF20450FFF71F
:1011500096FFE748415D1C220DF59D60FFF78FFF6C
:101160001C2003460DF59D620DF2045100900DF513
:101170009660FFF79EFF05EB45016CAA02EB01109C
:101180003023DC4A0DF59661FFF76EFF6D1C102DC4
:10119000D8DB4023D84A51465CA8FFF765FF0024FE
:1011A0000AE05CA8005D54A908555CA904F1200080
:1011B000085C4CA90855641C202CF2DB0025AAE031
:1011C0003023CE4A4CA930A8FFF74EFFB8F1000FEC
:1011D00001D0284601E0C5F10F0000EB40006CA9EA
:1011E00001EB0012302330A924A8FFF777FF002479
:1011F00011E000260CE004EB440006EB400024A9BB
:10120000085C04EB440118AA02EB41018855761CE6
:10121000062EF0DB641C082CEBDB002446E004EB1C
:10122000440218AB03EB4202527904EB44030DF184
:10123000600C1CF8133042EA430004EB440218AB84
:1012400003EB42025278D20004EB44030CEB43035D
:101250009B7842EA830204EB44030CEB4303DB7804
:1012600042EA430204EB44030CEB43031B7942EADA
:101270000301002617E0A24A02EB841202EB0012DF
:10128000525CC6F1030C012303FA0CF31A400AB1B5
:10129000012200E0002204EB44030DF1600C0CEB92
:1012A00043039A55761C042EE5DB641C082CB6DB40
:1012B00000240FE000260AE004EB440018A901EB2B
:1012C0004000805D06EB840110AA5054761C042E69
:1012D000F2DB641C082CEDDB20238A4A10A908A845
:1012E000FFF7C2FE202308AA54A96846FFF7F6FEBE
:1012F000002404E04CA8005D54A90855641C202C6F
:10130000F8DB002404E01DF804004CA90855641C17
:10131000202CF8DB6D1C102DFFF652AF2020034669
:1013200054AA4CA900903CA8FFF7C3FE4023764A7C
:101330003CA94846FFF798FE0DF5AB6DBDE8F08778
:1013400010B503785B100B700378DB075B0E4478F5
:1013500043EAA4034B7043789B075B0E847843EA0F
:10136000E4038B7083785B075B0EC47843EA241335
:10137000CB70C3781B075B0E047943EA64130B71CF
:101380000379DB065B0E447943EAA4134B7143797E
:101390009B065B0E847943EAE4138B71837903F037
:1013A0007F03CB71002204E08B5C5B061B0E8B5429
:1013B000521C082AF8DB10BD2DE9F041B2B00546F9
:1013C0000E461746984669463846FFF7B9FF00248F
:1013D00036E02046E21704EB5272D210B25C21468E
:1013E000E31704EB5373DB10A4EBC303C3F1070C47
:1013F000012303FA0CF31A400AB1012200E0002293
:1014000012AB1A552046E21704EB5272D2101DF8A7
:1014100002202146E31704EB5373DB10A4EBC30354
:10142000C3F1070C012303FA0CF31A400AB101229D
:1014300000E0002202AB1A55002022A90855641CC6
:10144000402CC6DB434602AA12A922A8FFF752FE8F
:10145000002402E000202855641C082CFADB00243C
:101460001BE022A8005DB8B1E21704EB5272D21063
:10147000AA5C2146E31704EB5373DB10A4EBC30310
:10148000C3F1070C012303FA0CF31A432046E317B8
:1014900004EB5373DB10EA54641C402CE1DB32B0E4
:1014A000BDE8F08170B58CB006460C4615460020AC
:1014B000089009900A900B90049005900690079070
:1014C0000090019002900390072D26DD206808907F
:1014D000A088ADF82400A0798DF826000F2D15DA2C
:1014E000EA1FE11D04A80DF0E9FD1FE0660F0108E9
:1014F0009E1001089E0F0108CE0F01080E10010872
:10150000AE1001083E1001085E100108D4F8070073
:101510000490D4F80B00059008E02A46214608A85C
:101520000DF0CCFD45A103C9CDE90401012308AAB2
:1015300004A96846FFF740FF00983060019870608A
:101540000CB070BDF0B58DB005460C4617461E4672
:101550000A2F02DA00200DB0F0BD002009900A9099
:101560000B900C90059006900790089001900290C7
:10157000039004902068099060680A902FA0016889
:10158000059100798DF818002089ADF819002078B0
:1015900000F0030005A90E54012305AA09A901A81A
:1015A000FFF70AFF207800F0070001A90E54206819
:1015B000286060686860208928810198C5F80A0061
:1015C0000298C5F80E000120C5E730B587B0044683
:1015D0000D46122D02DA002007B030BD207800F051
:1015E00007000A30235C2A46214601A8FFF7AAFF1C
:1015F00008B90020F0E71222214601A80DF026FDCF
:1016000008B90120E8E70020E6E770B506460D4678
:1016100000240FE02CB92A5D0BA130460DF0EAFB47
:1016200007E02A5D04EB44013144481E08A10DF097
:10163000E1FB641C082CEDDB70BD0000687A6E6A6B
:10164000726F626F74000000253032780000000075
:101650002D2530327800000070B505460C4601207B
:1016600006F0ABFB00BF612006F049FB0028FAD072
:1016700045F2555006F08EFA284606F08EFA2046BE
:1016800006F08EFA06F08FFA06F092FA70BD10B5E9
:1016900006F089FA10BD4FF480700E49488380002F
:1016A0000D49088020200B4908830C49088040021E
:1016B000891E088002200A490880C0010880802015
:1016C0000880042004490880891E088008200880BA
:1016D00070470000000002401A0C02401A04024049
:1016E0001A0802401FB50021029103910091019157
:1016F0000124FEA004F04CFC04F008FC643041F12D
:101700000001CDE9000129E0142004F0BBFBF848FA
:1017100004F075FCA8B9F7480078012805D100202D
:10172000F449087004F0010419E004F0EFFBCDE97E
:10173000020101A80DC80099891A98410ED200240F
:101740000DE004F0E3FBCDE90201DDE90231DDE962
:101750000020D21A884101D2002400E0D4E700BF63
:10176000204604B010BD70B58CB000210A910B91D9
:1017700008910991002500200590069007901421FA
:1017800068460DF034FD0126002404F0BFFB6430F0
:1017900041F10001CDE90801D748006820F07F45FC
:1017A0004E208DF814004A208DF815005F208DF82A
:1017B0001600280D8DF81700C5F303408DF81800AA
:1017C000C5F303308DF81900C5F303208DF81A0016
:1017D000C5F303108DF81B0005F00F008DF81C00F9
:1017E00003240FE005A8005D0A2805DA05A8005DBE
:1017F000303005A9085504E005A8005D373005A97B
:101800000855641C092CEDDBBCA168460DF04AFCB0
:1018100005A968460DF046FC684604F0B9FB2AE0CD
:10182000142004F02FFBB24804F0E9FBB0B9B14832
:101830000078012805D10020AE49087006F00106A5
:101840001AE004F063FBCDE90A01DDE90830DDE9C7
:101850000A219A1A88410ED200260DE004F056FBA8
:10186000CDE90A01DDE90830DDE90A12591A904193
:1018700001D2002600E0D3E700BF142168460DF036
:10188000B6FC04F043FB643041F10001CDE90801EE
:101890009948806820F07F454E208DF814004A203A
:1018A0008DF815005F208DF81600280D8DF81700B3
:1018B000C5F303408DF81800C5F303308DF8190007
:1018C000C5F303208DF81A00C5F303108DF81B0033
:1018D00005F00F008DF81C0003240FE005A8005D43
:1018E0000A2805DA05A8005D303005A9085504E08E
:1018F00005A8005D373005A90855641C092CEDDBEF
:1019000080A168460DF0CEFB05A968460DF0CAFB24
:10191000684604F03DFB2AE0142004F0B3FA744852
:1019200004F06DFBB0B973480078012805D10020A0
:101930007049087006F001061AE004F0E7FACDE9F4
:101940000A01DDE90A32DDE90810C91A90410ED218
:1019500000260DE004F0DAFACDE90A01DDE90830ED
:10196000DDE90A219A1A884101D2002600E0D3E776
:1019700000BF30460CB070BD30B58DB004460021BC
:101980000A910B910891099100200590069007900B
:10199000142168460DF02BFC012504F0B7FA6430E1
:1019A00041F10001CDE908012068059060680690CA
:1019B0002089ADF81C0051A168460DF073FB05A904
:1019C00068460DF06FFB684604F0E2FA2AE0142046
:1019D00004F058FA464804F012FBB0B945480078C4
:1019E000012805D100204349087005F001051AE0DF
:1019F00004F08CFACDE90A01DDE90830DDE90A12CC
:101A0000591A90410ED200250DE004F07FFACDE97D
:101A10000A01DDE90A31DDE90820D21A884101D244
:101A2000002500E0D3E700BF142168460DF0DFFB7E
:101A300004F06CFA643041F10001CDE9080120683E
:101A40000590606806902089ADF81C002DA16846BD
:101A50000DF028FB05A968460DF024FB684604F04C
:101A600097FA2AE0142004F00DFA214804F0C7FA8E
:101A7000B0B920480078012805D100201D49087020
:101A800005F001051AE004F041FACDE90A01DDE9AB
:101A90000830DDE90A12591A90410ED200250DE0F6
:101AA00004F034FACDE90A01DDE90830DDE90A2164
:101AB0009A1A884101D2002500E0D3E700BF2846EA
:101AC0000DB030BD30B58DB0044600210A910B91A8
:101AD00008910991002006900790142101A80DF0AB
:101AE00086FB012504F012FA64300FE04154000037
:101AF0006829002043010020EC04002041542B4EB3
:101B0000414D450041542B4E414D420041F10001F1
:101B1000CDE9080120680690A088ADF81C00FEA160
:101B200001A80DF0BFFA06A901A80DF0BBFA01A8A3
:101B300004F02EFA2AE0142004F0A4F9F84804F086
:101B40005EFAB0B9F7480078012805D10020F549C0
:101B5000087005F001051AE004F0D8F9CDE90A0192
:101B6000DDE90830DDE90A12591A90410ED200254C
:101B70000DE004F0CBF9CDE90A01DDE90830DDE93B
:101B80000A12591A904101D2002500E0D3E700BFA4
:101B9000142101A80DF02BFB04F0B8F9643041F1D9
:101BA0000001CDE9080120680690A088ADF81C006E
:101BB000DDA101A80DF076FA06A901A80DF072FAD0
:101BC00001A804F0E5F92AE0142004F05BF9D448F8
:101BD00004F015FAB0B9D3480078012805D10020E7
:101BE000D049087005F001051AE004F08FF9CDE93D
:101BF0000A01DDE90830DDE90A12591A90410ED2D6
:101C000000250DE004F082F9CDE90A01DDE90A3290
:101C1000DDE90810C91A904101D2002500E0D3E7A0
:101C200000BF28460DB030BD30B58BB00446002152
:101C300008910991069107910020059014216846AA
:101C40000DF0D5FA012504F061F9643041F100018D
:101C5000CDE9060104F13000C0B28DF81400B4A142
:101C600068460DF01FFA05A968460DF01BFA684694
:101C700004F08EF92AE0142004F004F9A84804F0D6
:101C8000BEF9B0B9A7480078012805D10020A549C0
:101C9000087005F001051AE004F038F9CDE90801F3
:101CA000DDE90831DDE90620D21A88410ED200258F
:101CB0000DE004F02BF9CDE90801DDE90831DDE99B
:101CC0000620D21A884101D2002500E0D3E700BFE8
:101CD00028460BB030BD30B58BB0044600210891CA
:101CE00009910691079100200590142168460DF096
:101CF0007EFA012504F00AF9643041F10001CDE9D2
:101D0000060104F13000C0B28DF814008AA16846C3
:101D10000DF0C8F905A968460DF0C4F9684604F04D
:101D200037F92AE0142004F0ADF87D4804F067F993
:101D3000B0B97C480078012805D1002079490870A5
:101D400005F001051AE004F0E1F8CDE90801DDE94C
:101D50000831DDE90620D21A88410ED200250DE0B7
:101D600004F0D4F8CDE90801DDE90831DDE9062009
:101D7000D21A884101D2002500E0D3E700BF2846EF
:101D80000BB030BD30B58BB00446002108910991ED
:101D90000691079100200590142168460DF027FA5E
:101DA000012504F0B3F8643041F10001CDE90601EA
:101DB00004F13000C0B28DF8140061A168460DF046
:101DC00071F905A968460DF06DF9684604F0E0F870
:101DD0002AE0142004F056F8514804F010F9B0B984
:101DE00050480078012805D100204E49087005F0C0
:101DF00001051AE004F08AF8CDE90801DDE90831AF
:101E0000DDE90620D21A88410ED200250DE004F04B
:101E10007DF8CDE90801DDE90831DDE90620D21AB7
:101E2000884101D2002500E0D3E700BF28460BB06F
:101E300030BD30B58BB00446002108910991069160
:101E4000079100200590142168460DF0D0F9012576
:101E500004F05CF8643041F10001CDE9060104F1C1
:101E60003000C0B28DF8140037A168460DF01AF9A1
:101E700005A968460DF016F9684604F089F82AE0CD
:101E8000142003F0FFFF264804F0B9F8B0B9254844
:101E90000078012805D100202249087005F00105CD
:101EA0001AE004F033F8CDE90801DDE90831DDE995
:101EB0000620D21A88410ED200250DE004F026F843
:101EC000CDE90801DDE90831DDE90620D21A8841B3
:101ED00001D2002500E0D3E700BF28460BB030BD9B
:101EE00030B58BB004460021089109910691079105
:101EF00000200590142168460DF079F9012504F0C1
:101F000005F8643041F10001CDE9060104F130002B
:101F1000C0B28DF814001BE041542B50494E4500CF
:101F2000682900204301002041542B50494E4200B3
:101F300041542B424155440041542B50494F3100EC
:101F400041542B4455414C0041542B4849474800CB
:101F5000B0A168460DF0A6F805A968460DF0A2F8F4
:101F6000684604F015F82AE0142003F08BFFAB4814
:101F700004F045F8B0B9AA480078012805D100203E
:101F8000A749087005F001051AE003F0BFFFCDE98D
:101F90000801DDE90630DDE90812591A90410ED238
:101FA00000250DE003F0B2FFCDE90801DDE90831BD
:101FB000DDE90620D21A884101D2002500E0D3E7EE
:101FC00000BF142168460DF012F903F09FFF643042
:101FD00041F10001CDE9060104F13000C0B28DF8F5
:101FE000140090A168460DF05DF805A968460DF053
:101FF00059F8684603F0CCFF29E0142003F042FFB3
:10200000864803F0FCFFA8B985480078012805D16F
:1020100000208349087005F0010519E003F076FF00
:10202000CDE9080107A80DC80699891A98410ED272
:1020300000250DE003F06AFFCDE90801DDE9083174
:10204000DDE90620D21A884101D2002500E0D4E75C
:1020500000BF28460BB030BD30B58BB00446002120
:102060000891099106910791002005901421684676
:102070000DF0BDF8012503F049FF643041F1000186
:10208000CDE9060104F13000C0B28DF8140067A15B
:1020900068460DF007F805A968460DF003F8684694
:1020A00003F076FF2AE0142003F0ECFE5B4803F017
:1020B000A6FFB0B95A480078012805D10020584938
:1020C000087005F001051AE003F020FFCDE90801D2
:1020D000DDE90831DDE90620D21A88410ED200255B
:1020E0000DE003F013FFCDE90801DDE90831DDE97A
:1020F0000620D21A884101D2002500E0D3E700BFB4
:1021000028460BB030BD10B50124FFF7EBFAFFF7FE
:102110002AFB04400120FFF7DEFD04400620FFF704
:1021200083FD04400020FFF72DFE04400020FFF750
:1021300080FE04400020FFF7D3FE04400120FFF79B
:102140008BFF0440204610BD10B50024334803F037
:1021500056FF002852D13248007801284ED1002085
:102160002F4908702D48C07843280BD12B4800799F
:102170004F2807D1294840794E2803D12748807934
:1021800045280FD02548C078432811D1234800792D
:102190004F280DD1214840794E2809D11F48807918
:1021A000422805D10124012022490870204610BD93
:1021B0001A48C0784C280BD118480079532807D109
:1021C00016484079542803D11448807945280FD007
:1021D0001248C0784C2811D11048007953280DD1ED
:1021E0000E484079542809D10C488079422805D1FD
:1021F000002400200F4908702046D8E70D480078D9
:10220000012800D1D3E70B48007808B90020CEE7B9
:102210002046CCE741542B494D4D4500682900200C
:102220004301002041542B494D4D420041542B4E57
:102230004F5449003F0000201CB50121880505F0DE
:10224000F2FE4FF44060009002208DF805008DF8FA
:10225000040000208DF8070001208DF80600694673
:10226000F84805F0C3F904220A21F64805F049FAB6
:1022700004220B21F34805F044FA1CBD1FB50020D1
:10228000ADF804004FF48060ADF80A000001ADF82D
:102290000C00ED4800906946EC4805F090FA0121E9
:1022A000EA4805F008FB0121E84805F030FB1FBDB6
:1022B00070B5044600BF4FF40031E44805F021FC3E
:1022C0000028F8D10121E14805F001FB00BFE049F9
:1022D000DE4805F0F4FB0028F9D00022D021DB48CD
:1022E00005F00DFB00BFDB49D84805F0E8FB0028EE
:1022F000F9D02146D54805F086FB00BFD549891C99
:10230000D24805F0DCFB0028F8D00121CF4805F0C9
:10231000DEFA00BFCE49CD4805F0D1FB0028F9D048
:102320000122D021C94805F0EAFA00BFC849491C7A
:10233000C64805F0C4FB0028F8D000BFC4493F31AF
:10234000C24805F0BCFB0028F8D0C04805F05DFB92
:1023500005460021BD4805F0DAFA0121BB4805F029
:10236000C2FA284670BD10B54FF40060B5491A3165
:1023700008800A2003F09DFD4FF48060B1491831B8
:1023800008800A2003F095FD4FF40060AD49183134
:1023900008800A2003F08DFD10BD10B5FFF7E3FFA4
:1023A00010BD10B54FF40060A649183108800A200E
:1023B00003F07FFD4FF48060A249183108800A20A5
:1023C00003F077FD4FF400609E491A3108800A201F
:1023D00003F06FFD4FF480609A491A3108800A209B
:1023E00003F067FD10BD10B54FF40060954918313A
:1023F00008800A2003F05DFD4FF480609149183198
:1024000008800A2003F055FD8E481030006800F463
:1024100000641CB1FFF7A7FF002010BD4FF48060DF
:1024200088491A3108800A2003F043FD0120F4E7AF
:1024300070B5054671B6002421E005FA04F000F0FD
:10244000800028B14FF400607E491831088004E014
:102450004FF400607B491A3108800A2003F029FDFF
:102460004FF480607749183108800A2003F021FD7D
:102470004FF4806073491A310880601CC4B2082C84
:10248000DBDB0A2003F015FDFFF7ADFF064661B662
:10249000304670BD70B50826002471B64FF4006058
:1024A0006849183108801FE00A2003F002FD4FF44C
:1024B000806064491A3108800A2003F0FAFC4FF466
:1024C00080606049183108800A2003F0F2FC600641
:1024D000040E5C481030006800F400650DB144F053
:1024E00001040A2003F0E5FC3000A6F10101CEB2A0
:1024F000DAD14FF4806053491A3108800A2003F082
:10250000D8FC61B6204670BD10B504462CB94FF416
:1025100000604C491A31088004E04FF400604949DA
:10252000183108800A2003F0C4FC4FF4806045494C
:10253000183108800A2003F0BCFC4FF48060414948
:102540001A3108800A2003F0B4FC10BD2DE9F041D7
:1025500005460E461746FFF724FF05F0FE00FFF77D
:1025600067FF8046B8F1000F02D10020BDE8F0817E
:1025700000240AE0305DFFF75BFF8046B8F1000FF2
:1025800001D12046F2E7601CC4B23800A7F1010176
:10259000CFB2EFD1FFF7E7FE0A2003F08AFC204616
:1025A000E4E72DE9F04107460D461646FFF7F9FE30
:1025B00047F00100FFF73CFF8046B8F1000F02D161
:1025C0000020BDE8F08100240CE0FFF763FF2855F0
:1025D0000020FFF799FF0A2003F06BFC701EC6B2C3
:1025E000601CC4B2012EF0DCFFF754FF2855012017
:1025F000FFF78AFF0A2003F05CFCFFF7B4FE0A2015
:1026000003F057FC601CC4B22046DAE770B50446FC
:10261000FFF7C7FE04F0FE00FFF70AFF05460DB9FD
:10262000002070BDFFF79FFE0A2003F042FC01204E
:10263000F7E72DE9F05F80460C46154665B9BDE821
:10264000F09F000000040240503403000058004096
:10265000010003008200070071B62046E11704EB79
:102660005171C910A4EBC101C1F10801CFB2AF4251
:1026700000D9EFB2002651E0FFF793FE2112A0220D
:1026800002EB4101C8B2FFF7D3FEA246E11704EB0B
:1026900011610912A4EB0121C8B2FFF7C9FE05E0E0
:1026A00098F80000FFF7C4FE08F101083800A7F110
:1026B0000101CFB2F4D1FFF756FE4FF0000BD9461F
:1026C00016E00A2003F015FC09F1010000F0FF09F3
:1026D000FFF767FE2112A02202EB4101C8B2FFF70B
:1026E000A7FE8346FFF73FFEBBF1000F00DD02E0CF
:1026F000B9F10A0FE5DB00BFB9F10A0F01D161B6EC
:102700009DE73E44E01984B2AE4200D307E0A81B27
:10271000082801D9082701E0A81BC7B2ACE700BF11
:1027200061B600BF8BE72DE9F04105460C46174620
:102730004FF0000871B6FFF734FE2112A02202EB21
:102740004101C8B2FFF774FE2646E11704EB1161A0
:102750000912A4EB0121C8B2FFF76AFEFFF721FEC0
:102760002112A12202EB4101C8B2FFF761FE4FF036
:10277000000808E0FFF78EFE28700020FFF7C4FE77
:102780006D1C08F10108781E4045F3D8FFF782FE62
:1027900028700120FFF7B8FEFFF7E5FD61B6BDE840
:1027A000F0812DE9F04104460E46174671B6FFF759
:1027B000F8FD04F0FE00FFF73BFE054605B91DE0FD
:1027C0003046FFF735FE054605B917E0FFF7E9FD8E
:1027D00044F00100FFF72CFE054605B90EE0FFF7B7
:1027E00059FE38700120FFF78FFEFFF7BCFD0A206D
:1027F00003F05FFB61B60120BDE8F081FFF7B3FD98
:102800000A2003F056FB61B60020F5E7F8B506464E
:102810000C4615468DF800408DF8015071B6022225
:1028200069463046FFF792FE074661B6002F01DD8C
:102830000120F8BD0020FCE72DE9F84F80460C464A
:1028400015460DB9BDE8F88F71B62046E11704EBC7
:10285000D1614911A4EB4111C1F12001CFB2AF42C6
:1028600000D9EFB20026BA4652E0FFF79AFDA02049
:10287000FFF7DEFDA346E11704EB1161C1F307206A
:10288000FFF7D6FDE11704EB11610912A4EB01215A
:10289000C8B2FFF7CDFD05E098F80000FFF7C8FDCE
:1028A00008F101083800A7F10101CFB2F4D1FFF718
:1028B0005AFD00200090814612E00A2003F019FB27
:1028C00009F1010000F0FF09FFF76BFDA020FFF701
:1028D000AFFD0090FFF747FD0098002800DD02E003
:1028E000B9F10A0FE9DB00BFB9F10A0F01D161B6F6
:1028F000A8E7564404EB0A0084B2AE4200D308E0D5
:10290000A81B202801D9202701E0A81BC7B2BA467E
:10291000ABE700BF61B600BF94E72DE9F041054683
:102920000C4617464FF0000871B6FFF73AFDA0209D
:10293000FFF77EFD2646E11704EB1161C1F3072086
:10294000FFF776FDE11704EB11610912A4EB0121F9
:10295000C8B2FFF76DFDFFF724FDA120FFF768FD6A
:102960004FF0000808E0FFF795FD28700020FFF702
:10297000CBFD6D1C08F10108781E4045F3D8FFF728
:1029800089FD28700120FFF7BFFDFFF7ECFC61B661
:10299000BDE8F08110B501211F2005F011FB0121D8
:1029A000084605F051FB0121084605F03CFB0121DA
:1029B000022005F038FB0121082005F034FB01213D
:1029C000042005F030FB0121102005F02CFB012133
:1029D000202005F028FB0121080405F035FB01212A
:1029E000480405F031FB0121880405F02DFB01218D
:1029F000402005F018FB0121C80305F014FB01215C
:102A0000880405F010FB0121080205F01DFB0121DF
:102A1000880305F019FB10BD08B500F0A9FC4FF4C0
:102A2000C06005F0D7F827208DF8000001208DF850
:102A3000010002208DF8020001208DF80300684695
:102A400005F0CDF808BD1CB50320009002208DF8DC
:102A5000040000208DF8060002208DF805000020FB
:102A60008DF807006946F84804F0C0FD02220021F5
:102A7000F54804F046FE02220121F34804F041FE2D
:102A8000C02000906946F04804F0B0FD0222062103
:102A9000ED4804F036FE02220721EB4804F031FE37
:102AA000C02000906946E94804F0A0FD02220621FA
:102AB000E64804F026FE02220721E44804F021FE45
:102AC0004FF4004000906946DF4804F08FFD082075
:102AD00000906946DD4804F089FD01220F21DA48A3
:102AE00004F00FFE01220321D84804F00AFE4FF43F
:102AF000D44000906946D64804F078FD01220921AF
:102B0000D34804F0FEFD01220B21D14804F0F9FD69
:102B100001220D21CE4804F0F4FD01220E21CC4803
:102B200004F0EFFD4FF4007000906946C74804F0D0
:102B30005DFD03220921C54804F0E3FD4FF48070D8
:102B400000906946C14804F051FD03220821BF48A6
:102B500004F0D7FD0C2000906946BB4804F046FD08
:102B600003220221B84804F0CCFD03221146B648E6
:102B700004F0C7FD032000908DF804006946B348B7
:102B800004F034FD02208DF804004FF4E050009072
:102B90006946AD4804F02AFD0A221146AA4804F00D
:102BA000B0FD0A220B21A84804F0ABFD0A220C213B
:102BB000A54804F0A6FD4FF4E05000906946A548F2
:102BC00004F014FD06220A21A24804F09AFD062210
:102BD0000B21A04804F095FD06220C219D4804F02D
:102BE00090FD4FF4D850009069469B4804F0FEFCDD
:102BF00007220821984804F084FD072209219648FD
:102C000004F07FFD07220B21934804F07AFD072290
:102C10000C21914804F075FD4FF4007000900020E5
:102C20008DF804008DF8060003208DF805000220C1
:102C30008DF807006946844804F0D8FC4FF4807092
:102C4000009001208DF8040000208DF8060002207D
:102C50008DF8050000208DF8070069467A4804F0D9
:102C6000C5FC4FF44060009001208DF80400022064
:102C70008DF8050001208DF8060000208DF8070072
:102C80006946724804F0B2FC4FF480400090012085
:102C90008DF8040002208DF8050000208DF8060054
:102CA00001208DF807006946684804F09FFC4EF249
:102CB0000120009000208DF8040002208DF805000E
:102CC00000208DF806008DF807006946614804F081
:102CD0008DFC4FF4C170009001208DF8040002209B
:102CE0008DF8050000208DF806008DF80700694674
:102CF000584804F07BFC0120009000208DF804006F
:102D000002208DF8050000208DF8060001208DF8C6
:102D100007006946504804F069FC40F20E400090FC
:102D200001208DF8040002208DF8050000208DF8A8
:102D300006008DF807006946474804F057FC40F24A
:102D4000FF50009001208DF8040002208DF805004E
:102D500000208DF806008DF8070069463C4804F015
:102D600045FC202000906946374804F03FFC2020B5
:102D700000906946354804F039FC1CBD7FB5002140
:102D8000364A11605160684605F085F84FF47A7252
:102D90000198B0FBF2F1B1F1807F00D31DE021F08A
:102DA0007F40401E4FF0E022506150170F22002854
:102DB00007DA13071D0E2A4B00F00F04241F1D55C0
:102DC00003E013071C0E274B1C5400BF00204FF0DC
:102DD000E02290610720106100BF7FBD38B500225E
:102DE000214B1B68214C23601F4B1B1D1B6863601C
:102DF0001D4B08331B68A360002022E01B4B13F817
:102E000020308DF80030194B33F820301B0A8DF834
:102E10000130164B53F820301B0C8DF80230134B49
:102E200053F820301B0E8DF80330002106E01DF80A
:102E300001501346521C0E4CE554491C0429F6DB84
:102E4000401C0328DADB38BD0000024000040240C9
:102E50000010024000080240000C0240380100202F
:102E600018ED00E000E400E0107AFF1FEC04002001
:102E7000F804002070B505460024FF2D00D1FE2582
:102E80002B460C2276497748FEF75CFB002407E0CE
:102E90007448005DFF2802D1FE2072490855641C69
:102EA000122CF5DB70BD10B504F000FB01280CD02E
:102EB00004F00EF904F07AFA552004F0A8FA04F0B0
:102EC000DFFA04F080FA04F010F910BD10B504F038
:102ED000EDFA01280CD104F0FBF804F067FAAA20FF
:102EE00004F095FA04F0CCFA04F06DFA04F0FDF861
:102EF00010BDF8B50026FFF7D6FFFEF7CCFB02F0B9
:102F0000A7FF00F082F900F0AAFE00F0C7F9FFF772
:102F100044FA00F039FB00F058FA00F0D9FA4FF407
:102F2000E13003F017F8002500E06D1C4E488542A3
:102F3000FBDB00F08BFFD8B900204C49097821F069
:102F40000101491C494A11700221494A118000BF00
:102F500000E0401C47498842FBDB0221444A921CA6
:102F60001180002000E0401C42498842FBDB00BF8A
:102F700061B602F081F8FDF7CDFCFFF72FFF00F0FE
:102F8000ECFA07463846FFF775FF4FF47A710420D4
:102F9000FEF762FB3848007818BB0024FFF7B3F84F
:102FA0000646012E02D101F0D6FE19E02F48007826
:102FB00020F00200801C2D49087002202C49088056
:102FC000002400E0641C2B488442FBDB02202849DB
:102FD000891C0880002400E0641C26488442FBDB36
:102FE00000BF26480079012804D0022814D0042804
:102FF00025D118E00020224908702248224B234A9C
:1030000001210090224806F0E7FBFFF715F9FFF7D2
:1030100035F900F05CFF13E0FFF70EF9FFF72EF92A
:1030200000F055FF0CE001201549087019481A4BB3
:103030001A4A012100901A480AF077FA00E000BF0E
:1030400000BFF8BD10B571B6FFF7A4FCFFF7E4FCB4
:10305000FFF7F9FCFFF792FEFFF74BFF002010BDD2
:10306000F80400200405002080F0FA023800002057
:10307000180802408096980047000020C8060020EB
:1030800046000020D801002058020020A43400206F
:10309000142A0020B0010020040300207401002045
:1030A000E437002010B5FFF7CDFF02F09FF90020B4
:1030B00010BD000070B5044600251AE02020F84934
:1030C000488304F0800018B12020F649088003E00E
:1030D0002020F449891C0880012002F0EAFE20200B
:1030E000EF490883012002F0E4FE6006040E681C2C
:1030F000C5B2082DE2DB2020E949088370BD2DE927
:10310000F04107460C4615461E460020FFF7D2FF49
:103110000020FFF7CFFF0020FFF7CCFF0020FFF7D4
:10312000C9FF06F01F0040F0E0084046FFF7C2FF6D
:103130002846FFF7BFFF2046FFF7BCFF3846FFF7E2
:10314000B9FFFF20FFF7B6FFFF20FFF7B3FFFF2017
:10315000FFF7B0FFFF20FFF7ADFFBDE8F08110B52E
:103160001F23002211466420FFF7C9FF10BD10B5D0
:1031700000221146CC4805F047FE0021CA4805F060
:10318000D5FB10BD10B500220421C74805F03CFE58
:103190000021C54805F0CAFB10BD10B50446962CA9
:1031A00000D99624C4F1990404B901240122002114
:1031B000BD4805F029FE00220421BB4805F024FE8D
:1031C0002146B94805F017FD0121B74805F0AEFBCF
:1031D00010BD10B50446962C00D99624C4F199046C
:1031E00004B9012401220421AF4805F00DFE00229C
:1031F0001146AD4805F008FE2146AB4805F0FDFC40
:103200000121A94805F092FB10BD10B588B0A74870
:1032100000684008400042F21071B0FBF1F0401E1F
:1032200084B298200690ADF814400020ADF81C0040
:10323000ADF8160005A99C4805F0EFFA7020ADF82E
:1032400000000120ADF8020002900020ADF80C0053
:103250006946954805F0AFFB7020ADF800000220EC
:10326000ADF80C006946904805F06CFB08218E48CB
:1032700005F04AFB00218C4805F0F1FC00218A484A
:1032800005F0F6FC00221146874805F0BDFD00223E
:103290000421854805F0B8FD08B010BD30B589B0EF
:1032A00000244FF48070824908838000488300BF67
:1032B0007E48006846F2A811B0FBF1F50795ADF81D
:1032C00018400020ADF82000ADF81A0006A9794892
:1032D00005F0A3FA6020ADF804000120ADF8060067
:1032E000002003900220ADF8100001A9714805F0FC
:1032F00029FB00216F4805F0B2FC01216D4805F063
:1033000015FB09B030BD70B504460D4625B14FF42C
:1033100080606749088303E04FF480606449488314
:103320002146644805F067FC70BD6348006800F002
:10333000010008B1012070470020FCE701205F492F
:1033400008700620012181404209920002F1E0222A
:10335000C2F8001100BF7047062001218140584A81
:10336000430942F8231000BF0020544908707047F9
:103370000EB50021022005F06BF90120019000201C
:103380008DF8080008208DF8090001208DF80A004A
:1033900001A803F0DFFD012003F03EFE06208DF8BA
:1033A000000002208DF801008DF8020000208DF849
:1033B0000300684604F013FC062001218140414AC5
:1033C000430942F8231000BF0EBD30B589B000BFDD
:1033D00000243648006849F27041B0FBF1F0451E08
:1033E0000795ADF818400020ADF82000ADF81A00A0
:1033F00006A9354805F011FA6020ADF80400012057
:10340000ADF806002948006849F27041B0FBF1F0C0
:1034100000EB800080006421B0FBF1F003900020FD
:10342000ADF8100001A9284805F08CFA00212648C3
:1034300005F015FC0021244805F078FA09B030BDEC
:1034400010B50121204805F071FA10BD10B500211A
:103450001D4805F06BFA10BD0146C1EB011082005A
:10346000D01702EB105000137047014608033C22AE
:1034700090FBF2F070471548D0ED430A60EE800AE9
:10348000FDEEE00A10EE900A70471049D1ED430AB4
:1034900000EE100AB8EEC01A81EE200A7047000054
:1034A00000000240180402400040014024010020B6
:1034B00000100240004801401008024002000020B5
:1034C00080E100E080E200E000440140C806002006
:1034D00000B58BB00021E34803F04DFB00200190C4
:1034E0004FF480700490002003904FF480300290DD
:1034F00001A803F029FB002005908DF818008DF835
:1035000019000790099001208DF8280005A9D548D9
:1035100003F0EBFA022301220821D24803F06BFBEF
:103520000121D04803F027FB0BB000BD10B50223EA
:1035300001220821CB4803F05EFBCA4803F0B7FB29
:1035400000BF0221C74803F0D3FC0028F9D0C548CA
:10355000C06C84B22411E0B210BD10B50223012268
:103560000921C04803F047FBBE4803F0A0FB00BFA1
:103570000221BC4803F0BCFC0028F9D0B948C06C5B
:1035800084B22411E0B210BD00B585B00420B64964
:1035900008800220891E08800020ADF800004FF44A
:1035A0008270ADF802000020ADF80400ADF806000E
:1035B000ADF808004815ADF80A001020ADF80C0071
:1035C0000020ADF80E000720ADF810006946A748AE
:1035D00004F05AFE0121A54804F039FF05B000BDF2
:1035E00010B5044600BF0221A04804F0E8FF0028FF
:1035F000F9D021469D4804F0ABFF00BF01219B4854
:1036000004F0DDFF0028F9D0984804F09EFFC0B216
:1036100010BD2DE9F04104460E461746002571B64F
:10362000802093490880052002F043FC4FF480700D
:103630008F4908808020891E08804FF000081DE017
:103640006D108B480A38006800F40070B0F5007FF8
:1036500001D145F400454FF480708549891E0880EA
:10366000012002F026FC4FF480708149088001207F
:1036700002F01FFC08F1010000F0FF08B8F1100F84
:10368000DEDB61B6680B3870C5F30310207005F0FF
:103690000F00401C30702078764908602078102890
:1036A00039D2DFE800F0080B0E1114171A1D202381
:1036B00026292C2F32355F2020702FE049202070E2
:1036C0002CE04B20207029E04D20207026E04F2078
:1036D000207023E05120207020E0552020701DE054
:1036E000592020701AE06520207017E067202070B4
:1036F00014E05D20207011E0692020700EE06D2044
:1037000020700BE07120207008E07520207005E02B
:103710007920207002E05D20207000BF00BFBDE86E
:10372000F081002070472DE9F0414FF00008FFF7CD
:1037300014FF0746504801680068401C4E4A10605C
:103740004E4840F8217010460068052805D1002039
:103750001146086001204A490870002500264848A3
:10376000007800285AD0012412E0444850F8240080
:10377000424951F82510884200DD25463F4850F85F
:1037800024003E4951F82610884200DA2646641C7F
:10379000052CEADB394850F825003A4909683A4ACD
:1037A00012681144884204DD36480068334941F804
:1037B0002500324850F8260032490968324A12681A
:1037C000891A884204DA2F4800682C4941F82600FB
:1037D0002A4800682B490860012408E0274850F86F
:1037E000240028490968084426490860641C052CFF
:1037F000F4DB24480068052190FBF1F021490860C2
:103800000846077800688B2819DA4FF00108084647
:103810000068852813DC4FF0020810E0174909689A
:10382000164A52681144154A92681144134AD268E4
:103830008818C11700EB91718910124A116071B696
:10384000124880F82D7100EE107AB8EE400ADFEDD4
:10385000100A20EE200A80ED4D0A61B64046BDE810
:10386000F0810000002001401A0C0240003C0040A2
:103870001A080240480000204C00002018050020D3
:10388000580000205000002054000020C8060020EE
:103890006666CA3D30B587B005460C460020ADF8D7
:1038A00004004FF6FF7002900020ADF80C00ADF858
:1038B000060001A9284604F0B0FF00231A460321A0
:1038C000284605F01EFD0020ADF81000ADF81200EE
:1038D0000120ADF814000020ADF81600ADF8180076
:1038E00014B9ADF8120002E00220ADF8120004A9EC
:1038F000284605F069FB0420ADF810000020ADF863
:10390000120004A9284605F05FFB00206862002130
:10391000284605F00BF807B030BD0820FE490880A6
:103920000020091D0880FC490C310880FB48006814
:103930008008FB49B0FBF1F0401EF74928310880B0
:103940004FF6FF70091D08600120F349143108800B
:103950000020F14924310860EF4910310880704798
:1039600010B5F04908680121FFF794FFED49486858
:103970000121FFF78FFFEB4988680121FFF78AFFDC
:10398000E849C8680121FFF785FFFFF7C6FF10BDB2
:103990004FF0804000884FF6FE7108404FF08041A4
:1039A0000880E14800884FF6FE710840DE49088033
:1039B000DE4800884FF6FE710840DC490880DC488C
:1039C00000884FF6FE710840D949088000204FF06A
:1039D00080414862D44924310860D44924310860C8
:1039E000D34924310860CC4924310860CA491031D8
:1039F0000880C948008840F00100C74908800805D0
:103A0000008840F0010009050880C748008840F0A0
:103A10000100C5490880C548008840F00100C3493D
:103A20000880C348008840F00100C1490880704701
:103A300070B50546B84800884FF6FE710840B64993
:103A40000880080500884FF6FE7108404FF080415D
:103A50000880B54800884FF6FE710840B2490880DA
:103A6000B24800884FF6FE710840B0490880B0485F
:103A700000884FF6FE710840AD490880A648243002
:103A8000006883B20BB94FF6FF7300221AE0A54815
:103A900050F82260706A04B200EE903AF8EE600AC4
:103AA000DFEDA41A81EEA01A00EE904AF8EEE00ACB
:103AB00021EE200AFDEEC00A10EE900A45F8220021
:103AC000501CC2B2042AE2DBFFF762FF70BD9248CD
:103AD00000884FF6FE7108408F490880080500886D
:103AE0004FF6FE7108404FF0804108808E480088F4
:103AF0004FF6FE7108408C4908808C4800884FF6CC
:103B0000FE71084089490880894800884FF6FE7197
:103B1000084087490880704770B505460C4600206C
:103B2000002115B141F0010101E040F0010014B1A4
:103B300041F0020101E040F0020012B141F0040145
:103B400001E040F0040013B141F0080101E040F051
:103B50000800794E3183708370BD70B505460C4600
:103B60000020002115B141F0100100E080B214B135
:103B700041F0200100E080B212B141F0400100E0CC
:103B800080B213B141F0800100E080B26A4E31830F
:103B9000708370BD10B5694C6063A163E2632364F8
:103BA00010BD30B589B0002400BF5C48006846F203
:103BB000A811B0FBF1F50795ADF818400020ADF85D
:103BC0002000ADF81A0006A95C4804F026FE60202B
:103BD000ADF804000120ADF806000020039002209B
:103BE000ADF8100001A9554804F0ACFE0821534877
:103BF00005F035F80120ADF806000020039001A97A
:103C00004E4804F0D8FE08214C4805F031F8012058
:103C1000ADF806000020039001A9484804F018FF01
:103C20000821464805F031F80120ADF806000020D3
:103C3000039001A9414804F071FF08213F4805F0B5
:103C40002DF801213D4804F053FE00213B4804F0CB
:103C50006DFE0121394805F05AFA09B030BD10B5A2
:103C6000FFF79FFF01231A4619461846FFF775FF15
:103C700000231A4619461846FFF74EFF00231A463E
:103C800019461846FFF786FFFFF76AFE00202C4909
:103C9000087010BDF0B587B02948007808B907B0A2
:103CA000F0BD6846FFF7C4FE002422E05DF8241052
:103CB000244800EB8410C163224800EB84165DF8B1
:103CC0002410B3EE000A304601F0C3F80546002D7B
:103CD00007DA012006A90855684204A921F8140052
:103CE00005E0002006A9085504A921F81450601C1D
:103CF000C4B2042CDADB9DF81B309DF81A209DF825
:103D000019109DF81800FFF707FFBDF81630BDF831
:103D10001420BDF8121017E0001400402401002008
:103D200040420F005C0000200004004000080040FA
:103D3000000C00400024F449001002400000014043
:103D40006C000020D0060020BDF81000FFF722FF15
:103D500000BFA4E710B5002406E0284901EB841059
:103D600001F036F8601CC4B2042CF6DBFFF710FE3D
:103D700071B601202249087061B60121214804F082
:103D8000D5FD10BD10B500211E4804F0CFFD71B661
:103D900000201B49087061B600231A4619461846D0
:103DA000FFF7F8FE01231A4619461846FFF7D5FE1D
:103DB00000231A4619461846FFF7AEFEFFF787FEA6
:103DC00010BD7FB5054671B6002407E00B4800EB37
:103DD0008410C06B4DF82400601CC4B2042CF5DBC9
:103DE00061B6002407E05DF82400FFF735FB45F8D5
:103DF0002400601CC4B2042CF5DB7FBDD00600207B
:103E00006C0000200000014010B5044664B9F24A7D
:103E10007521D020FEF7C5FCEF480078682801D155
:103E2000012010BD0020FCE7012C0CD17520FEF70D
:103E30003FFAE949087008460078682801D1012056
:103E4000EFE70020EDE7E4480078EAE710B5012449
:103E50000020FFF7D9FF08B9002010BD00226B2118
:103E6000D020FEF7D3FC044001221921D020FEF718
:103E7000CDFC044004221A21D020FEF7C7FC0440E8
:103E800008221B21D020FEF7C1FC044008221C217F
:103E9000D020FEF7BBFC04402046DEE710B54FF40F
:103EA0008041CE4803F004FC08B9012010BD002079
:103EB000FCE770B504462046FEF7FAF90546611C9A
:103EC000C8B2FEF7F5F9064606EB052070BD70B5E1
:103ED00000240EE04720FFF7ECFF00B2C04921F8B4
:103EE0001400002500E06D1CBE488542FBDB601C11
:103EF000C4B20A2CEEDB002409E0B94830F9140002
:103F0000B94909680844B8490860601CC4B20A2C61
:103F1000F3DBB54800680A2190FBF1F0B249086074
:103F200070BD70B52DED048B04460D464720FFF79C
:103F3000C0FF00B26081B4F90A10AB4A1268881A57
:103F40000CF005FD41EC190B9FEDA80B53EC102B69
:103F50000CF048FB41EC180B0CF05EFA6861BDEC0C
:103F6000048B70BD0FB42DED020B10B52DED0A8B37
:103F70009DED100AB5EEC00AF1EE10FA35D09DEDB8
:103F8000100A10EE101A08460CF072FF41EC1B0BE1
:103F90009DED0F0A10EE101A08460CF069FF41EC77
:103FA0001C0BB0EE4B1AF0EE6B1AB0EE4C0AF0EEB2
:103FB0006C0A0BF0A1FBB0EE40AAF0EE60AA9FEDF8
:103FC0008D0B53EC102B51EC1A0B0CF027FD41EC30
:103FD000190B9FED8A0B53EC102B0CF003FB41ECFB
:103FE000180B0CF019FA87490860874890ED030A0E
:103FF000DDED110A9FED851A00EE810A8448D0EDAF
:10400000010A20EE200AD0ED000A7E4890ED001A49
:1040100000EE810A7C4880ED030A9DED100AB5EEA2
:10402000C00AF1EE10FA37D09DED100A10EE101A0A
:1040300008460CF01DFF41EC1B0B9DED0E0AB1EE86
:10404000400A10EE101A08460CF012FF41EC1C0B4F
:10405000B0EE4B1AF0EE6B1AB0EE4C0AF0EE6C0AB2
:104060000BF04AFBB0EE40AAF0EE60AA9FED610BA8
:1040700053EC102B51EC1A0B0CF0D0FC41EC190B4B
:104080009FED5E0B53EC102B0CF0ACFA41EC180BCF
:104090000CF0C2F95F4908605B4890ED040ADDED61
:1040A000120A9FED5A1A00EE810A5948D0ED010A12
:1040B00020EE200AD0ED000A564890ED001A00EEDE
:1040C000810A514880ED040A9DED0E0AB5EEC00A42
:1040D000F1EE10FA35D09DED0E0A10EE101A0846DA
:1040E0000CF0C6FE41EC1B0B9DED0F0A10EE101AF2
:1040F00008460CF0BDFE41EC1C0BB0EE4B1AF0EE86
:104100006B1AB0EE4C0AF0EE6C0A0BF0F5FAB0EE5A
:1041100040AAF0EE60AA9FED370B53EC102B51EC48
:104120001A0B0CF07BFC41EC190B9FED340B53EC9C
:10413000102B0CF057FA41EC180B0CF06DF93649C6
:1041400008609DED130AF7EE000AB4EEE00AF1EE06
:1041500010FA08DC9DED130AFFEE000AB4EEE00A47
:10416000F1EE10FA0ED2284890ED050ADDED130AA3
:104170009FED261A00EE810AF7EE000A20EE200AD3
:1041800080ED050A204890ED050ADFED240AB4EE23
:10419000E00AF1EE10FA08DD90ED050ADFED200AE5
:1041A00030EE600A80ED050A11E0174890ED050A2F
:1041B000DFED1C0AB4EEE00AF1EE10FA07D290ED42
:1041C000050ADFED170A30EE200A80ED050ABDEC86
:1041D0000A8B10BC5DF81CFB880000200008024020
:1041E00068050020400D030084000020FCA9F1D2E6
:1041F0004D62504000000000008066406E861BF05B
:10420000F92109407C000020500500200AD7A33C7A
:10421000700000208000002078000020000034435F
:104220000000B443000034C31CB556A103C9CDE956
:1042300000014FF0FF3055490860042054490880C0
:10424000702000F041F93F21002000F0D2F8322028
:1042500001F044FE1921112000F0CBF800210120CB
:1042600000F0C7F80121022000F0C3F8032108463E
:1042700000F0BFF80021042000F0BBF84548807929
:1042800000F07F01052000F0B4F82621062000F0A0
:10429000B0F805226946002000F0D8F9002407E0B4
:1042A0001DF804001130C0B20DF80400601CC4B247
:1042B000052CF5DB0521684600F0B9F91CBD01208D
:1042C00032490860704731480078704700202F4914
:1042D0000860704710B52D480068012800D110BD56
:1042E00004202B490880012000F00DFA00F0BAF8F4
:1042F00000F0ACF8702000F0E7F804202449891E93
:10430000088001202149086000BFE8E770B5044635
:10431000002121611E480A38006800F0010008B140
:10432000002070BD04F1140000F0FEF80546202DB9
:1043300007DDD4F81401401CC4F814014FF0FF301D
:10434000EFE725612846ECE710B504460420104944
:104350000880002000F0D7F900F078F8217C04F103
:10436000140000F028F904200949891E088014204F
:1043700001F09FFD042006490880FFF7A7FF206990
:1043800010BD000000984571100000008C00002056
:104390001A0C0240C806002070B504460220E3490A
:1043A00008802046FFF71CF9FF20FFF719F90546A2
:1043B0000220DE49891E0880284670BD2DE9F041A3
:1043C00004460E4617460220D84908802046FFF7CB
:1043D00007F9002505E0FF20FFF702F97855681C72
:1043E000C5B2B542F7DB0220D049891E0880BDE87E
:1043F000F08170B504460D460220CC49088044F097
:104400002000FFF7EDF82846FFF7EAF80220C74939
:10441000891E088070BD2DE9F04105460E461746FD
:104420000220C249088045F02000FFF7D9F8002497
:1044300004E0305DFFF7D4F8601CC4B2BC42F8DB86
:104440000220BA49891E0880BDE8F08110B502201B
:10445000B6490880E120FFF7C3F80220B349891E5E
:10446000088010BD10B50220B0490880E220FFF797
:10447000B7F80220AD49891E088010BD10B5022092
:10448000AA490880E320FFF7ABF80220A749891E5C
:10449000088010BD10B50220A4490880FF20FFF756
:1044A0009FF80220A149891E088010BD10B5022086
:1044B0009E4908800720FFF793F8044602209B4995
:1044C000891E0880204610BD70B50446002504F002
:1044D0007004FFF7EBFF054602209449088027206F
:1044E000FFF77EF844EA0500FFF77AF802208F49CB
:1044F000891E0880FFF7DAFF70BD10B5FFF7D6FF01
:1045000000F0700010BD10B50220884908806020BE
:10451000FFF766F8FF20FFF763F80446022083499F
:10452000891E0880204610BD70B50646FFF7EBFFD8
:104530000446202C03DDFFF795FF212070BD0CB948
:104540000020FBE70220794908806120FFF748F846
:10455000002505E0FF20FFF743F87055681CC5B241
:10456000A542F7DB02207149891E0880FFF77AFF18
:104570002046E3E72DE9F04105460E46202E01DDF9
:10458000202000E030460746FFF760FF0220674921
:104590000880A020FFF724F8002404E0285DFFF73E
:1045A0001FF8601CC4B2BC42F8DB02205F49891EC0
:1045B0000880BDE8F08170B505460C46202C00DC73
:1045C00004B970BD022059490880B020FFF708F8EF
:1045D00003E015F8010BFFF703F82000A4F1010137
:1045E000CCB2F6D102205149891E088000BFE8E70D
:1045F0002DE9F04105460E46202E01DD202000E089
:1046000030460746022049490880A820FEF7E8FF07
:10461000002404E0285DFEF7E3FF601CC4B2BC4246
:10462000F8DB02204149891E0880BDE8F08170B5A1
:1046300004460D46052D01DD052000E0284606460E
:10464000324621461020FFF7E6FE70BD2DE9F0410D
:1046500004460E461546052D01DD052000E02846DE
:104660000746052C01DD052000E02046804608F1C4
:104670000A01C8B23A463146FFF7CDFEBDE8F081E7
:1046800070B505460620FFF787FE044624F028048F
:1046900015B944F0200408E0012D02D124F02804CB
:1046A00003E0022D01D144F0080421460620FFF763
:1046B000A0FE70BD70B505460620FFF76DFE20F028
:1046C000070435B1012D06D0022D07D0032D0BD1E3
:1046D00007E000BF09E044F0020406E044F00404EF
:1046E00003E044F0060400E000BF00BF21460620BE
:1046F000FFF77FFE70BD10B5044604F07F01052072
:10470000FFF777FE10BD70B504460020FFF744FEAA
:10471000054614B925F0010503E0012C01D145F04F
:10472000010529460020FFF764FE70BD1A0C024007
:1047300070B50446FF20207001206070FA480078B0
:1047400000F00F00A070FEF708FF0546FEF7EEFE32
:1047500006462846FEF78EFB71B6F34880F82D51C9
:1047600080F82C6190F82D01FF2803D1FE20EE493E
:1047700081F82D01EC4890F82D01E070EA4890F89E
:104780002C01FF2803D1FE20E74981F82C01E648DF
:1047900090F82C012071E44890F82D0100EE100AE9
:1047A000B8EE400ADFEDE10A20EE200ADE4880ED97
:1047B0004D0A90F82C0100EE100AB8EE400ADFED29
:1047C000DC0A20EE200AD84880ED4C0A61B6D948B0
:1047D00000786071D7484078A071D6488078E07141
:1047E000D448C0782072D34800796072D1484079AB
:1047F000A072D0488079E072CE48C0792073CD484D
:10480000007A6073CB48407AA073CA48807AE0731C
:10481000C848C07A2074C748007B6074C548407B94
:10482000A074C448807BE074C248C07B2075C14836
:10483000007C6075BF48407CA075BF480078F021BF
:1048400001EA0010C01DE0750120BC49087000207D
:1048500070BD10B50446FEF768FDB9490860B94857
:104860000078022805D10120B74908600020B54929
:104870000870B4480078012804D1B44908600020C9
:10488000B0490870AE48006860BBAF4800680128B6
:104890000ED1AF4908600020AB490860AD490860FF
:1048A000AD480068401CAC4908600120A34908706D
:1048B000A648006801280ED1A84908600020A34935
:1048C0000860A4490860A4480068401CA249086028
:1048D00001209A49087000F0F5FC38B90220A0497F
:1048E000088003E002209E49891E088099480068DC
:1048F000052823DB96480068012802D1002094494E
:10490000086096480068012802D100209349086099
:10491000944800688A49096888420BD001208D4973
:1049200008608D480068401C8B490860012083495D
:1049300008700BE000208149087007E08548006896
:10494000401C8449086001207C4908708248006846
:104950007F2802D1002080490860FF2020700220BB
:1049600060707148007800F00F00A0707448007803
:1049700080017749097800EB41107849097800EB0C
:104980000110E070744800782071724800786071FE
:1049900069480078F02101EA0010C01DE075684800
:1049A000006870490860002010BD08B502465078C4
:1049B00000909DF8000000F0F00000909DF80000CD
:1049C000001100909DF8000010B1072804D101E00B
:1049D000002008BD0720FCE74FF0FF30F9E72DE984
:1049E000F05F04460D460027002604B11DB94FF0C4
:1049F000FF30BDE8F09F687D4F490968B1EB101F9B
:104A000001D1E87D10B14FF0FF30F2E74648006871
:104A100008280CDD687800F00F004349097809394F
:104A200001228A40104068B94FF0FF30E1E7A878D2
:104A30003D490978491E01228A40104010B94FF0C3
:104A4000FF30D6E74FF4FA7001F068FA464A03C225
:104A50004FF0000834480068092812DA00260AE0FE
:104A6000A9780120B040014019B108F1010000F01F
:104A7000FF08701CC6B22C480068401EB042EFDC34
:104A800022E000260AE0A8780121B140084018B1D0
:104A900008F1010000F0FF08701CC6B2082EF2DB1E
:104AA00000260CE0687800F00F000121B1400840BA
:104AB00018B108F1010000F0FF08701CC6B21A48D6
:104AC00000680938B042EDDC08EB4800032101EB37
:104AD0004000C6B2144800682060AF5DC7F3011003
:104AE000606007F0800010B16068404200E06068DC
:104AF0006060B8F1000F06D0B8F1010F05D0B8F131
:104B0000020F06D103E02F7A04E0AF7B02E02F7D95
:104B100000E000BF00BFA85DC0F3801040B37F2F4E
:104B200024DB9620E06029E0C80600206666CA3DC6
:104B3000EB6A243F0405002048000020900000207C
:104B4000A000002000000020A4000020A8000020F9
:104B5000AC000020B8000020B4000020B00000200D
:104B60001A0802409C000020E8000020E76005E0F1
:104B70007F2F02DB9620A06000E0A760B01C2F5CB6
:104B800038092061701C15F8009009F01F004FF6DD
:104B9000FF7101EA0019206948442061701C2F5CF4
:104BA00007F0200010B12069404200E02069206138
:104BB000F01C2F5CB8086061B01C15F800A00AF06A
:104BC00007004FF6FF7101EA801A60695044606186
:104BD000B01C2F5C07F0080010B16069404200E093
:104BE00060696061301D2F5CA761F01C15F800B092
:104BF0000BF001004FF6FF7101EA002BA069584449
:104C0000A061F01C2F5C07F0020010B1A0694042C7
:104C100000E0A069A0610020EBE600000146002250
:104C2000002000BF04E08B5C0344D8B2531CDAB20E
:104C3000202AF8D391F820300344D8B2704710B539
:104C40000446222120460AF0B0FA5A2020700020A3
:104C50006070A070E07020716071A071E0712072CE
:104C60006072A072E0722073032060731220A07340
:104C70009620E073002020745A2084F820002046FB
:104C8000FFF7CCFF84F8210010BD10B504462221A7
:104C900020460AF08AFA5A20207000206070A07026
:104CA000E07020716071A071E07120726072A0727A
:104CB000E0722073032060731220A0739620E073CB
:104CC000012020745A2084F820002046FFF7A6FF18
:104CD00084F8210010BD70B50546222128460AF04F
:104CE00064FA222200212846FDF717FE2846FFF726
:104CF00095FF064628785A2823D195F820005A288F
:104D000003D195F82100B04223D01B48007820F051
:104D1000080008301849087002201849088000244B
:104D200000E0641C16488442FBDB02201349891C06
:104D30000880002400E0641C11488442FBDB002052
:104D400070BD2846FFF77BFF222200212846FDF791
:104D500073FD0120F4E700B589B0242168460AF00C
:104D600046FA6846FFF791FF222200216846FDF7C8
:104D700063FD002009B000BD380000201808024083
:104D800080969800014601EE901AB8EEE12ADFED18
:104D9000B42AC2EE221ADFEDB32A80EE222ADFED1A
:104DA000B22A42EE221AB0EE611AB048006846F20A
:104DB000A812B0FBF2F001EE900AF8EE611A61EE73
:104DC000811A81EEA02AFDEEC21A11EE900A7047F8
:104DD0009FEDA70A80ED080A9FEDA50A80ED090A5C
:104DE0009FEDA30A80ED0A0A0021C162704700B559
:104DF0000246F0EE401AC2ED001AC2ED010A82ED41
:104E0000021A31EEA00A30EE010A82ED030AB0EE7A
:104E1000002AB0EE610A02EE010A82ED040A82ED78
:104E2000051A0020D0629148006846F2A811B0FB34
:104E3000F1F090619FED8F0A82ED070A1046FFF7AF
:104E4000C7FF00BDC16270478161704780ED070AEE
:104E500070472DE9F0412DED028B04460E46B0EE71
:104E6000408A0027002594ED090A84ED0A0A94ED92
:104E7000080A84ED090AE06A801B00EE100AB8EE09
:104E8000C00A84ED080A94ED030AD4ED080A20EE66
:104E9000200AD4ED040A94ED091A00EEC10AD4EDFB
:104EA000050A94ED0A1A00EE810ABDEEC00A10EE62
:104EB000108A206B40442063206BA169884202DD88
:104EC000A069206307E0206BA1694942884202DAA9
:104ED000A069404220633046FEF7BEFA0746002F25
:104EE00000DA7F42D4ED070AB0EE600AF0EE480A1D
:104EF0003846FFF747FF0546206BA84201DD2563D2
:104F000005E0206B6942884201DA68422063206B29
:104F1000BDEC028BBDE8F08180ED000AC0ED010A16
:104F200080ED021A70EE201A71EE811AC0ED031A9C
:104F3000B0EE002AF0EE401A42EE011AC0ED041A5B
:104F400080ED051A96218161DFED491AC0ED071A3F
:104F5000DFED471AC0ED081ADFED451AC0ED091A5A
:104F6000DFED431AC0ED0A1ADFED411AC0ED0B1A4E
:104F7000DFED3F1AC0ED0C1A70470146D1ED080A6B
:104F8000C1ED090AD1ED070AC1ED080AD1ED0A0AFF
:104F900091ED0B1A70EEC10AC1ED070AD1ED030ABB
:104FA00091ED071A60EE810A91ED041AD1ED081A0D
:104FB00041EE610A91ED051AD1ED091A41EE210A7F
:104FC000B0EE600AD1ED0C0A70EE800AC1ED0C0A59
:104FD00091ED0C1AD1ED060AF8EEE00AB4EEE01AF3
:104FE000F1EE10FA06DDD1ED060AF8EEE00AC1EDA9
:104FF0000C0A14E091ED0C1A8869404200EE900A08
:10500000F8EEE00AB4EEE01AF1EE10FA07D2886981
:10501000404200EE900AF8EEE00AC1ED0C0AD1ED34
:105020000C0AFDEEE00A10EE900A70470146086B8C
:10503000704780ED000AC0ED010A80ED021A70EEA3
:10504000201A71EE811AC0ED031AB0EE002AF0EEBC
:10505000401A42EE011AC0ED041A80ED051A70479D
:105060000000BB430000CC419A99993F24010020E5
:105070000000000000002F4310B52DED068B90B00E
:10508000FE4AD2E901311068D268CDE901310392BC
:10509000009007A8FFF71FFE9DF82900F849086057
:1050A0009DF82A00F74908609DF82C00F649087021
:1050B0009DF82B00962804DC9DF82B00F34908602E
:1050C00002E09620F149086006AA04A905A8FEF7A7
:1050D000A0FA42F2A001EE480AF089F89DF810000B
:1050E000EB4908609DF8140088719DF8180000F0E5
:1050F000070008719DF8180000F0070006909DF861
:105100001800022802D10120487105E09DF818001E
:1051100010B90020DE49487100240DE0DC49083157
:1051200001EB84109FEDDB1ADFEDDB0A9FEDDB0A5C
:10513000FFF75DFE601CC4B2042CEFDB9FEDD51AB7
:10514000DFEDD70A9FEDD70AD748FFF7E5FE00202D
:10515000CF49A1F80801CA4890ED000AB8EEC00A8C
:10516000C848D0ED000AF8EEE00A9FEDD01A00EE34
:10517000810ADFEDCF0A60EE200AB0EE001A80EE61
:10518000810A9FEDCC1AC0EE010A9FEDCB0A80EE9A
:10519000801A084680ED431A00243FE0684600EB81
:1051A000840090ED000A9FEDC51AC0EE010A9FED44
:1051B000C10A20EE808A18EE100A0BF059FE41EC6D
:1051C0001A0BB0EE4A0AF0EE6A0A0AF07DFCB0EE65
:1051D000409AF0EE609A51EC190B0BF01DF9014664
:1051E000B74840F8241018EE100A0BF041FE41ECCD
:1051F0001A0BB0EE4A0AF0EE6A0A0AF001FCB0EEB1
:10520000409AF0EE609A51EC190B0BF005F901464B
:10521000AB48103040F82410601CC4B2022CBDDB37
:1052200002243FE0684600EB840090ED000ADFEDC9
:10523000A30A80EE201A9FED9F0A21EE000AB0EE2D
:10524000408A18EE100A0BF013FE41EC1A0BB0EE78
:105250004A0AF0EE6A0A0AF037FCB0EE409AF0EE25
:10526000609A51EC190B0BF0D7F8954941F82400DE
:1052700018EE100A0BF0FCFD41EC1A0BB0EE4A0AD6
:10528000F0EE6A0A0AF0BCFBB0EE409AF0EE609ACB
:1052900051EC190B0BF0C0F88949103141F824008A
:1052A000601CC4B2042CBDDB4FF404718548A0F827
:1052B0009810FBF758F8FEF7C3F8002010B0BDECCB
:1052C000068B10BD70B5FEF731F9044671B600EEDD
:1052D000104AB8EE400ADFED7C0A20EE200A6C4846
:1052E00080ED4C0A80F82C4161B6FEF71CFAC5B27D
:1052F000002D57D075480078052805DA73480078E6
:10530000401C7249087057E00520704908707048C9
:10531000006814280BD102206E49088001206E49D4
:1053200008606B480068401E6949086038E06848BA
:105330000068002810DD6648006814280CDA66480A
:105340000068012808D1022062490880604800688E
:10535000401E5F49086023E05D48006860B9022094
:105360005C49891C088000205B4908605848006837
:10537000401C5749086013E05548006800280FDDBD
:105380005348006814280BDA5348006840B90220DB
:105390005049891C08804E480068401C4C490860F0
:1053A000284670BD0020494908704C48007818B95B
:1053B00002204849891C08800020F2E710B54848BF
:1053C0000078401C4649087008460078022804DB33
:1053D000FEF760FC0020424908704248007820B186
:1053E00041480078401C4049087010BD4FF001084A
:1053F000B8F1000F19D0002525480079042802DCF7
:1054000023480079451C0DE0022032490880C8205D
:1054100000F038FD02202F49891C0880C82000F0C8
:1054200031FD6D1E002DEFD100BF4FF47A7000F0FA
:1054300075FD2E4A03C24FF47A7000F06FFD2C4ABE
:1054400003C24FF4FA7000F069FD2A4A03C201203A
:1054500000F064FD284A03C242F2107000F05EFDC5
:10546000264A03C20F2000F059FD254A03C2192025
:1054700000F054FD234A03C246E00000B0120108C8
:10548000C0000020C400002047000020C800002009
:10549000C8060020000000005C8F423D48E13A3E13
:1054A0001F856B3DCDCC4C3E940600200AD7233C93
:1054B00000008045DB0F49404260E53C000034437A
:1054C00000080020C8260020EB6A243FD6000020F8
:1054D000140100201808024010010020D400002010
:1054E000D7000020CE000020CF000020D8000020F0
:1054F000E0000020E800002008010020F00000206B
:10550000F800002000010020FEF724FC4BE3FB49DB
:1055100003C900F00BFD002856D04FF47A7000F05C
:10552000FDFCF64A03C2FFF7CDFE022843D1F44842
:105530000068401CF2490860084600680A2843DBFE
:105540000020FAF752FF002211461046FAF7C0FF7A
:1055500000210846FBF70AF900210846FBF725F968
:105560000220E849088025E00220E649891E0880DB
:105570001F23002211466420FDF7C1FD1F230022D6
:1055800011466420FDF7BBFD642000F07BFC022087
:10559000DC49088000231A4619461846FDF7AFFD7E
:1055A00000231A4619461846FDF7A9FD4FF47A70F4
:1055B00000F068FCD8E7D2480068002804DDD04835
:1055C0000068401ECE490860CF4903C900F0AEFC18
:1055D00028B14FF47A7000F0A1FCCB4A03C2CB484B
:1055E000007905287ED2DFE800F0165A0391FD000D
:1055F000C7480068401CC64908604FF48060C54930
:1056000008801F23642200210846FDF778FD012051
:10561000C149087000BFBE480068012803D10020BE
:10562000BB49086004E04FF48060BA49891C0880D7
:10563000FBF7EBFAB94903C900F078FC00B301208D
:10564000B74908700020FAF7D0FE00221146104634
:10565000FAF73EFF00210846FBF788F800210846CC
:10566000FBF7A3F8FEF736FE4FF4FA7000F056FC95
:10567000AA4A03C242F2107000F050FCA94A03C2C9
:10568000A748007850B1A8480078032806DBFEF749
:1056900021FE0020A4490870A149087072E24FF46D
:1056A00080609C4908801F23002264211046FDF77A
:1056B00026FD9E499E4804F0C4FA9E48C07C0128FD
:1056C00005D100209B49C8740846FBF7ECFA9A49BB
:1056D00003C900F02BFCC0B19848007801280FD115
:1056E000974900E04DE29748FEF71BFC944890ED87
:1056F000050AB1EE400A944880ED0B0AFFF73DFC25
:105700000F2000F00BFC8C4A03C23BE24FF4806098
:10571000804908801F23642211461046FDF7EFFCE4
:105720001F23642211461046FDF7E9FCFDF7FDFD3D
:1057300001287CD185480068401C844908604FF4EA
:105740008070834908834FF4FA6000F09BFB4FF4AC
:1057500080707F494883FAF7ABFD0120FAF745FED8
:105760004FF4FA6000F08EFB0020FAF73EFE4FF493
:10577000FA7000F087FB0A210020FAF7B7FD40F627
:10578000C41000F07FFB0A210120FAF7AFFD4FF4AF
:10579000FA6000F077FB6D480068012869D1642247
:1057A00000210846FAF7FFFE4FF4FA6000F06AFBAA
:1057B000002211461046FAF7F6FE6FF06302002150
:1057C0000846FAF7F0FE4FF4FA6000F05BFB0022A7
:1057D00011461046FAF7E7FE4FF47A7000F052FBDC
:1057E000002200E046E011466420FAF7DCFE4FF4A8
:1057F000FA6000F047FB002211461046FAF7D3FE8C
:10580000002211466FF06300FAF7CDFE4FF4FA6004
:1058100000F038FB002211461046FAF7C4FE4FF4A0
:105820007A7000F02FFB00226421104600E020E097
:10583000FAF7B9FE4FF4FA6000F024FB002211469B
:105840001046FAF7B0FE00226FF063011046FAF737
:10585000AAFE4FF4FA6000F015FB00221146104634
:10586000FAF7A1FE4FF47A7000F00CFB00203749E4
:10587000086087E14FF48060264908801F230022DA
:1058800064210846FDF73BFC32480078012834D1FA
:10589000002400263048007809287BD2DFE800F099
:1058A0007A05648D8EBAD3ECFE00002405E02A4907
:1058B000601C085C29490855641C0A2CF7DB274842
:1058C000FCF75AF80646012E05D101212448254A45
:1058D0001268815404E000202149224A1268885449
:1058E00020480068401C1F49086008460068B0F561
:1058F000006F01D1002008603DE141E1D8000020A7
:10590000D00000201A080240E0000020C806002055
:1059100018010020180C0240D5000020E8000020EB
:10592000CE000020F0000020CF000020A434002092
:10593000142A0020CE370020F80000201A00002092
:10594000380500202C050020940600201C010020B2
:10595000000002405801002094290020E0040020AB
:10596000F6430020EC020020002405E09949601C69
:10597000085C99490855641C062CF7DB9648FCF72F
:10598000A1F80646012E06D101219448944A1268D6
:10599000815405E0EEE000209049914A1268885455
:1059A0008F480068401C8E49086008460068B0F5C2
:1059B000006F01D100200860DDE0DCE08948B0F82C
:1059C0009800000A8549864A12688854844800680D
:1059D000401C83490860834890F898007F49804ABA
:1059E000126888547E480068401C7D4908607E48E3
:1059F00000787A497A4A1268885479480068401CCD
:105A00007749086008460068B0F5006F01D10020B2
:105A10000860B0E000240BE07448005D6F49704AF4
:105A2000126888546E480068401C6D490860641C08
:105A30000C2CF1DB6A480068B0F5006F02D1002041
:105A40006749086097E06348407846280BD1FDF726
:105A50003DFA01206149624A126888546048006832
:105A6000401C5F4908605E480068B0F5006F02D1D5
:105A700000205B49086000BF002000215C4A92EDD5
:105A80004C0ADFED5C0A20EE200ABDEEC00A10EEE3
:105A9000102A10B2564A92ED4D0A00E037E0DFEDD1
:105AA000550A20EE200ABDEEC00A10EE102A11B2EF
:105AB0004A4B4B4F3F68D855494A1268521C484BD5
:105AC0001A60C0F30722454B454F3F68DA55444AF8
:105AD0001268521C424B1A60404A1F463F68D1551B
