:020000040800F2
:1000000050520020CD6B00083D5D00083F5D0008A8
:10001000435D0008475D00084B5D000800000000DC
:100020000000000000000000000000004F5D00081C
:10003000515D000800000000535D0008EF5C0008FF
:10004000E76B0008E76B0008E76B0008E76B000848
:10005000E76B0008E76B0008EB080008E76B000897
:10006000E76B0008E76B0008E76B0008E76B000828
:10007000E76B0008E76B0008E76B0008E76B000818
:10008000E76B0008E76B0008E76B0008E76B000808
:10009000E76B0008E76B0008E76B0008E76B0008F8
:1000A000E76B0008E76B0008E76B0008E76B0008E8
:1000B000E76B0008E76B0008E76B0008E76B0008D8
:1000C000E76B0008E76B0008E76B0008E76B0008C8
:1000D000E76B0008E76B0008E76B00088D6200081B
:1000E000E76B0008E76B0008E76B0008FD64000899
:1000F000E76B0008E76B0008E76B0008E76B000898
:10010000E76B0008E76B0008E76B0008E76B000887
:10011000E76B0008E76B0008E76B0008E76B000877
:10012000E76B0008E76B0008E76B0008E76B000867
:10013000E76B0008E76B0008E76B0008E76B000857
:10014000E76B0008E76B0008E76B0008555D0008E7
:10015000E76B0008E76B0008E76B0008E76B000837
:10016000E76B0008E76B0008E76B0008E76B000827
:10017000E76B0008E76B0008E76B0008E76B000817
:10018000E76B0008E76B000800F002F800F06DF87C
:100190000AA090E8000C82448344AAF10107DA45E2
:1001A00001D100F062F8AFF2090EBAE80F0013F0C7
:1001B000010F18BFFB1A43F001031847841C01000C
:1001C000A41C01000A444FF0000C10F8013B13F08E
:1001D000070408BF10F8014B1D1108BF10F8015BA0
:1001E000641E05D010F8016B641E01F8016BF9D193
:1001F00013F0080F1EBF10F8014BAD1C0C1B09D1EA
:100200006D1E58BF01F801CBFAD505E014F8016B5B
:1002100001F8016B6D1EF9D59142D6D370470000ED
:100220000023002400250026103A28BF78C1FBD8FF
:10023000520728BF30C148BF0B60704778290EF0C5
:10024000D98673290FF0F181002070471FB511F096
:100250004AFA0FF033FC04000020002110F084FC67
:10026000401C60601FBD10B510BD0FF0F3FB1146C0
:10027000FFF7ECFF02F068FF0FF01AFC03B4FFF782
:10028000F2FF03BC0FF05EFC002115E0FE4800EB1E
:10029000C1004068002809DDFB4800EBC100406850
:1002A000401EF94A02EBC102506004E00020F64A09
:1002B00002EBC1025060491C0229E7DB00207047B5
:1002C000002105E00020F04A02EBC1025060491C09
:1002D0000229F7DB0020704710B502F09AFF02F008
:1002E000A3FF002406E00020E74901EBC4014860B9
:1002F000601CC4B2022CF6DB002010BD70B50446B1
:100300000D46002D01DC002070BDDF4800EBC4006D
:10031000406810B14FF0FF30F6E70020DB49C1F82C
:100320001C010846D0F81C0118BB15B3D64840F88C
:1003300034504FF4FA60D44901EBC401486014B161
:10034000012C0ED106E0284602F079FF0220D049A8
:1003500008700DE0284602F08EFF0120CC4908709D
:1003600006E002F061FF02F054FF4FF0FF30CBE7F0
:1003700000BF0020C8E710B5FFF7AEFF002010BD9A
:1003800010B50024C348007800B92AE0BF48D0F86F
:10039000100100280BDDBD48D0F810110020FFF738
:1003A000ADFF0020B949C1F81001012403E000208D
:1003B000B649C1F81001B548D0F8140100280BDD8A
:1003C0002CB9B248D0F814110120FFF797FF002094
:1003D000AE49C1F8140103E00020AC49C1F8140192
:1003E00000BF0020AB490870062001218140AA4AC5
:1003F000430942F8231000BF10BD2DE9F0412DED57
:10040000048B05460026002D02DA6C42012601E02D
:100410002C46002624B900209C49A1F8080154E08C
:10042000012C18D19D48006846F2A811B0FBF1F7E5
:10043000384610F06DFE41EC190B9FED990B53EC13
:10044000102B10F0B5FE41EC180B10F01DFE8F497B
:10045000A1F8080139E0022C18D19048006846F252
:10046000A811B0FBF1F7384610F052FE41EC190B21
:100470009FED8D0B53EC102B10F09AFE41EC180BF6
:1004800010F002FE8149A1F808011EE0032C18D1EA
:100490008248006846F2A811B0FBF1F7384610F028
:1004A00037FE41EC190B9FED820B53EC102B10F033
:1004B0007FFE41EC180B10F0E7FD7449A1F808012C
:1004C00003E000207149A1F808017049B1F8080162
:1004D000314602F06AFF0020BDEC048BBDE8F081DC
:1004E0002DE9F0412DED048B05460E4617460024FC
:1004F00000EE105AB8EEC00ADFED6F0A80EE201A47
:10050000B0EE418A00EE106AB8EEC00ADFED6A0A6A
:1005100080EE201AF0EE418A00EE107AB8EEC00AA2
:10052000DFED660A20EE200ADFED650A20EE200AE4
:10053000B0EE409A00BF26E0624800EB840090EDE8
:10054000000A20EE080A5F48103000EB8400D0ED6E
:10055000000A00EEA80A30EE090A4C48083000EB09
:10056000841080ED0D0A4948083000EB8410D0ED6E
:100570000D0AB0EE600A02F0D0FF4449083101EBE9
:1005800084118863641C042CD6DB71B600240AE055
:100590003E48083000EB8410816B3C48083000EB8B
:1005A0008410C162641C042CF2DB61B60020BDEC37
:1005B000048BBDE8F08170B52DED0A8B82B0044646
:1005C0000D4616469FED400AB0EE409A9FED3E0A5A
:1005D000F0EE408A9FED3C0AB0EE408A9FED3A0A69
:1005E000F0EE409A9FED380AB0EE40AA00EE104AB5
:1005F000B8EEC00A3548D0ED000A30EE600AB0EE21
:10060000409A00EE105AB8EEC00A3148D0ED000A08
:1006100030EE600AF0EE408A29EE090A08EEA80AD8
:10062000B0EE408AB0EE480AB5EEC00AF1EE10FA1C
:1006300004DDF1EEC00ACDED010A04E0DFED220A8F
:10064000CDED010A00BF9DED010ADFED220A30EE7B
:10065000200AB0EE408A89EE080AF0EE409A88EE51
:10066000880AB0EE40AAB3EE040AB4EEC08AF1EEF6
:1006700010FA6BDDB3EE040AB0EE408A28EE290AC8
:10068000B0EE409A28E0000070030020C006002071
:10069000000000200200002080E100E01C0100209A
:1006A000333333333333D33F9A9999999999D93F57
:1006B000000000000000E03F0000C842CDCCCC3C70
:1006C0009EEFA73DF8070020000000000400002076
:1006D000080000206F12833A28EE0A0AF0EE408AE2
:1006E000884890ED000A30EE090A10EE101A08460C
:1006F00010F088FF41EC1C0BB0EE4C0AF0EE6C0AD7
:100700000FF0A6FCB0EE40BAF0EE60BA51EC1B0B55
:1007100010F08AFC04467C4890ED000A30EE280A6E
:1007200010EE101A084610F06DFF41EC1C0BB0EEF5
:100730004C0AF0EE6C0A0FF08BFCB0EE40BAF0EE13
:1007400060BA51EC1B0B10F06FFC0546324629468F
:100750002046FFF7C5FE00EE104AB8EEC00A694811
:1007600080ED000A00EE105AB8EEC00A664880ED2F
:10077000000A002002B0BDEC0A8B70BD70B50446C3
:100780000D466248C0F810418CB1012006F0E0FC33
:10079000062000F0AEF802F01AFE012804D121462E
:1007A0000020FFF7ABFD06E002F01AFE03E015B9EA
:1007B0000CB902F023FE002070BD70B505460C4652
:1007C0005248C0F8144184B1012006F0C1FC062053
:1007D00000F08FF802F0FBFD012803D12146FFF75E
:1007E0008DFD06E002F0FCFD03E014B90DB902F046
:1007F00005FE002070BD10B5044645480068401C49
:1008000043490860084600680F2804DA4FF48070F6
:100810004049088303E04FF480703E4948833C48D8
:1008200000681E2802DD0020394908603748007939
:10083000A0B939480078012810D16068FFF7DDFDC4
:10084000D4E90201FFF79AFFD4E90201FFF7B5FFEF
:10085000D4E905122069FFF7AEFE13E02B480079BA
:1008600002280FD16068FFF7C8FDD4E90201FFF745
:1008700085FFD4E90201FFF7A0FFD4E90512206942
:10088000FFF799FE002010BD10B50446234800680C
:10089000401C22490860084600680F2804DA4FF41B
:1008A00080701C49088303E04FF480701949488325
:1008B0001A4800681E2802DD002018490860134805
:1008C000007901280FD16068FFF797FDD4E9020194
:1008D000FFF754FFD4E90201FFF76FFFD4E90512D7
:1008E0002069FFF768FE002010BD10B5FFF748FD36
:1008F00010BD00F01F0201219140094A430942F84E
:10090000231070470400002008000020C0060020CB
:100910000C00002000000240940000201000002085
:1009200080E200E010B54FF48070FE49C8600021FD
:10093000FC480161FC48FB494860FC488860FC4871
:1009400008600020C1F8140103F084FD03F0D8FD15
:1009500003F0CBFD002010BD70B51921F1480161F5
:10096000F448007800287DD1F348C078C0F3C00077
:1009700050B9F148C079C0F3C00028B9EE48C07A38
:10098000C0F3C00000286ED000250020EB4908709D
:10099000EB48006808280CDDE748407800F00F00BD
:1009A000E7490978093901228A40104060B96D1E73
:1009B0000AE0E1488078E2490978491E01228A402C
:1009C000104008B94FF0FF35681C002834D00025CE
:1009D000DB480068092810DA002408E0D64880784F
:1009E0000121A140084008B1681C05B2641CD4482C
:1009F0000068401EA042F1DC1EE0002408E0CE4862
:100A000081780120A040014009B1681C05B2641C36
:100A1000082CF4DB00240AE0C748407800F00F00FF
:100A20000121A140084008B1681C05B2641CC448FB
:100A300000680938A042EFDC681C002812D0A8002A
:100A4000C01CBD49085CC0F3C0000028F6D0BD48FA
:100A500003F084FFB9480078012884D1B9480178AF
:100A6000B04801E090E06CE00175B6484178AD48CF
:100A70004175B4488178AB488175B248C178A948BE
:100A8000C175B0480179A7480176AE484179A548BB
:100A90004176AC488179A3488176AA48C179A148BA
:100AA000C176A848017A9F480177A648417A9D48B7
:100AB0004177A448817A9B488177A248C17A9948B6
:100AC000C177A048017B974880F820109D48417B62
:100AD000944880F821109B48817B924880F822102E
:100AE0009848C17B8F4880F823109648017C8D4838
:100AF00080F824109348417C8A4880F8251091485A
:100B0000817C884880F826108E48C17C854880F812
:100B100027108C48017D834880F828108948417D42
:100B2000804880F829108748817D7E4880F82A1007
:100B30000021A0F82B1081688847012082490870A5
:100B400022E0804803F0A9FF7C48007801281BD1EF
:100B5000FF2174480175022141757A4881787148F6
:100B600081757848C1786F48C175764801796D48BC
:100B70000176744841796B48417613211A300EF0A2
:100B800074FC68488168884701206F49087000201C
:100B900070BD30B587B004460D466C48006858B942
:100BA0002946204604F01EF862490870084600787D
:100BB00010B9012065490860FFF7CEFE5D48007856
:100BC00010B95F48007918B15D480079022817D143
:100BD0001C2168460EF06BFC2A462146684604F04C
:100BE0001BF8002808DA5448C069401C5249C86103
:100BF0004FF0FF3007B030BD6846FFF7FCFD00BF87
:100C00000020F7E710B503F074FC002846D04C48EC
:100C1000407918BB43484168884700283EDD03F00F
:100C20006BFC404800F11401026943480EF0EBFBF5
:100C30003C48007C404948760846417EFFF7A9FFC2
:100C400043480078FE2803DD00204149087025E074
:100C50003F480078401C3E4908701FE03848407902
:100C600001281BD101F0D0FA012817D1394805F02D
:100C7000BEFA98B9192237492F480EF07FFB192088
:100C80002D4948760846417EFFF783FF0020324910
:100C90000870192005F0DEF9304A03C2002010BDAB
:100CA0002DE9F0472DED0C8B84B004460021029114
:100CB000039100200090019080468146824627786B
:100CC000657C032D01DA002505E0284605EBD0718F
:100CD0004910C91CCDB2A67C9FED218ADFED210A07
:100CE0009FED210AB0EE40BA08EE60BADFED1F8A30
:100CF000DFED1F0A9FED1C0AF0EE40BA48EEE0BAA5
:100D00009FED1CAADFED170A9FED170AB0EE40DA3F
:100D10000AEE60DADFED18AADFED150A9FED120A80
:100D20002CE00000740500203945000875450008D6
:100D30005544000818000020800300208C0000208B
:100D4000C0060020C0040020CE0000201C000020AF
:100D500019000020602900203C0100200001002033
:100D600092762CC00000204300000000ABAA2AC0ED
:100D70000000C04292762C40ABAA2A40F0EE40DA46
:100D80004AEEE0DA1FED059A5FED0A0A1FED0A0A46
:100D9000B0EE40CA09EE60CA5FED099A5FED0C0A39
:100DA0001FED0F0AF0EE40CA49EEE0CAE078A02835
:100DB00007DCE078602804DB0020A3494861824614
:100DC00001E04FF0010A2079A02807DC2079602893
:100DD00004DB00209C490861814601E04FF00109D5
:100DE0006079A02808DC6079602805DB002096493E
:100DF00088614FF0010801E04FF000082079A02839
:100E00000EDB207900EE100AF8EE400AB0EE4B0A35
:100E100008EE200ABDEEC00A8B4880ED040A10E0FF
:100E2000207960280DDC207900EE100AF8EE400AE7
:100E3000B0EE6B0A08EEA00ABDEEC00A824880ED53
:100E4000040AE078A0280EDBE07800EE100AF8EE45
:100E5000400AB0EE4D0A0AEE200ABDEEC00A7A48FA
:100E600080ED050A10E0E07860280DDCE07800EE07
:100E7000100AF8EE400AB0EE6D0A0AEEA00ABDEEC6
:100E8000C00A714880ED050A6079A0280EDB607900
:100E900000EE100AF8EE400AB0EE4C0A09EE200A05
:100EA000BDEEC00A684880ED060A10E0607960284F
:100EB0000DDC607900EE100AF8EE400AB0EE6C0A24
:100EC00009EEA00ABDEEC00A5F4880ED060A00BF29
:100ED00007F0010088B35D480068401C5B4908606A
:100EE0000846006801280DD105F0ACF8584A10609A
:100EF00051607F2D03DB96205349886001E0524802
:100F0000856064E005F09EF8CDE902015049DDE915
:100F100002200B684968D31A60EB010040F6C41246
:100F20000021D21A81410CD20020484908607F2D4F
:100F300004DB96204449886002E006E04248856070
:100F400045E000204049886041E0C7F3800088B355
:100F500040480068401C3F49086008460068012876
:100F60000DD105F06FF83C4A106051607F2D03DB16
:100F700096203549C86001E03348C56027E005F098
:100F800061F8CDE900013449DDE900200B684968CA
:100F9000D31A60EB010040F6C4120021D21A81413D
:100FA0000CD200202B4908607F2D04DB96202649B7
:100FB000C86002E006E02448C56008E0002022493D
:100FC000C86004E0002020498860C86000BF00BFFE
:100FD000402E03DA00201C49486014E0402E05DB57
:100FE000802E03DA0120184948600CE0802E05DBD2
:100FF000C02E03DA02201449486004E0C02E02DB50
:10100000032011494860B8F1010F11D1B9F1010F66
:1010100002D0BAF1010F0BD101201049087010481D
:1010200090ED0C0ABDEEC00A074880ED060A02E00A
:1010300000200A4908700448FFF726FC002004B08D
:10104000BDEC0C8BBDE8F087A00300202000002041
:101050002800002024000020300000201A0000207A
:101060008C06002030B50446002003E0155C4D5D81
:101070002554401C9842F9DB30BD30B590B0034692
:10108000002008E0441894FBF2F502FB15441C5DB7
:101090000DF80040401C9042F4DB002003E01DF8F6
:1010A00000401C54401C9042F9DB10B030BD70B5BC
:1010B000049C03E011F8015B00F8015B1D00A3F143
:1010C0000103F7D103E012F8015B00F8015B250092
:1010D000A4F10104F7D170BD70B50446002004E00E
:1010E0000D5C165C75402554401C9842F8DB70BDC1
:1010F0002DE9F047ADF5AB6D81468A461746984617
:101100003823FE4A39460DF5A460FFF7ABFF0025F2
:1011100006E00DF5A460405D0DF2045148556D1CCC
:101120001C2DF6DB002507E00DF5A46105F11C0080
:10113000085C383948556D1C1C2DF5DB002524E072
:10114000EF48415D1C220DF20450FFF796FFEC487A
:10115000415D1C220DF59D60FFF78FFF1C200346AB
:101160000DF59D620DF2045100900DF59660FFF7AC
:101170009EFF05EB45016CAA02EB01103023E14A0A
:101180000DF59661FFF76EFF6D1C102DD8DB402327
:10119000DD4A51465CA8FFF765FF00240AE05CA821
:1011A000005D54A908555CA904F12000085C4CA915
:1011B0000855641C202CF2DB0025AAE03023D34A1A
:1011C0004CA930A8FFF74EFFB8F1000F01D0284618
:1011D00001E0C5F10F0000EB40006CA901EB00122B
:1011E000302330A924A8FFF777FF002411E0002660
:1011F0000CE004EB440006EB400024A9085C04EB7F
:10120000440118AA02EB41018855761C062EF0DB3A
:10121000641C082CEBDB002446E004EB440218AB12
:1012200003EB4202527904EB44030DF1600C1CF80D
:10123000133042EA430004EB440218AB03EB4202D2
:101240005278D20004EB44030CEB43039B7842EA50
:10125000830204EB44030CEB4303DB7842EA4302D2
:1012600004EB44030CEB43031B7942EA0301002621
:1012700017E0A74A02EB841202EB0012525CC6F19F
:10128000030C012303FA0CF31A400AB1012200E017
:10129000002204EB44030DF1600C0CEB43039A5560
:1012A000761C042EE5DB641C082CB6DB00240FE062
:1012B00000260AE004EB440018A901EB4000805D21
:1012C00006EB840110AA5054761C042EF2DB641C39
:1012D000082CEDDB20238F4A10A908A8FFF7C2FED7
:1012E000202308AA54A96846FFF7F6FE002404E06C
:1012F0004CA8005D54A90855641C202CF8DB002480
:1013000004E01DF804004CA90855641C202CF8DBEF
:101310006D1C102DFFF652AF2020034654AA4CA995
:1013200000903CA8FFF7C3FE40237B4A3CA94846F7
:10133000FFF798FE0DF5AB6DBDE8F08710B50378AB
:101340005B100B700378DB075B0E447843EAA40361
:101350004B7043789B075B0E847843EAE4038B7001
:1013600083785B075B0EC47843EA2413CB70C378A1
:101370001B075B0E047943EA64130B710379DB06E8
:101380005B0E447943EAA4134B7143799B065B0ED1
:10139000847943EAE4138B71837903F07F03CB7183
:1013A000002204E08B5C5B061B0E8B54521C082A47
:1013B000F8DB10BD027802F0FE02437842EAD31255
:1013C0000A70427802F07E025200837842EA931259
:1013D0004A70827802F03E029200C37842EA5312C9
:1013E0008A70C27802F01E02D200037942EA131218
:1013F000CA70027902F00E021201437942EAD30266
:101400000A71427902F006025201837942EA93029C
:101410004A71827902F002029201C37942EA5302D0
:101420008A7170472DE9F041B2B005460E46174665
:10143000984669463846FFF781FF002436E020468B
:10144000E21704EB5272D210B25C2146E31704EBB0
:101450005373DB10A4EBC303C3F1070C012303FA9E
:101460000CF31A400AB1012200E0002212AB1A5517
:101470002046E21704EB5272D2101DF802202146DA
:10148000E31704EB5373DB10A4EBC303C3F1070CA6
:10149000012303FA0CF31A400AB1012200E00022F2
:1014A00002AB1A55002022A90855641C402CC6DB4B
:1014B000434602AA12A922A8FFF71AFE002402E05E
:1014C00000202855641C082CFADB00242CE022A8FC
:1014D000005D40B3E21704EB5272D210AA5C2146C1
:1014E000E31704EB5373DB10A4EBC303C3F1070C46
:1014F000012303FA0CF31A4320460FE0FA16010801
:10150000321801083217010862170108A2170108F2
:1015100042180108D2170108F2170108E31704EB7B
:101520005373DB10EA54641C402CD0DB32B0BDE8AE
:10153000F08170B58CB006460C4615460020089028
:1015400009900A900B9004900590069007900090E7
:10155000019002900390072D16DD20680890A08866
:10156000ADF82400A0798DF826000F2D05DAEA1FCA
:10157000E11D04A80DF002FF0FE0D4F8070004906D
:10158000D4F80B00059008E02A46214608A80DF083
:10159000F5FE55A103C9CDE90401012308AA04A958
:1015A0006846FFF73FFF00983060019870600CB00C
:1015B00070BDF0B58DB005460C4617461E460A2F85
:1015C00002DA00200DB0F0BD002009900A900B90C7
:1015D0000C9005900690079008900190029003905F
:1015E00004902068099060680A903FA00168059106
:1015F00000798DF818002089ADF81900207800F0E6
:10160000030005A90E54012305AA09A901A8FFF7A3
:1016100009FF207800F0070001A90E542068286017
:1016200060686860208928810198C5F80A000298DE
:10163000C5F80E000120C5E730B587B004460D4659
:10164000122D02DA002007B030BD207800F007002C
:101650000A30235C2A46214601A8FFF7AAFF08B9F1
:101660000020F0E71222214601A80DF04FFE08B934
:101670000120E8E70020E6E770B506460D460024A5
:101680000FE02CB92A5D1BA130460DF04FFC07E09E
:101690002A5D04EB44013144481E18A10DF046FCBC
:1016A000641C082CEDDB70BD30B589B004460D46D6
:1016B0000020079008900DF12300411E821E08AB08
:1016C000CDE90232CDE90410001F411E831E07AA96
:1016D000CDE900100BA128460DF054FD07982060BD
:1016E0000898606009B030BD687A6E6A726F626F88
:1016F0007400000025303278000000002D253032C3
:101700007800000025782D25782D25782D25782D39
:1017100025782D25782D25782D25780070B505465E
:101720000C46012006F0E5FB00BF612006F083FBBC
:101730000028FAD045F2555006F0C8FA284606F0BF
:10174000C8FA204606F0C8FA06F0C9FA06F0CCFA44
:1017500070BD10B506F0C3FA10BD4FF480700E498D
:10176000488380000D49088020200B4908830C49DC
:1017700008804002891E088002200A490880C001B2
:10178000088080200880042004490880891E088081
:101790000820088070470000000002401A0C024038
:1017A0001A0402401A0802401FB500210291039159
:1017B000009101910124FEA004F086FC04F042FC9B
:1017C000643041F10001CDE9000129E0142004F06A
:1017D000F5FBF84804F0AFFCA8B9F74800780128F9
:1017E00005D10020F449087004F0010419E004F068
:1017F00029FCCDE9020101A80DC80099891A984178
:101800000ED200240DE004F01DFCCDE90201DDE95B
:101810000231DDE90020D21A884101D2002400E023
:10182000D4E700BF204604B010BD70B58CB00021D5
:101830000A910B91089109910025002005900690CE
:101840000790142168460DF032FE0126002404F0B2
:10185000F9FB643041F10001CDE90801D748006887
:1018600020F07F454E208DF814004A208DF8150099
:101870005F208DF81600280D8DF81700C5F3034082
:101880008DF81800C5F303308DF81900C5F3032057
:101890008DF81A00C5F303108DF81B0005F00F003A
:1018A0008DF81C0003240FE005A8005D0A2805DA66
:1018B00005A8005D303005A9085504E005A8005DC5
:1018C000373005A90855641C092CEDDBBCA168461E
:1018D0000DF048FD05A968460DF044FD684604F08A
:1018E000F3FB2AE0142004F069FBB24804F023FC67
:1018F000B0B9B1480078012805D10020AE49087080
:1019000006F001061AE004F09DFBCDE90A01DDE9CD
:101910000830DDE90A219A1A88410ED200260DE02E
:1019200004F090FBCDE90A01DDE90830DDE90A1297
:10193000591A904101D2002600E0D3E700BF1421DC
:1019400068460DF0B4FD04F07DFB643041F1000108
:10195000CDE908019948806820F07F454E208DF838
:1019600014004A208DF815005F208DF81600280D10
:101970008DF81700C5F303408DF81800C5F3033048
:101980008DF81900C5F303208DF81A00C5F3031074
:101990008DF81B0005F00F008DF81C0003240FE0EC
:1019A00005A8005D0A2805DA05A8005D303005A904
:1019B000085504E005A8005D373005A90855641CEA
:1019C000092CEDDB80A168460DF0CCFC05A968462A
:1019D0000DF0C8FC684604F077FB2AE0142004F000
:1019E000EDFA744804F0A7FBB0B9734800780128F9
:1019F00005D100207049087006F001061AE004F0D5
:101A000021FBCDE90A01DDE90A32DDE90810C91A36
:101A100090410ED200260DE004F014FBCDE90A013E
:101A2000DDE90830DDE90A219A1A884101D2002651
:101A300000E0D3E700BF30460CB070BD70B58CB08D
:101A4000044600210A910B9108910991002600207B
:101A5000059006900790142168460DF028FD012599
:101A600004F0F0FA643041F10001CDE9080120688A
:101A70000590606806902089ADF81C0050A168466A
:101A80000DF070FC05A968460DF06CFC684604F08A
:101A90001BFB29E0142004F091FA464804F04BFBAC
:101AA000B0B945480078012805D1002042490870A6
:101AB00005F0010519E004F0C5FACDE90A01DDE9F8
:101AC0000A32DDE90810C91A90410DD200250CE058
:101AD00004F0B8FACDE90A0109A80DC80899891AD5
:101AE000984101D2002500E0D4E700BF14216846E8
:101AF0000DF0DDFC04F0A6FA643041F10001CDE9FF
:101B0000080120680590606806902089ADF81C00E7
:101B10002DA168460DF026FC05A968460DF022FCB3
:101B2000684604F0D1FA29E0142004F047FA21486D
:101B300004F001FBB0B920480078012805D100204D
:101B40001D49087005F0010519E004F07BFACDE9A4
:101B50000A01DDE90A31DDE90820D21A88410DD2F7
:101B600000250CE004F06EFACDE90A0109A80BC8C3
:101B7000089A511A984101D2002500E0D4E700BF2D
:101B800028460CB070BD70B58CB0044600210A9197
:101B90000B910891099100260020069007901421CE
:101BA00001A80DF084FC012504F04CFA64300FE02C
:101BB00041540000602900203B010020E404002083
:101BC00041542B4E414D450041542B4E414D420056
:101BD00041F10001CDE9080120680690A088ADF828
:101BE0001C00FDA101A80DF0BDFB06A901A80DF088
:101BF000B9FB01A804F068FA29E0142004F0DEF92A
:101C0000F74804F098FAA8B9F6480078012805D1F9
:101C10000020F449087005F0010519E004F012FAFB
:101C2000CDE90A0109A80BC8089A511A98410ED2A9
:101C300000250DE004F006FACDE90A01DDE90A32DB
:101C4000DDE90810C91A904101D2002500E0D4E76F
:101C500000BF142101A80DF02AFC04F0F3F9643050
:101C600041F10001CDE9080120680690A088ADF897
:101C70001C00DDA101A80DF075FB06A901A80DF05F
:101C800071FB01A804F020FA29E0142004F096F971
:101C9000D34804F050FAB0B9D2480078012805D1F1
:101CA0000020D049087005F0010519E004F0CAF9D8
:101CB000CDE90A01DDE90830DDE90A12591A90413F
:101CC0000DD200250CE004F0BDF9CDE90A0109A808
:101CD0000DC80899891A984101D2002500E0D4E77F
:101CE00000BF28460CB070BD30B58BB00446002153
:101CF00008910991069107910020059014216846EA
:101D00000DF0D5FB012504F09DF9643041F100018F
:101D1000CDE9060104F13000C0B28DF81400B4A181
:101D200068460DF01FFB05A968460DF01BFB6846D1
:101D300004F0CAF92AE0142004F040F9A84804F09D
:101D4000FAF9B0B9A7480078012805D10020A549C3
:101D5000087005F001051AE004F074F9CDE90801F6
:101D6000DDE90831DDE90620D21A88410ED20025CE
:101D70000DE004F067F9CDE90801DDE90831DDE99E
:101D80000620D21A884101D2002500E0D3E700BF27
:101D900028460BB030BD30B58BB004460021089109
:101DA00009910691079100200590142168460DF0D5
:101DB0007EFB012504F046F9643041F10001CDE9D4
:101DC000060104F13000C0B28DF814008AA1684603
:101DD0000DF0C8FA05A968460DF0C4FA684604F08B
:101DE00073F92AE0142004F0E9F87D4804F0A3F91F
:101DF000B0B97C480078012805D1002079490870E5
:101E000005F001051AE004F01DF9CDE90801DDE94E
:101E10000831DDE90620D21A88410ED200250DE0F6
:101E200004F010F9CDE90801DDE90831DDE906200B
:101E3000D21A884101D2002500E0D3E700BF28462E
:101E40000BB030BD30B58BB004460021089109912C
:101E50000691079100200590142168460DF027FB9C
:101E6000012504F0EFF8643041F10001CDE90601ED
:101E700004F13000C0B28DF8140061A168460DF085
:101E800071FA05A968460DF06DFA684604F01CF970
:101E90002AE0142004F092F8514804F04CF9B0B94B
:101EA00050480078012805D100204E49087005F0FF
:101EB00001051AE004F0C6F8CDE90801DDE90831B2
:101EC000DDE90620D21A88410ED200250DE004F08B
:101ED000B9F8CDE90801DDE90831DDE90620D21ABB
:101EE000884101D2002500E0D3E700BF28460BB0AF
:101EF00030BD30B58BB004460021089109910691A0
:101F0000079100200590142168460DF0D0FA0125B4
:101F100004F098F8643041F10001CDE9060104F1C4
:101F20003000C0B28DF8140037A168460DF01AFADF
:101F300005A968460DF016FA684604F0C5F82AE0CF
:101F4000142004F03BF8264804F0F5F8B0B9254811
:101F50000078012805D100202249087005F001050C
:101F60001AE004F06FF8CDE90801DDE90831DDE998
:101F70000620D21A88410ED200250DE004F062F846
:101F8000CDE90801DDE90831DDE90620D21A8841F2
:101F900001D2002500E0D3E700BF28460BB030BDDA
:101FA00030B58BB004460021089109910691079144
:101FB00000200590142168460DF079FA012504F0FF
:101FC00041F8643041F10001CDE9060104F130002F
:101FD000C0B28DF814001BE041542B50494E45000F
:101FE000602900203B01002041542B50494E420003
:101FF00041542B424155440041542B50494F31002C
:1020000041542B4455414C0041542B48494748000A
:10201000B0A168460DF0A6F905A968460DF0A2F931
:10202000684604F051F82AE0142003F0C7FFAB48DB
:1020300004F081F8B0B9AA480078012805D1002041
:10204000A749087005F001051AE003F0FBFFCDE990
:102050000801DDE90630DDE90812591A90410ED277
:1020600000250DE003F0EEFFCDE90801DDE90831C0
:10207000DDE90620D21A884101D2002500E0D3E72D
:1020800000BF142168460DF012FA03F0DBFF643044
:1020900041F10001CDE9060104F13000C0B28DF834
:1020A000140090A168460DF05DF905A968460DF091
:1020B00059F9684604F008F829E0142003F07EFF7F
:1020C000864804F038F8A8B985480078012805D179
:1020D00000208349087005F0010519E003F0B2FF04
:1020E000CDE9080107A80DC80699891A98410ED2B2
:1020F00000250DE003F0A6FFCDE90801DDE9083178
:10210000DDE90620D21A884101D2002500E0D4E79B
:1021100000BF28460BB030BD30B58BB0044600215F
:1021200008910991069107910020059014216846B5
:102130000DF0BDF9012503F085FF643041F1000188
:10214000CDE9060104F13000C0B28DF8140067A19A
:1021500068460DF007F905A968460DF003F96846D1
:1021600003F0B2FF2AE0142003F028FF5B4803F0DD
:10217000E2FFB0B95A480078012805D1002058493B
:10218000087005F001051AE003F05CFFCDE90801D5
:10219000DDE90831DDE90620D21A88410ED200259A
:1021A0000DE003F04FFFCDE90801DDE90831DDE97D
:1021B0000620D21A884101D2002500E0D3E700BFF3
:1021C00028460BB030BD10B50124FFF7EDFAFFF73C
:1021D0002CFB04400120FFF7DEFD04400620FFF742
:1021E00083FD04400020FFF72DFE04400020FFF790
:1021F00080FE04400020FFF7D3FE04400120FFF7DB
:102200008BFF0440204610BD10B50024334803F076
:1022100092FF002852D13248007801284ED1002088
:102220002F4908702D48C07843280BD12B480079DE
:102230004F2807D1294840794E2803D12748807973
:1022400045280FD02548C078432811D1234800796C
:102250004F280DD1214840794E2809D11F48807957
:10226000422805D10124012022490870204610BDD2
:102270001A48C0784C280BD118480079532807D148
:1022800016484079542803D11448807945280FD046
:102290001248C0784C2811D11048007953280DD12C
:1022A0000E484079542809D10C488079422805D13C
:1022B000002400200F4908702046D8E70D48007818
:1022C000012800D1D3E70B48007808B90020CEE7F9
:1022D0002046CCE741542B494D4D45006029002054
:1022E0003B01002041542B494D4D420041542B4E9F
:1022F0004F5449003F0000201CB50121880505F01E
:102300002EFF4FF44060009002208DF805008DF8FC
:10231000040000208DF8070001208DF806006946B2
:10232000F84805F0FFF904220A21F64805F085FA7D
:1023300004220B21F34805F080FA1CBD1FB50020D4
:10234000ADF804004FF48060ADF80A000001ADF86C
:102350000C00ED4800906946EC4805F0CCFA0121EC
:10236000EA4805F044FB0121E84805F06CFB1FBD7D
:1023700070B5044600BF4FF40031E44805F05DFC41
:102380000028F8D10121E14805F03DFB00BFE049FC
:10239000DE4805F030FC0028F9D00022D021DB48CF
:1023A00005F049FB00BFDB49D84805F024FC0028B4
:1023B000F9D02146D54805F0C2FB00BFD549891C9C
:1023C000D24805F018FC0028F8D00121CF4805F0CC
:1023D0001AFB00BFCE49CD4805F00DFC0028F9D00E
:1023E0000122D021C94805F026FB00BFC849491C7D
:1023F000C64805F000FC0028F8D000BFC4493F31B2
:10240000C24805F0F8FB0028F8D0C04805F099FB59
:1024100005460021BD4805F016FB0121BB4805F02B
:10242000FEFA284670BD10B54FF40060B5491A3168
:1024300008800A2003F0D9FD4FF48060B1491831BB
:1024400008800A2003F0D1FD4FF40060AD49183137
:1024500008800A2003F0C9FD10BD10B5FFF7E3FFA7
:1024600010BD10B54FF40060A649183108800A204D
:1024700003F0BBFD4FF48060A249183108800A20A8
:1024800003F0B3FD4FF400609E491A3108800A2022
:1024900003F0ABFD4FF480609A491A3108800A209E
:1024A00003F0A3FD10BD10B54FF40060954918313D
:1024B00008800A2003F099FD4FF48060914918319B
:1024C00008800A2003F091FD8E481030006800F467
:1024D00000641CB1FFF7A7FF002010BD4FF480601F
:1024E00088491A3108800A2003F07FFD0120F4E7B3
:1024F00070B5054671B6002421E005FA04F000F03D
:10250000800028B14FF400607E491831088004E053
:102510004FF400607B491A3108800A2003F065FD02
:102520004FF480607749183108800A2003F05DFD80
:102530004FF4806073491A310880601CC4B2082CC3
:10254000DBDB0A2003F051FDFFF7ADFF064661B665
:10255000304670BD70B50826002471B64FF4006097
:102560006849183108801FE00A2003F03EFD4FF44F
:10257000806064491A3108800A2003F036FD4FF468
:1025800080606049183108800A2003F02EFD600643
:10259000040E5C481030006800F400650DB144F092
:1025A00001040A2003F021FD3000A6F10101CEB2A2
:1025B000DAD14FF4806053491A3108800A2003F0C1
:1025C00014FD61B6204670BD10B504462CB94FF419
:1025D00000604C491A31088004E04FF4006049491A
:1025E000183108800A2003F000FD4FF4806045494F
:1025F000183108800A2003F0F8FC4FF4806041494C
:102600001A3108800A2003F0F0FC10BD2DE9F041DA
:1026100005460E461746FFF724FF05F0FE00FFF7BC
:1026200067FF8046B8F1000F02D10020BDE8F081BD
:1026300000240AE0305DFFF75BFF8046B8F1000F31
:1026400001D12046F2E7601CC4B23800A7F10101B5
:10265000CFB2EFD1FFF7E7FE0A2003F0C6FC204619
:10266000E4E72DE9F04107460D461646FFF7F9FE6F
:1026700047F00100FFF73CFF8046B8F1000F02D1A0
:102680000020BDE8F08100240CE0FFF763FF28552F
:102690000020FFF799FF0A2003F0A7FC701EC6B2C6
:1026A000601CC4B2012EF0DCFFF754FF2855012056
:1026B000FFF78AFF0A2003F098FCFFF7B4FE0A2018
:1026C00003F093FC601CC4B22046DAE770B5044600
:1026D000FFF7C7FE04F0FE00FFF70AFF05460DB93D
:1026E000002070BDFFF79FFE0A2003F07EFC012052
:1026F000F7E72DE9F05F80460C46154665B9BDE861
:10270000F09F0000000402405034030000580040D5
:10271000010003008200070071B62046E11704EBB8
:102720005171C910A4EBC101C1F10801CFB2AF4290
:1027300000D9EFB2002651E0FFF793FE2112A0224C
:1027400002EB4101C8B2FFF7D3FEA246E11704EB4A
:1027500011610912A4EB0121C8B2FFF7C9FE05E01F
:1027600098F80000FFF7C4FE08F101083800A7F14F
:102770000101CFB2F4D1FFF756FE4FF0000BD9465E
:1027800016E00A2003F051FC09F1010000F0FF09F6
:10279000FFF767FE2112A02202EB4101C8B2FFF74A
:1027A000A7FE8346FFF73FFEBBF1000F00DD02E00E
:1027B000B9F10A0FE5DB00BFB9F10A0F01D161B62B
:1027C0009DE73E44E01984B2AE4200D307E0A81B67
:1027D000082801D9082701E0A81BC7B2ACE700BF51
:1027E00061B600BF8BE72DE9F04105460C46174660
:1027F0004FF0000871B6FFF734FE2112A02202EB61
:102800004101C8B2FFF774FE2646E11704EB1161DF
:102810000912A4EB0121C8B2FFF76AFEFFF721FEFF
:102820002112A12202EB4101C8B2FFF761FE4FF075
:10283000000808E0FFF78EFE28700020FFF7C4FEB6
:102840006D1C08F10108781E4045F3D8FFF782FEA1
:1028500028700120FFF7B8FEFFF7E5FD61B6BDE87F
:10286000F0812DE9F04104460E46174671B6FFF798
:10287000F8FD04F0FE00FFF73BFE054605B91DE03C
:102880003046FFF735FE054605B917E0FFF7E9FDCD
:1028900044F00100FFF72CFE054605B90EE0FFF7F6
:1028A00059FE38700120FFF78FFEFFF7BCFD0A20AC
:1028B00003F09BFB61B60120BDE8F081FFF7B3FD9B
:1028C0000A2003F092FB61B60020F5E7F8B5064652
:1028D0000C4615468DF800408DF8015071B6022265
:1028E00069463046FFF792FE074661B6002F01DDCC
:1028F0000120F8BD0020FCE72DE9F84F80460C468A
:1029000015460DB9BDE8F88F71B62046E11704EB06
:10291000D1614911A4EB4111C1F12001CFB2AF4205
:1029200000D9EFB20026BA4652E0FFF79AFDA02088
:10293000FFF7DEFDA346E11704EB1161C1F30720A9
:10294000FFF7D6FDE11704EB11610912A4EB012199
:10295000C8B2FFF7CDFD05E098F80000FFF7C8FD0D
:1029600008F101083800A7F10101CFB2F4D1FFF757
:102970005AFD00200090814612E00A2003F055FB2A
:1029800009F1010000F0FF09FFF76BFDA020FFF740
:10299000AFFD0090FFF747FD0098002800DD02E042
:1029A000B9F10A0FE9DB00BFB9F10A0F01D161B635
:1029B000A8E7564404EB0A0084B2AE4200D308E014
:1029C000A81B202801D9202701E0A81BC7B2BA46BE
:1029D000ABE700BF61B600BF94E72DE9F0410546C3
:1029E0000C4617464FF0000871B6FFF73AFDA020DD
:1029F000FFF77EFD2646E11704EB1161C1F30720C6
:102A0000FFF776FDE11704EB11610912A4EB012138
:102A1000C8B2FFF76DFDFFF724FDA120FFF768FDA9
:102A20004FF0000808E0FFF795FD28700020FFF741
:102A3000CBFD6D1C08F10108781E4045F3D8FFF767
:102A400089FD28700120FFF7BFFDFFF7ECFC61B6A0
:102A5000BDE8F08110B501211F2005F04DFB0121DB
:102A6000084605F08DFB0121084605F078FB0121A1
:102A7000022005F074FB0121082005F070FB012104
:102A8000042005F06CFB0121102005F068FB0121FA
:102A9000202005F064FB0121080405F071FB0121F1
:102AA000480405F06DFB0121880405F069FB012154
:102AB000402005F054FB0121C80305F050FB012123
:102AC000880405F04CFB0121080205F059FB0121A7
:102AD000880305F055FB10BD08B500F09BFC4FF4D2
:102AE000C06005F013F927208DF8000001208DF853
:102AF000010002208DF8020001208DF803006846D5
:102B000005F009F908BD1CB50320009002208DF8DE
:102B1000040000208DF8060002208DF8050000203A
:102B20008DF807006946F84804F0FCFD02220021F8
:102B3000F54804F082FE02220121F34804F07DFEF4
:102B4000C02000906946F04804F0ECFD0222062106
:102B5000ED4804F072FE02220721EB4804F06DFEFE
:102B6000C02000906946E94804F0DCFD02220621FD
:102B7000E64804F062FE02220721E44804F05DFE0C
:102B80004FF4004000906946DF4804F0CBFD082078
:102B900000906946DD4804F0C5FD01220F21DA48A6
:102BA00004F04BFE01220321D84804F046FE4FF406
:102BB000D44000906946D64804F0B4FD01220921B2
:102BC000D34804F03AFE01220B21D14804F035FE2F
:102BD00001220D21CE4804F030FE01220E21CC4806
:102BE00004F02BFE4FF4007000906946C74804F0D3
:102BF00099FD03220921C54804F01FFE4FF480709F
:102C000000906946C14804F08DFD03220821BF48A9
:102C100004F013FE0C2000906946BB4804F082FDCE
:102C200003220221B84804F008FE03221146B648E8
:102C300004F003FE032000908DF804006946B348B9
:102C400004F070FD02208DF804004FF4E050009075
:102C50006946AD4804F066FD0A221146AA4804F010
:102C6000ECFD0A220B21A84804F0E7FD0A220C2102
:102C7000A54804F0E2FD4FF4E05000906946A548F5
:102C800004F050FD06220A21A24804F0D6FD0622D7
:102C90000B21A04804F0D1FD06220C219D4804F030
:102CA000CCFD4FF4D850009069469B4804F03AFDA3
:102CB00007220821984804F0C0FD07220921964800
:102CC00004F0BBFD07220B21934804F0B6FD072258
:102CD0000C21914804F0B1FD4FF4007000900020E9
:102CE0008DF804008DF8060003208DF80500022001
:102CF0008DF807006946844804F014FD4FF4807095
:102D0000009001208DF8040000208DF806000220BC
:102D10008DF8050000208DF8070069467A4804F018
:102D200001FD4FF44060009001208DF80400022066
:102D30008DF8050001208DF8060000208DF80700B1
:102D40006946724804F0EEFC4FF480400090012088
:102D50008DF8040002208DF8050000208DF8060093
:102D600001208DF807006946684804F0DBFC4EF24C
:102D70000120009000208DF8040002208DF805004D
:102D800000208DF806008DF807006946614804F0C0
:102D9000C9FC4FF4C170009001208DF8040002209E
:102DA0008DF8050000208DF806008DF807006946B3
:102DB000584804F0B7FC0120009000208DF8040072
:102DC00002208DF8050000208DF8060001208DF806
:102DD00007006946504804F0A5FC40F20E40009000
:102DE00001208DF8040002208DF8050000208DF8E8
:102DF00006008DF807006946474804F093FC40F24E
:102E0000FF50009001208DF8040002208DF805008D
:102E100000208DF806008DF8070069463C4804F054
:102E200081FC202000906946374804F07BFC20207C
:102E300000906946354804F075FC1CBD7FB5002143
:102E4000364A11605160684605F0C1F84FF47A7255
:102E50000198B0FBF2F1B1F1807F00D31DE021F0C9
:102E60007F40401E4FF0E022506150170F22002893
:102E700007DA13071D0E2A4B00F00F04241F1D55FF
:102E800003E013071C0E274B1C5400BF00204FF01B
:102E9000E02290610720106100BF7FBD38B500229D
:102EA000214B1B68214C23601F4B1B1D1B6863605B
:102EB0001D4B08331B68A360002022E01B4B13F856
:102EC00020308DF80030194B33F820301B0A8DF874
:102ED0000130164B53F820301B0C8DF80230134B89
:102EE00053F820301B0E8DF80330002106E01DF84A
:102EF00001501346521C0E4CE554491C0429F6DBC4
:102F0000401C0328DADB38BD000002400004024008
:102F10000010024000080240000C02403001002076
:102F200018ED00E000E400E0107AFF1FE404002048
:102F3000F004002010B500F062FB0446FF2C00D125
:102F4000FE2423460C226F496F48FEF732FB10BD6A
:102F500010B504F047FB01280CD004F055F904F03B
:102F6000C1FA552004F0EFFA04F026FB04F0C7FA8A
:102F700004F057F910BD10B504F034FB01280CD152
:102F800004F042F904F0AEFAAA2004F0DCFA04F0EE
:102F900013FB04F0B4FA04F044F910BDF8B50026B0
:102FA000FFF7D6FFFEF7D9FB02F0EEFF00F07FF946
:102FB00000F0A1FE00F0C4F9FFF74FFA00F036FB75
:102FC00000F055FA00F0D6FA4FF4E13003F05EF865
:102FD000002500E06D1C4D488542FBDB00F082FFC0
:102FE000D8B900204A49097821F00101491C484A12
:102FF00011700221474A118000BF00E0401C464981
:103000008842FBDB0221434A921C1180002000E031
:10301000401C41498842FBDB00BF61B602F040F929
:10302000FDF780FCFFF73AFFFFF784FF4FF47A715A
:103030000420FEF773FB3948007818BB0024FFF723
:10304000C2F80646012E02D101F099FF19E030487E
:10305000007820F00200801C2D49087002202D49C4
:103060000880002400E0641C2B488442FBDB022023
:103070002849891C0880002400E0641C26488442FA
:10308000FBDB00BF26480079012804D0022814D0B9
:10309000042825D118E00020224908702248234B3B
:1030A000234A01210090234806F032FCFFF724F95F
:1030B000FFF744F900F057FF13E0FFF71DF9FFF7A2
:1030C0003DF900F050FF0CE00120164908701A4845
:1030D0001A4B1B4A012100901A480AF0C2FA00E07C
:1030E00000BF00BFF8BD10B571B6FFF7B3FCFFF726
:1030F000F3FCFFF708FDFFF7A1FEFFF74FFF0020ED
:1031000010BD0000F0040020FC04002080F0FA0252
:1031100038000020180802408096980047000020E0
:10312000C006002046000020D001002050020020F0
:103130009C3400200C2A0020A8010020FC02002062
:103140006C010020DC37002010B5FFF7CCFF02F047
:103150001AFA002010BD000070B5044600251AE0E0
:103160002020F849488304F0800018B12020F64957
:10317000088003E02020F449891C0880012002F027
:1031800034FF2020EF490883012002F02EFF600663
:10319000040E681CC5B2082DE2DB2020E949088333
:1031A00070BD2DE9F04107460C4615461E4600202D
:1031B000FFF7D2FF0020FFF7CFFF0020FFF7CCFF83
:1031C0000020FFF7C9FF06F01F0040F0E00840466E
:1031D000FFF7C2FF2846FFF7BFFF2046FFF7BCFFFF
:1031E0003846FFF7B9FFFF20FFF7B6FFFF20FFF7D4
:1031F000B3FFFF20FFF7B0FFFF20FFF7ADFFBDE8F3
:10320000F08110B51F23002211466420FFF7C9FF8B
:1032100010BD10B500221146CC4805F091FE0021EA
:10322000CA4805F01FFC10BD10B500220421C74894
:1032300005F086FE0021C54805F014FC10BD10B550
:103240000446962C00D99624C4F1990404B90124AB
:1032500001220021BD4805F073FE00220421BB4875
:1032600005F06EFE2146B94805F061FD0121B74821
:1032700005F0F8FB10BD10B50446962C00D9962435
:10328000C4F1990404B9012401220421AF4805F0D6
:1032900057FE00221146AD4805F052FE2146AB48CC
:1032A00005F047FD0121A94805F0DCFB10BD10B574
:1032B00088B0A74800684008400042F21071B0FB97
:1032C000F1F0401E84B298200690ADF81440002022
:1032D000ADF81C00ADF8160005A99C4805F039FBB7
:1032E0007020ADF800000120ADF80200029000202F
:1032F000ADF80C006946954805F0F9FB7020ADF873
:1033000000000220ADF80C006946904805F0B6FBBD
:1033100008218E4805F094FB00218C4805F03BFD08
:1033200000218A4805F040FD00221146874805F03B
:1033300007FE00220421854805F002FE08B010BDFA
:1033400030B589B000244FF4807082490883800032
:10335000488300BF7E48006846F2A811B0FBF1F533
:103360000795ADF818400020ADF82000ADF81A0020
:1033700006A9794805F0EDFA6020ADF804000120B7
:10338000ADF80600002003900220ADF8100001A95E
:10339000714805F073FB00216F4805F0FCFC01212A
:1033A0006D4805F05FFB09B030BD70B504460D46B1
:1033B00025B14FF480606749088303E04FF48060D3
:1033C000644948832146644805F0B1FC70BD6348F8
:1033D000006800F0010008B1012070470020FCE700
:1033E00001205F49087006200121814042099200B6
:1033F00002F1E022C2F8001100BF7047062001214F
:103400008140584A430942F8231000BF0020544924
:10341000087070470EB50021022005F0B5F90120B3
:10342000019000208DF8080008208DF80900012087
:103430008DF80A0001A803F029FE012003F088FEA0
:1034400006208DF8000002208DF801008DF80200A2
:1034500000208DF80300684604F05DFC0620012181
:103460008140414A430942F8231000BF0EBD30B5E8
:1034700089B000BF00243648006849F27041B0FBB3
:10348000F1F0451E0795ADF818400020ADF820007A
:10349000ADF81A0006A9354805F05BFA6020ADF8D2
:1034A00004000120ADF806002948006849F2704187
:1034B000B0FBF1F000EB800080006421B0FBF1F084
:1034C00003900020ADF8100001A9284805F0D6FAB5
:1034D0000021264805F05FFC0021244805F0C2FACF
:1034E00009B030BD10B50121204805F0BBFA10BD70
:1034F00010B500211D4805F0B5FA10BD0146C1EB1D
:1035000001108200D01702EB1050001370470146E3
:1035100008033C2290FBF2F070471548D0ED430AB7
:1035200060EE800AFDEEE00A10EE900A7047104946
:10353000D1ED430A00EE100AB8EEC01A81EE200A5F
:1035400070470000000002401804024000400140A3
:103550001C010020001002400048014010080240F9
:103560000200002080E100E080E200E00044014031
:10357000C006002000B58BB00021E14803F097FBA6
:10358000002001904FF480700490002003904FF4CD
:103590008030029001A803F073FB002005908DF8A5
:1035A00018008DF819000790099001208DF8280067
:1035B00005A9D34803F035FB022301220821D04896
:1035C00003F0B5FB0121CE4803F071FB0BB000BD49
:1035D00010B5022301220821C94803F0A8FBC848FE
:1035E00003F001FC00BF0221C54803F01DFD0028C7
:1035F000F9D0C348C06C84B22411E0B210BD10B53C
:10360000022301220921BE4803F091FBBC4803F0CC
:10361000EAFB00BF0221BA4803F006FD0028F9D0FA
:10362000B748C06C84B22411E0B210BD00B585B0BB
:103630000420B44908800220891E08800020ADF8CB
:1036400000004FF48270ADF802000020ADF80400D5
:10365000ADF80600ADF808004815ADF80A001020D6
:10366000ADF80C000020ADF80E000720ADF81000FA
:103670006946A54804F0A4FE0121A34804F083FF95
:1036800005B000BD10B5044600BF02219E4805F0FC
:1036900032F80028F9D021469B4804F0F5FF00BF1E
:1036A0000121994805F027F80028F9D0964804F040
:1036B000E8FFC0B210BD2DE9F04104460E461746A2
:1036C000002571B6802091490880052002F08DFC0C
:1036D0004FF480708D4908808020891E08804FF04B
:1036E00000081DE06D1089480A38006800F4007079
:1036F000B0F5007F01D145F400454FF48070834957
:10370000891E0880012002F070FC4FF480707F4910
:103710000880012002F069FC08F1010000F0FF08B8
:10372000B8F1100FDEDB61B6680B3870C5F303101B
:10373000207005F00F00401C30702078102839D21E
:10374000DFE800F0080B0E1114171A1D202326299C
:103750002C2F32355F2020702FE0492020702CE084
:103760004B20207029E04D20207026E04F20207053
:1037700023E05120207020E0552020701DE05920CA
:1037800020701AE06520207017E06720207014E098
:103790005D20207011E0692020700EE06D20207007
:1037A0000BE07120207008E07520207005E0792082
:1037B000207002E05D20207000BF00BFBDE8F081F6
:1037C000002070472DE9F0414FF00008FFF717FF88
:1037D00007464F4801680068401C4D4A10604D483C
:1037E00040F8217010460068052805D100201146D8
:1037F00008600120484908700025002646480078E6
:1038000000285AD0012412E0424850F824004149CF
:1038100051F82510884200DD25463E4850F8240026
:103820003C4951F82610884200DA2646641C052CD3
:10383000EADB384850F8250038490968384A1268E8
:103840001144884204DD35480068324941F82500BA
:10385000304850F8260031490968314A1268891AFF
:10386000884204DA2D4800682A4941F82600294890
:1038700000682A490860012408E0264850F824001E
:1038800026490968084425490860641C052CF4DBB6
:1038900022480068052190FBF1F0204908600846A5
:1038A000077800688B2819DA08460068852801DC4B
:1038B0004FF002084FF0010810E016490968154A58
:1038C00052681144134A92681144124AD268881807
:1038D000C11700EB91718910104A116071B611483F
:1038E00080F82D7100EE107AB8EE400ADFED0E0A76
:1038F00020EE200A80ED4D0A61B64046BDE8F08119
:10390000002001401A0C0240003C00401A0802400E
:103910004800002010050020540000204C0000202A
:1039200050000020C00600206666CA3D30B587B052
:1039300005460C460020ADF804004FF6FF700290DB
:103940000020ADF80C00ADF8060001A9284605F0EE
:1039500000F800231A460321284605F06EFD0020DA
:10396000ADF81000ADF812000120ADF814000020F1
:10397000ADF81600ADF8180014B9ADF8120002E069
:103980000220ADF8120004A9284605F0B9FB042076
:10399000ADF810000020ADF8120004A9284605F08B
:1039A000AFFB002068620021284605F05BF807B0F5
:1039B00030BD0820FE4908800020091D0880FC4910
:1039C0000C310880FB4800688008FB49B0FBF1F02F
:1039D000401EF749283108804FF6FF70091D086026
:1039E0000120F349143108800020F1492431086096
:1039F000EF4910310880704710B5F049086801217F
:103A0000FFF794FFED4948680121FFF78FFFEB496D
:103A100088680121FFF78AFFE849C8680121FFF79C
:103A200085FFFFF7C6FF10BD4FF0804000884FF6BE
:103A3000FE7108404FF080410880E14800884FF651
:103A4000FE710840DE490880DE4800884FF6FE71AE
:103A50000840DC490880DC4800884FF6FE710840C9
:103A6000D949088000204FF080414862D449243170
:103A70000860D44924310860D34924310860CC4916
:103A800024310860CA4910310880C948008840F0D4
:103A90000100C74908800805008840F001000905B9
:103AA0000880C748008840F00100C5490880C54823
:103AB000008840F00100C3490880C348008840F0F6
:103AC0000100C1490880704770B50546B8480088B4
:103AD0004FF6FE710840B6490880080500884FF689
:103AE000FE7108404FF080410880B54800884FF6CD
:103AF000FE710840B2490880B24800884FF6FE7156
:103B00000840B0490880B04800884FF6FE71084070
:103B1000AD490880A6482430006883B20BB94FF63F
:103B2000FF7300221AE0A54850F82260706A04B2C0
:103B300000EE903AF8EE600ADFEDA41A81EEA01ACA
:103B400000EE904AF8EEE00A21EE200AFDEEC00AEF
:103B500010EE900A45F82200501CC2B2042AE2DBA3
:103B6000FFF762FF70BD924800884FF6FE71084073
:103B70008F490880080500884FF6FE7108404FF015
:103B8000804108808E4800884FF6FE7108408C49BD
:103B900008808C4800884FF6FE71084089490880EB
:103BA000894800884FF6FE710840874908807047B1
:103BB00070B505460C460020002115B141F0010109
:103BC00001E040F0010014B141F0020101E040F0D9
:103BD000020012B141F0040101E040F0040013B111
:103BE00041F0080101E040F00800794E3183708314
:103BF00070BD70B505460C460020002115B141F09E
:103C0000100100E080B214B141F0200100E080B268
:103C100012B141F0400100E080B213B141F08001E7
:103C200000E080B26A4E3183708370BD10B5694C7C
:103C30006063A163E263236410BD30B589B00024E2
:103C400000BF5C48006846F2A811B0FBF1F507958B
:103C5000ADF818400020ADF82000ADF81A0006A914
:103C60005C4804F076FE6020ADF804000120ADF859
:103C70000600002003900220ADF8100001A955486D
:103C800004F0FCFE0821534805F085F80120ADF84A
:103C900006000020039001A94E4804F028FF0821E7
:103CA0004C4805F081F80120ADF806000020039093
:103CB00001A9484804F068FF0821464805F081F84A
:103CC0000120ADF806000020039001A9414804F04E
:103CD000C1FF08213F4805F07DF801213D4804F06F
:103CE000A3FE00213B4804F0BDFE0121394805F048
:103CF000AAFA09B030BD10B5FFF79FFF01231A469D
:103D000019461846FFF775FF00231A46194618464C
:103D1000FFF74EFF00231A4619461846FFF786FFA5
:103D2000FFF76AFE00202C49087010BDF0B587B07F
:103D30002948007808B907B0F0BD6846FFF7C4FE0F
:103D4000002422E05DF82410244800EB8410C163B5
:103D5000224800EB84165DF82410B3EE000A3046CA
:103D600001F08BF90546002D07DA012006A9085558
:103D7000684204A921F8140005E0002006A90855AE
:103D800004A921F81450601CC4B2042CDADB9DF89D
:103D90001B309DF81A209DF819109DF81800FFF7A8
:103DA00007FFBDF81630BDF81420BDF8121017E05B
:103DB000001400401C01002040420F005800002069
:103DC0000004004000080040000C00400024F449BA
:103DD000001002400000014068000020C8060020DA
:103DE000BDF81000FFF722FF00BFA4E710B50024C4
:103DF00006E0284901EB841001F0FEF8601CC4B213
:103E0000042CF6DBFFF710FE71B601202249087082
:103E100061B60121214804F025FE10BD10B5002136
:103E20001E4804F01FFE71B600201B49087061B6E1
:103E300000231A4619461846FFF7F8FE01231A46D2
:103E400019461846FFF7D5FE00231A4619461846AC
:103E5000FFF7AEFEFFF787FE10BD7FB5054671B6D2
:103E6000002407E00B4800EB8410C06B4DF82400E1
:103E7000601CC4B2042CF5DB61B6002407E05DF8D9
:103E80002400FFF73BFB45F82400601CC4B2042C5F
:103E9000F5DB7FBDC806002068000020000001405F
:103EA00010B5044664B9FE4A7521D020FEF7D9FC4E
:103EB000FB480078682801D1012010BD0020FCE7F4
:103EC000012C0CD17520FEF753FAF549087008460D
:103ED0000078682801D10120EFE70020EDE7F048E5
:103EE0000078EAE710B501240020FFF7D9FF08B9F0
:103EF000002010BD00226B21D020FEF7E7FC04401B
:103F000001221921D020FEF7E1FC044004221A21ED
:103F1000D020FEF7DBFC044008221B21D020FEF756
:103F2000D5FC044008221C21D020FEF7CFFC044021
:103F30002046DEE710B54FF48041DA4803F054FC28
:103F400008B9012010BD0020FCE770B504462046EA
:103F5000FEF70EFA0546611CC8B2FEF709FA0646DE
:103F600006EB052070BD70B500240EE04720FFF77A
:103F7000ECFF00B2CC4921F81400002500E06D1CD4
:103F8000CA488542FBDB601CC4B20A2CEEDB00246D
:103F900009E0C54830F91400C54909680844C44916
:103FA0000860601CC4B20A2CF3DBC14800680A2117
:103FB00090FBF1F0BE49086070BD70B52DED048B2B
:103FC00004460D464720FFF7C0FF00B26081B4F9F8
:103FD0000A10B74A1268881A0DF083F841EC190BE1
:103FE0009FEDB40B53EC102B0CF0C6FE41EC180BFC
:103FF0000CF0DCFD6861BDEC048B70BD0FB42DEDE1
:10400000020B10B52DED108B9DED160AB5EEC00A12
:10401000F1EE10FA35D09DED160A10EE101A084692
:104020000DF0F0FA41EC1B0B9DED150A10EE101A85
:1040300008460DF0E7FA41EC1C0BB0EE4B1AF0EE1F
:104040006B1AB0EE4C0AF0EE6C0A0BF009FFB0EE02
:1040500040AAF0EE60AA9FED990B53EC102B51ECA7
:104060001A0B0DF0A5F841EC190B9FED960B53ECD4
:10407000102B0CF081FE41EC180B0CF097FD9349CE
:1040800008609DED170A10EE101A08460DF0BAFAF6
:1040900041EC1F0B9FED8E0B53EC102B0DF088F8AD
:1040A00041EC1D0B8C4890ED030A10EE101A0846E7
:1040B0000DF0A8FA41EC1E0B53EC1D2B0CF0A8FDE3
:1040C00041EC1B0B854890ED010A10EE101A0846D2
:1040D0000DF098FA41EC1C0B53EC1B2B0DF068F81B
:1040E00041EC190B7D4890ED000A7848D0ED000AAC
:1040F00020EE200A10EE101A08460DF083FA41EC6B
:104100001A0B53EC192B0CF083FD41EC180B0CF03F
:104110004DFD7149C8609DED160AB5EEC00AF1EE7D
:1041200010FA37D09DED160A10EE101A08460DF061
:1041300069FA41EC1B0B9DED140AB1EE400A10EE3A
:10414000101A08460DF05EFA41EC1C0BB0EE4B1A4B
:10415000F0EE6B1AB0EE4C0AF0EE6C0A0BF080FE3B
:10416000B0EE40AAF0EE60AA9FED540B53EC102B7A
:1041700051EC1A0B0DF01CF841EC190B9FED510B93
:1041800053EC102B0CF0F8FD41EC180B0CF00EFD6D
:10419000534908609DED180A10EE101A08460DF0FC
:1041A00031FA41EC1F0B9FED4A0B53EC102B0CF036
:1041B000FFFF41EC1D0B484890ED040A10EE101A69
:1041C00008460DF01FFA41EC1E0B53EC1D2B0CF0B2
:1041D0001FFD41EC1B0B414890ED010A10EE101A37
:1041E00008460DF00FFA41EC1C0B53EC1B2B0CF0A6
:1041F000DFFF41EC190B394890ED000A3848D0ED4B
:10420000000A20EE200A10EE101A08460DF0FAF906
:1042100041EC1A0B53EC192B0CF0FAFC41EC180B87
:104220000CF0C4FC2C4908619DED140AB5EEC00ADF
:10423000F1EE10FA58D09DED140A10EE101A08464F
:104240000DF0E0F941EC1B0B9DED150A10EE101A74
:1042500008460DF0D7F941EC1C0BB0EE4B1AF0EE0E
:104260006B1AB0EE4C0AF0EE6C0A0BF0F9FDB0EEF2
:1042700040AAF0EE60AA9FED110B53EC102B51EC0D
:104280001A0B0CF095FF41EC190B9FED0E0B53EC44
:10429000102B0CF071FD41EC180B0CF087FC21E0A9
:1042A000840000200008024060050020400D03004B
:1042B00080000020FCA9F1D24D62504000000000B7
:1042C000008066406E861BF0F921094078000020CE
:1042D0007B14AE47E17A943F480500206C00002033
:1042E0007C000020514908609DED190A10EE101A5B
:1042F00008460DF087F941EC180B9FED4D0B53EC80
:10430000102B0DF053F80FD39DED190A10EE101A73
:1043100008460DF077F941EC180B9FED470B53EC75
:10432000102B0CF009FF2CD29DED190A10EE101A7B
:1043300008460DF067F941EC1C0B1FED1B0B53EC0D
:10434000102B0CF035FF41EC1A0B3D4890ED050A9F
:1043500010EE101A08460DF055F941EC1B0B53EC0A
:104360001A2B0CF055FC41EC190B9FED310B53EC63
:10437000102B0CF01DFF41EC180B0CF017FC304912
:1043800048612F4890ED050A10EE101A08460DF00E
:1043900039F941EC180B1FED370B53EC102B0DF0D6
:1043A00005F816D2264890ED050A10EE101A0846B8
:1043B0000DF028F941EC190B9FED220B53EC102B5B
:1043C0000DF036F841EC180B0CF0F0FB1C4948617D
:1043D00026E01B4890ED050A10EE101A08460DF075
:1043E00011F941EC180B9FED190B53EC102B0CF04D
:1043F000A3FE15D2124890ED050A10EE101A0846D9
:104400000DF000F941EC190B9FED0E0B53EC102B46
:104410000CF0FEFB41EC180B0CF0C8FB084948619E
:10442000BDEC108B10BC5DF81CFB0000740000207C
:10443000000000000000F03F000000000000F0BF9E
:1044400048050020000000000080764000000000C9
:10445000008066C01CB556A103C9CDE900014FF02C
:10446000FF3055490860042054490880702000F04E
:1044700041F93F21002000F0D2F8322001F0CAFDBE
:104480001921112000F0CBF80021012000F0C7F81D
:104490000121022000F0C3F80321084600F0BFF814
:1044A0000021042000F0BBF84548807900F07F012E
:1044B000052000F0B4F82621062000F0B0F805220F
:1044C0006946002000F0D8F9002407E01DF8040038
:1044D0001130C0B20DF80400601CC4B2052CF5DB2D
:1044E0000521684600F0B9F91CBD01203249086079
:1044F000704731480078704700202F4908607047A6
:1045000010B52D480068012800D110BD04202B49AA
:104510000880012000F00DFA00F0BAF800F0ACF8C5
:10452000702000F0E7F804202449891E088001204B
:104530002149086000BFE8E770B504460021216109
:104540001E480A38006800F0010008B1002070BD64
:1045500004F1140000F0FEF80546202D07DDD4F824
:104560001401401CC4F814014FF0FF30EFE725613F
:104570002846ECE710B504460420104908800020C6
:1045800000F0D7F900F078F8217C04F1140000F075
:1045900028F904200949891E0880142001F025FD0E
:1045A000042006490880FFF7A7FF206910BD00001E
:1045B0000098457110000000880000201A0C02408D
:1045C000C006002070B504460220E349088020465A
:1045D000FFF758F8FF20FFF755F805460220DE499F
:1045E000891E0880284670BD2DE9F04104460E461C
:1045F00017460220D84908802046FFF743F80025D7
:1046000005E0FF20FFF73EF87855681CC5B2B542BB
:10461000F7DB0220D049891E0880BDE8F08170B523
:1046200004460D460220CC49088044F02000FFF7E4
:1046300029F82846FFF726F80220C749891E088076
:1046400070BD2DE9F04105460E4617460220C249CD
:10465000088045F02000FFF715F8002404E0305DE5
:10466000FFF710F8601CC4B2BC42F8DB0220BA4964
:10467000891E0880BDE8F08110B50220B649088087
:10468000E120FEF7FFFF0220B349891E088010BD1C
:1046900010B50220B0490880E220FEF7F3FF0220A7
:1046A000AD49891E088010BD10B50220AA490880B6
:1046B000E320FEF7E7FF0220A749891E088010BD0E
:1046C00010B50220A4490880FF20FEF7DBFF02207E
:1046D000A149891E088010BD10B502209E4908809E
:1046E0000720FEF7CFFF044602209B49891E088061
:1046F000204610BD70B50446002504F07004FFF795
:10470000EBFF05460220944908802720FEF7BAFFF8
:1047100044EA0500FEF7B6FF02208F49891E088093
:10472000FFF7DAFF70BD10B5FFF7D6FF00F070009D
:1047300010BD10B50220884908806020FEF7A2FF56
:10474000FF20FEF79FFF044602208349891E088050
:10475000204610BD70B50646FFF7EBFF0446202C3F
:1047600003DDFFF795FF212070BD0CB90020FBE7AA
:104770000220794908806120FEF784FF002505E0CA
:10478000FF20FEF77FFF7055681CC5B2A542F7DB1E
:1047900002207149891E0880FFF77AFF2046E3E76F
:1047A0002DE9F04105460E46202E01DD202000E0D7
:1047B00030460746FFF760FF022067490880A020C7
:1047C000FEF760FF002404E0285DFEF75BFF601C3D
:1047D000C4B2BC42F8DB02205F49891E0880BDE8F4
:1047E000F08170B505460C46202C00DC04B970BD84
:1047F000022059490880B020FEF744FF03E015F875
:10480000010BFEF73FFF2000A4F10101CCB2F6D16D
:1048100002205149891E088000BFE8E72DE9F041D8
:1048200005460E46202E01DD202000E030460746DA
:10483000022049490880A820FEF724FF002404E054
:10484000285DFEF71FFF601CC4B2BC42F8DB0220EB
:104850004149891E0880BDE8F08170B504460D46C7
:10486000052D01DD052000E028460646324621469A
:104870001020FFF7E6FE70BD2DE9F04104460E461C
:104880001546052D01DD052000E028460746052CCC
:1048900001DD052000E02046804608F10A01C8B28B
:1048A0003A463146FFF7CDFEBDE8F08170B50546CA
:1048B0000620FFF787FE044624F0280415B944F0CB
:1048C000200408E0012D02D124F0280403E0022D89
:1048D00001D144F0080421460620FFF7A0FE70BD78
:1048E00070B505460620FFF76DFE20F0070435B1D0
:1048F000012D06D0022D07D0032D0BD107E000BFFC
:1049000009E044F0020406E044F0040403E044F04B
:10491000060400E000BF00BF21460620FFF77FFE2F
:1049200070BD10B5044604F07F010520FFF777FE47
:1049300010BD70B504460020FFF744FE054614B9CB
:1049400025F0010503E0012C01D145F001052946C0
:104950000020FFF764FE70BD1A0C024070B50446DB
:10496000FF20207001206070F848007800F00F00F0
:10497000A070FEF744FE0546FEF72AFE064671B615
:10498000F24880F82D5180F82C6190F82D01FF2815
:1049900003D1FE20ED4981F82D01EC4890F82D015E
:1049A000E070EA4890F82C01FF2803D1FE20E74987
:1049B00081F82C01E54890F82C012071E34890F82B
:1049C0002D0100EE100AB8EE400ADFEDE10A20EEFC
:1049D000200ADE4880ED4D0A90F82C0100EE100A06
:1049E000B8EE400ADFEDDB0A20EE200AD74880ED62
:1049F0004C0A61B60020D84908600FE0D748D64974
:104A00000968405CFF2804D1FE20D449D24A1268CC
:104A10008854D1480068401CCF490860CE480068DF
:104A20001228EBDBCD4800786071CC484078A0714B
:104A3000CA488078E071C948C0782072C7480079B8
:104A40006072C6484079A072C4488079E072C34859
:104A5000C0792073C148007A6073C048407AA0735F
:104A6000BE48807AE073BD48C07A2074BB48007BA2
:104A70006074BA48407BA074B848807BE074B74843
:104A8000C07B2075B548007C6075B448407CA0753B
:104A90000120B3490870002070BD10B50446FEF730
:104AA00096FCB0490860B0480078022805D1012082
:104AB000AE4908600020AC490870AB480078012876
:104AC00004D1AB4908600020A7490870A5480068D8
:104AD00060BBA648006801280ED1A64908600020E6
:104AE000A2490860A4490860A4480068401CA34982
:104AF000086001209A4908709D48006801280ED17D
:104B00009F49086000209A4908609B4908609B48BB
:104B10000068401C9949086001209149087000F024
:104B2000E5FC38B902209749088003E00220954946
:104B3000891E088090480068052823DB8D4800689E
:104B4000012802D100208B4908608D4800680128A7
:104B500002D100208A4908608B48006881490968B1
:104B600088420BD001208449086084480068401CBA
:104B70008249086001207A4908700BE000207849DA
:104B8000087007E07C480068401C7B4908600120F1
:104B900073490870794800687F2802D1002077495E
:104BA0000860FF202070022060706848007800F0E4
:104BB0000F00A0706B48007880016E49097800EB07
:104BC00041106F49097800EB0110E0706B480078E4
:104BD0002071694800786071624800686A4908601D
:104BE000002010BD08B50246507800909DF80000E6
:104BF00000F0F00000909DF80000001100909DF87A
:104C0000000010B1072804D101E0002008BD0720F2
:104C1000FCE74FF0FF30F9E72DE9F05F04460D4661
:104C20000027002604B11DB94FF0FF30BDE8F09F0A
:104C30004648006808280CDD687800F00F004349FA
:104C40000978093901228A40104068B94FF0FF30D5
:104C5000ECE7A8783D490978491E01228A401040B6
:104C600010B94FF0FF30E1E74FF4FA7001F0F2F9BC
:104C7000464A03C24FF0000834480068092812DA97
:104C800000260AE0A9780120B040014019B108F1DE
:104C9000010000F0FF08701CC6B22C480068401EDE
:104CA000B042EFDC22E000260AE0A8780121B14002
:104CB000084018B108F1010000F0FF08701CC6B2EE
:104CC000082EF2DB00260CE0687800F00F000121CE
:104CD000B140084018B108F1010000F0FF08701C55
:104CE000C6B21A4800680938B042EDDC08EB48004B
:104CF000032101EB4000C6B2144800682060AF5D9C
:104D0000C7F30110606007F0800010B16068404296
:104D100000E060686060B8F1000F06D0B8F1010FE4
:104D200005D0B8F1020F06D103E02F7A04E0AF7B83
:104D300002E02F7D00E000BF00BFA85DC0F380103F
:104D400040B37F2F24DB9620E06029E0C0060020DE
:104D50006666CA3DEB6A243F98000020FC040020F0
:104D60008C000020A000002000000020A4000020F3
:104D7000A8000020AC000020B8000020B4000020F3
:104D8000B00000201A0802409C000020E80000202B
:104D9000E76005E07F2F02DB9620A06000E0A760BF
:104DA000B01C2F5C07F0F0002061701C15F800901B
:104DB00009F01F004FF6FF7101EA0019206948440D
:104DC0002061701C2F5C07F0200010B12069404268
:104DD00000E020692061F01C2F5C07F0FC0060619E
:104DE000B01C15F800A00AF007004FF6FF7101EAA9
:104DF000801A606950446061B01C2F5C07F00800A5
:104E000010B16069404200E060696061301D2F5C54
:104E1000A761F01C15F800B00BF001004FF6FF7110
:104E200001EA002BA0695844A061F01C2F5C07F038
:104E3000020010B1A069404200E0A069A06100201A
:104E4000F4E6000001460022002000BF04E08B5C75
:104E50000344D8B2531CDAB2202AF8D391F8203098
:104E60000344D8B2704710B50446222120460AF008
:104E7000FCFA5A20207000206070A070E070207151
:104E80006071A071E07120726072A072E072207394
:104E9000032060731220A0739620E073002020741A
:104EA0005A2084F820002046FFF7CCFF84F8210028
:104EB00010BD10B50446222120460AF0D6FA5A2029
:104EC000207000206070A070E07020716071A0718F
:104ED000E07120726072A072E07220730320607330
:104EE0001220A0739620E073012020745A2084F8C9
:104EF00020002046FFF7A6FF84F8210010BD70B502
:104F00000546222128460AF0B0FA2222002128462E
:104F1000FDF763FD2846FFF795FF064628785A28D7
:104F200023D195F820005A2803D195F82100B042EA
:104F300023D01B48007820F008000830184908707A
:104F4000022018490880002400E0641C16488442AE
:104F5000FBDB02201349891C0880002400E0641C4C
:104F600011488442FBDB002070BD2846FFF77BFF21
:104F7000222200212846FDF7BFFC0120F4E700B5FE
:104F800089B0242168460AF092FA6846FFF791FF3B
:104F9000222200216846FDF7AFFC002009B000BDC9
:104FA000380000201808024080969800014601EE63
:104FB000901AB8EEE12ADFEDB42AC2EE221ADFED34
:104FC000B32A80EE222ADFEDB22A42EE221AB0EE98
:104FD000611AB048006846F2A812B0FBF2F001EE88
:104FE000900AF8EE611A61EE811A81EEA02AFDEEB8
:104FF000C21A11EE900A70479FEDA70A80ED080AC9
:105000009FEDA50A80ED090A9FEDA30A80ED0A0A2B
:105010000021C162704700B50246F0EE401AC2EDB1
:10502000001AC2ED010A82ED021A31EEA00A30EE3A
:10503000010A82ED030AB0EE002AB0EE610A02EE28
:10504000010A82ED040A82ED051A0020D06291481F
:10505000006846F2A811B0FBF1F090619FED8F0A55
:1050600082ED070A1046FFF7C7FF00BDC162704717
:105070008161704780ED070A70472DE9F0412DED01
:10508000028B04460E46B0EE408A0027002594EDC0
:10509000090A84ED0A0A94ED080A84ED090AE06A17
:1050A000801B00EE100AB8EEC00A84ED080A94EDE9
:1050B000030AD4ED080A20EE200AD4ED040A94ED88
:1050C000091A00EEC10AD4ED050A94ED0A1A00EEA1
:1050D000810ABDEEC00A10EE108A206B40442063A6
:1050E000206BA169884202DDA069206307E0206B84
:1050F000A1694942884202DAA069404220633046F1
:10510000FEF7FCF90746002F00DA7F42D4ED070ACC
:10511000B0EE600AF0EE480A3846FFF747FF054652
:10512000206BA84201DD256305E0206B69428842BF
:1051300001DA68422063206BBDEC028BBDE8F08190
:1051400080ED000AC0ED010A80ED021A70EE201A0F
:1051500071EE811AC0ED031AB0EE002AF0EE401A8B
:1051600042EE011AC0ED041A80ED051A9621816104
:10517000DFED491AC0ED071ADFED471AC0ED081A36
:10518000DFED451AC0ED091ADFED431AC0ED0A1A2A
:10519000DFED411AC0ED0B1ADFED3F1AC0ED0C1A1E
:1051A00070470146D1ED080AC1ED090AD1ED070AA1
:1051B000C1ED080AD1ED0A0A91ED0B1A70EEC10A91
:1051C000C1ED070AD1ED030A91ED071A60EE810ADD
:1051D00091ED041AD1ED081A41EE610A91ED051A1C
:1051E000D1ED091A41EE210AB0EE600AD1ED0C0AA8
:1051F00070EE800AC1ED0C0A91ED0C1AD1ED060A91
:10520000F8EEE00AB4EEE01AF1EE10FA06DDD1EDA8
:10521000060AF8EEE00AC1ED0C0A14E091ED0C1A52
:105220008869404200EE900AF8EEE00AB4EEE01A17
:10523000F1EE10FA07D28869404200EE900AF8EECB
:10524000E00AC1ED0C0AD1ED0C0AFDEEE00A10EE09
:10525000900A70470146086B704780ED000AC0ED68
:10526000010A80ED021A70EE201A71EE811AC0ED6B
:10527000031AB0EE002AF0EE401A42EE011AC0ED19
:10528000041A80ED051A70470000BB430000CC41B2
:105290009A99993F1C0100200000000000002F4354
:1052A00010B52DED068B90B0FE4AD2E901311068A1
:1052B000D268CDE901310392009007A8FFF71FFEE5
:1052C0009DF82900F84908609DF82A00F749086010
:1052D0009DF82C00F64908709DF82B00962804DCF8
:1052E0009DF82B00F349086002E09620F149086020
:1052F00006AA04A905A8FEF7DEF942F2A001EE48CD
:105300000AF0D5F89DF81000EB4908609DF81400EC
:1053100088719DF8180000F0070008719DF81800CA
:1053200000F0070006909DF81800022802D1012025
:10533000487105E09DF8180010B90020DE49487159
:1053400000240DE0DC49083101EB84109FEDDB1AED
:10535000DFEDDB0A9FEDDB0AFFF75DFE601CC4B2E8
:10536000042CEFDB9FEDD51ADFEDD70A9FEDD70AAE
:10537000D748FFF7E5FE0020CF49A1F80801CA4849
:1053800090ED000AB8EEC00AC848D0ED000AF8EE69
:10539000E00A9FEDD01A00EE810ADFEDCF0A60EE41
:1053A000200AB0EE001A80EE810A9FEDCC1AC0EE02
:1053B000010A9FEDCB0A80EE801A084680ED431A61
:1053C00000243FE0684600EB840090ED000A9FED6A
:1053D000C51AC0EE010A9FEDC10A20EE808A18EEC0
:1053E000100A0CF00FF941EC1A0BB0EE4A0AF0EE7D
:1053F0006A0A0AF01DFFB0EE409AF0EE609A51EC96
:10540000190B0BF0D3FB0146B74840F8241018EEF7
:10541000100A0CF0F7F841EC1A0BB0EE4A0AF0EE65
:105420006A0A0AF0A1FEB0EE409AF0EE609A51ECE2
:10543000190B0BF0BBFB0146AB48103040F82410B1
:10544000601CC4B2022CBDDB02243FE0684600EBC6
:10545000840090ED000ADFEDA30A80EE201A9FED94
:105460009F0A21EE000AB0EE408A18EE100A0CF0F6
:10547000C9F841EC1A0BB0EE4A0AF0EE6A0A0AF0DB
:10548000D7FEB0EE409AF0EE609A51EC190B0BF09B
:105490008DFB954941F8240018EE100A0CF0B2F883
:1054A00041EC1A0BB0EE4A0AF0EE6A0A0AF05CFE12
:1054B000B0EE409AF0EE609A51EC190B0BF076FBCF
:1054C0008949103141F82400601CC4B2042CBDDBB2
:1054D00040F235118548A0F89810FAF74CFFFEF716
:1054E00001F8002010B0BDEC068B10BD70B5FEF7C2
:1054F0006FF8044671B600EE104AB8EE400ADFEDD0
:105500007C0A20EE200A6C4880ED4C0A80F82C4181
:1055100061B6FEF757F9C5B28DB176480078052817
:1055200005DA74480078401C7249087011E00520C3
:1055300070490870022070490880284670BD00201C
:105540006C4908706D48007818B902206A49891CB6
:1055500008800020F2E710B569480078401C6849CF
:10556000087008460078022804DBFEF7DFFB002005
:10557000634908706348007820B163480078401C94
:105580006149087010BD4FF00108B8F1000F19D043
:10559000002549480079042802DC47480079451C69
:1055A0000DE0022054490880C82000F007FD0220C9
:1055B0005149891C0880C82000F000FD6D1E002D97
:1055C000EFD100BF4FF47A7000F044FD4F4A03C2A0
:1055D0004FF47A7000F03EFD4D4A03C24FF4FA706A
:1055E00000F038FD4B4A03C2012000F033FD4A4A67
:1055F00003C242F2107000F02DFD484A03C20F2092
:1056000000F028FD464A03C2192000F023FD454A58
:1056100003C2FEF7EBFB69E33C4903C900F022FD3E
:1056200078B34FF47A7000F015FD384A03C2FFF7E3
:105630005DFF02281CD13C480068401C3A490860C4
:105640000846006841F2883188421ADB0020FAF7E8
:10565000D4FE002211461046FAF742FF0021084608
:10566000FBF78CF800210846FBF7A7F800BFFEE720
:105670002D480068002804DD2B480068401E2A4998
:105680000860234903C900F0EDFC28B14FF47A709B
:1056900000F0E0FC1E4A03C20748007905287DD2CD
:1056A00044E00000441A0108C0000020C4000020AB
:1056B00047000020C8000020C006002000000000B5
:1056C0005C8F423D48E13A3E1F856B3DCDCC4C3E60
:1056D0008C0600200AD7233C00008045DB0F4940A0
:1056E0004260E53C00003443F8070020C02600205B
:1056F000EB6A243FD600002018080240D4000020A6
:10570000D7000020CE000020CF000020D8000020CD
:10571000E0000020E800002008010020F000002048
:10572000F800002000010020D0000020DFE800F099
:10573000165C0391FE00FB480068401CF9490860B4
:105740004FF48060F84908801F2364220021084636
:10575000FDF727FD0120F549087000BFF1480068FA
:10576000012803D10020EF49086004E04FF4806075
:10577000ED49891C0880FBF745FAED4903C900F0A3
:1057800071FC10B30120EB4908700020FAF735FED8
:10579000002211461046FAF7A3FE00E094E2002131
:1057A0000846FAF7EBFF00210846FBF706F8FEF77C
:1057B000A7FE4FF4FA7000F04DFCDD4A03C242F23E
:1057C000107000F047FCDC4A03C2DA48007850B1A0
:1057D000DA480078032806DBFEF792FE0020D7495E
:1057E0000870D449087070E24FF48060CE49088098
:1057F0001F23002264211046FDF7D3FCD049D14875
:1058000004F0BBFAD048C07C012805D10020CE4965
:10581000C8740846FBF744FACC4903C900F022FCDF
:10582000B0B1CB48007801280DD1CA49CA48FEF76B
:10583000C4FBC84890ED050AB1EE400AC74880EDA8
:105840000B0AFFF7AEFC0F2000F004FCBF4A03C2B6
:105850003BE24FF48060B44908801F236422114664
:105860001046FDF79EFC1F23642211461046FDF7EB
:1058700098FCFDF7ACFD01287ED1B9480068401CBA
:10588000B74908604FF48070B64908834FF4FA6056
:1058900000F094FB4FF48070B2494883FAF710FD92
:1058A0000120FAF7AAFD4FF4FA6000F087FB002010
:1058B000FAF7A3FD4FF4FA7000F080FB0A210020F4
:1058C000FAF71CFD40F6C41000F078FB0A21012015
:1058D000FAF714FD4FF4FA6000F070FBA04800687E
:1058E000012869D1642200210846FAF764FE4FF4CA
:1058F000FA6000F063FB002211461046FAF75BFEE7
:105900006FF0630200210846FAF755FE4FF4FA6083
:1059100000F054FB002211461046FAF74CFE4FF4FB
:105920007A7000F04BFB0022114600E045E0642055
:10593000FAF741FE4FF4FA6000F040FB00221146F6
:105940001046FAF738FE002211466FF06300FAF7AE
:1059500032FE4FF4FA6000F031FB0022114610468F
:10596000FAF729FE4FF47A7000F028FB0022642138
:105970001046FAF720FE00E01EE04FF4FA6000F057
:105980001DFB002211461046FAF715FE00226FF0AB
:1059900063011046FAF70FFE4FF4FA6000F00EFBB9
:1059A000002211461046FAF706FE4FF47A7000F016
:1059B00005FB00206A49086087E14FF480605A497E
:1059C00008801F23002264210846FDF7EAFB664891
:1059D000007801287ED10024002664480078092838
:1059E00079D2DFE800F078052D555685D3ECFC0020
:1059F000002405E05D49601C085C5D490855641C95
:105A00000A2CF7DB5A48FCF719F80646012E05D197
:105A100001215848584A1268815404E00020554931
:105A2000554A1268885454480068401C524908601E
:105A300008460068B0F5006F01D1002008603DE124
:105A4000002405E04949601C085C4C490855641C69
:105A5000062CF7DB4948FCF796F80646012E05D1DF
:105A600001214448444A1268815404E0002141481D
:105A7000414A1268815440480068401C3E49086011
:105A800008460068B0F5006F01D10020086015E1FC
:105A900014E13B48B0F89800000A3649364A1268CB
:105AA000885435480068401C33490860344890F8F1
:105AB00098103048304A126881542F480068401CC2
:105AC0002D4908602F4800782A492B4A12688854CB
:105AD000294801E0F7E0F0E00068401C2649086032
