:020000040800F2
:1000000038520020856B0008F55C0008F75C00089A
:10001000FB5C0008FF5C0008035D000800000000B6
:10002000000000000000000000000000075D000864
:10003000095D0008000000000B5D0008A35C0008DB
:100040009F6B00089F6B00089F6B00089F6B000868
:100050009F6B00089F6B0008EB0800089F6B00086F
:100060009F6B00089F6B00089F6B00089F6B000848
:100070009F6B00089F6B00089F6B00089F6B000838
:100080009F6B00089F6B00089F6B00089F6B000828
:100090009F6B00089F6B00089F6B00089F6B000818
:1000A0009F6B00089F6B00089F6B00089F6B000808
:1000B0009F6B00089F6B00089F6B00089F6B0008F8
:1000C0009F6B00089F6B00089F6B00089F6B0008E8
:1000D0009F6B00089F6B00089F6B0008456200083B
:1000E0009F6B00089F6B00089F6B0008B5640008B9
:1000F0009F6B00089F6B00089F6B00089F6B0008B8
:100100009F6B00089F6B00089F6B00089F6B0008A7
:100110009F6B00089F6B00089F6B00089F6B000897
:100120009F6B00089F6B00089F6B00089F6B000887
:100130009F6B00089F6B00089F6B00089F6B000877
:100140009F6B00089F6B00089F6B00080D5D000807
:100150009F6B00089F6B00089F6B00089F6B000857
:100160009F6B00089F6B00089F6B00089F6B000847
:100170009F6B00089F6B00089F6B00089F6B000837
:100180009F6B00089F6B000800F002F800F06DF80C
:100190000AA090E8000C82448344AAF10107DA45E2
:1001A00001D100F062F8AFF2090EBAE80F0013F0C7
:1001B000010F18BFFB1A43F001031847E41B0100AD
:1001C000041C01000A444FF0000C10F8013B13F02E
:1001D000070408BF10F8014B1D1108BF10F8015BA0
:1001E000641E05D010F8016B641E01F8016BF9D193
:1001F00013F0080F1EBF10F8014BAD1C0C1B09D1EA
:100200006D1E58BF01F801CBFAD505E014F8016B5B
:1002100001F8016B6D1EF9D59142D6D370470000ED
:100220000023002400250026103A28BF78C1FBD8FF
:10023000520728BF30C148BF0B60704778290EF0C5
:10024000B58673290FF0A181002070471FB511F00A
:10025000FAF90FF0E3FB04000020002110F034FC59
:10026000401C60601FBD10B510BD0FF0A3FB114610
:10027000FFF7ECFF02F0BCFE0FF0CAFB03B4FFF780
:10028000F2FF03BC0FF00EFC002115E0FE4800EB6E
:10029000C1004068002809DDFB4800EBC100406850
:1002A000401EF94A02EBC102506004E00020F64A09
:1002B00002EBC1025060491C0229E7DB00207047B5
:1002C000002105E00020F04A02EBC1025060491C09
:1002D0000229F7DB0020704710B502F0EEFE02F0B5
:1002E000F7FE002406E00020E74901EBC401486066
:1002F000601CC4B2022CF6DB002010BD70B50446B1
:100300000D46002D01DC002070BDDF4800EBC4006D
:10031000406810B14FF0FF30F6E70020DB49C1F82C
:100320001C010846D0F81C0118BB15B3D64840F88C
:1003300034504FF4FA60D44901EBC401486014B161
:10034000012C0ED106E0284602F0CDFE0220D04955
:1003500008700DE0284602F0E2FE0120CC4908704A
:1003600006E002F0B5FE02F0A8FE4FF0FF30CBE74A
:1003700000BF0020C8E710B5FFF7AEFF002010BD9A
:1003800010B50024C348007800B92AE0BF48D0F86F
:10039000100100280BDDBD48D0F810110020FFF738
:1003A000ADFF0020B949C1F81001012403E000208D
:1003B000B649C1F81001B548D0F8140100280BDD8A
:1003C0002CB9B248D0F814110120FFF797FF002094
:1003D000AE49C1F8140103E00020AC49C1F8140192
:1003E00000BF0020AB490870062001218140AA4AC5
:1003F000430942F8231000BF10BD2DE9F0412DED57
:10040000048B05460026002D02DA6C42012601E02D
:100410002C46002624B900209C49A1F8080154E08C
:10042000012C18D19D48006846F2A811B0FBF1F7E5
:10043000384610F01DFE41EC190B9FED990B53EC63
:10044000102B10F065FE41EC180B10F0CDFD8F491C
:10045000A1F8080139E0022C18D19048006846F252
:10046000A811B0FBF1F7384610F002FE41EC190B71
:100470009FED8D0B53EC102B10F04AFE41EC180B46
:1004800010F0B2FD8149A1F808011EE0032C18D13B
:100490008248006846F2A811B0FBF1F7384610F028
:1004A000E7FD41EC190B9FED820B53EC102B10F084
:1004B0002FFE41EC180B10F097FD7449A1F80801CC
:1004C00003E000207149A1F808017049B1F8080162
:1004D000314602F0BEFE0020BDEC048BBDE8F08189
:1004E0002DE9F0412DED048B05460E4617460024FC
:1004F00000EE105AB8EEC00ADFED6F0A80EE201A47
:10050000B0EE418A00EE106AB8EEC00ADFED6A0A6A
:1005100080EE201AF0EE418A00EE107AB8EEC00AA2
:10052000DFED660A20EE200ADFED650A20EE200AE4
:10053000B0EE409A00BF26E0624800EB840090EDE8
:10054000000A20EE080A5F48103000EB8400D0ED6E
:10055000000A00EEA80A30EE090A4C48083000EB09
:10056000841080ED0D0A4948083000EB8410D0ED6E
:100570000D0AB0EE600A02F024FF4449083101EB95
:1005800084118863641C042CD6DB71B600240AE055
:100590003E48083000EB8410816B3C48083000EB8B
:1005A0008410C162641C042CF2DB61B60020BDEC37
:1005B000048BBDE8F08170B52DED0A8B82B0044646
:1005C0000D4616469FED400AB0EE409A9FED3E0A5A
:1005D000F0EE408A9FED3C0AB0EE408A9FED3A0A69
:1005E000F0EE409A9FED380AB0EE40AA00EE104AB5
:1005F000B8EEC00A3548D0ED000A30EE600AB0EE21
:10060000409A00EE105AB8EEC00A3148D0ED000A08
:1006100030EE600AF0EE408A29EE090A08EEA80AD8
:10062000B0EE408AB0EE480AB5EEC00AF1EE10FA1C
:1006300004DDF1EEC00ACDED010A04E0DFED220A8F
:10064000CDED010A00BF9DED010ADFED220A30EE7B
:10065000200AB0EE408A89EE080AF0EE409A88EE51
:10066000880AB0EE40AAB3EE040AB4EEC08AF1EEF6
:1006700010FA6BDDB3EE040AB0EE408A28EE290AC8
:10068000B0EE409A28E0000080030020A806002079
:10069000000000200200002080E100E02C0100208A
:1006A000333333333333D33F9A9999999999D93F57
:1006B000000000000000E03F0000C842CDCCCC3C70
:1006C0009EEFA73DE007002000000000040000208E
:1006D000080000206F12833A28EE0A0AF0EE408AE2
:1006E000884890ED000A30EE090A10EE101A08460C
:1006F00010F038FF41EC1C0BB0EE4C0AF0EE6C0A27
:100700000FF056FCB0EE40BAF0EE60BA51EC1B0BA5
:1007100010F03AFC04467C4890ED000A30EE280ABE
:1007200010EE101A084610F01DFF41EC1C0BB0EE45
:100730004C0AF0EE6C0A0FF03BFCB0EE40BAF0EE63
:1007400060BA51EC1B0B10F01FFC054632462946DF
:100750002046FFF7C5FE00EE104AB8EEC00A694811
:1007600080ED000A00EE105AB8EEC00A664880ED2F
:10077000000A002002B0BDEC0A8B70BD70B50446C3
:100780000D466248C0F810418CB1012006F0BCFC57
:10079000062000F0AEF802F06EFD012804D12146DB
:1007A0000020FFF7ABFD06E002F06EFD03E015B997
:1007B0000CB902F077FD002070BD70B505460C46FF
:1007C0005248C0F8144184B1012006F09DFC062077
:1007D00000F08FF802F04FFD012803D12146FFF70A
:1007E0008DFD06E002F050FD03E014B90DB902F0F2
:1007F00059FD002070BD10B5044645480068401CF6
:1008000043490860084600680F2804DA4FF48070F6
:100810004049088303E04FF480703E4948833C48D8
:1008200000681E2802DD0020394908603748007939
:10083000A0B939480078012810D16068FFF7DDFDC4
:10084000D4E90201FFF79AFFD4E90201FFF7B5FFEF
:10085000D4E905122069FFF7AEFE13E02B480079BA
:1008600002280FD16068FFF7C8FDD4E90201FFF745
:1008700085FFD4E90201FFF7A0FFD4E90512206942
:10088000FFF799FE002010BD10B50446234800680C
:10089000401C22490860084600680F2804DA4FF41B
:1008A00080701C49088303E04FF480701949488325
:1008B0001A4800681E2802DD002018490860134805
:1008C000007901280FD16068FFF797FDD4E9020194
:1008D000FFF754FFD4E90201FFF76FFFD4E90512D7
:1008E0002069FFF768FE002010BD10B5FFF748FD36
:1008F00010BD00F01F0201219140094A430942F84E
:10090000231070470400002008000020A8060020E3
:100910000C00002000000240A40000201000002075
:1009200080E200E010B54FF48070F949C860002102
:10093000F7480161F748F6494860F7488860F7488A
:1009400008600020C1F8140103F0D8FC03F02CFD6E
:1009500003F01FFD002010BD70B51921EC480161A6
:10096000EF48007800287DD1EE48C078C0F3C00081
:1009700050B9EC48C079C0F3C00028B9E948C07A42
:10098000C0F3C00000286ED000250020E6490870A2
:10099000E648006808280CDDE248407800F00F00C7
:1009A000E2490978093901228A40104060B96D1E78
:1009B0000AE0DC488078DD490978491E01228A4036
:1009C000104008B94FF0FF35681C002834D00025CE
:1009D000D6480068092810DA002408E0D148807859
:1009E0000121A140084008B1681C05B2641CCF4831
:1009F0000068401EA042F1DC1EE0002408E0C94867
:100A000080780121A140084008B1681C05B2641C2F
:100A1000082CF4DB00240AE0C248407800F00F0004
:100A20000121A140084008B1681C05B2641CBF4800
:100A300000680938A042EFDC681C002857D0A800E5
:100A4000C01CB849085CC0F3C00000284FD0B848AB
:100A500003F0D8FEB4480078012848D1B4480178A2
:100A6000AB4801E043E01FE00175B1484178A84878
:100A70004175AF488178A6488175AD48C178A448D2
:100A8000C175AB480179A2480176A9484179A048CF
:100A9000417613211A300EF098FC9D4881688847F2
:100AA0000120A449087022E0A14803F001FF9E48FC
:100AB000007801281BD1FF2195480175022141755D
:100AC0009B488178924881759948C1789048C17552
:100AD000974801798E480176954841798C4841764E
:100AE00013211A300EF071FC894881688847012073
:100AF00090490870002070BD30B587B004460D469F
:100B00008D48006858B92946204603F076FF84498D
:100B100008700846007810B9012087490860FFF77F
:100B20001BFF8648007818B92146854804F0D0F8A4
:100B30007B48007810B97D48007918B17B4800796E
:100B4000022817D11C2168460EF061FC2A46214676
:100B5000684603F06CFF002808DA7248C069401C40
:100B60007049C8614FF0FF3007B030BD6846FFF7ED
:100B700042FE00BF0020F7E710B503F00EFC00288E
:100B800046D06A48407918BB6148416888470028C8
:100B90003EDD03F005FC5E4800F114010269614886
:100BA0000EF0E1FB5A48007C5E4948760846417EDB
:100BB000FFF7A2FF63480078FE2803DD00206149AB
:100BC000087025E05F480078401C5E4908701FE00F
:100BD0005648407901281BD101F072FA012817D13B
:100BE000594805F0E0FA98B9192257494D480EF0D6
:100BF00075FB19204B4948760846417EFFF77CFF7C
:100C0000002052490870192005F000FA504A03C22A
:100C1000002010BD2DE9F0472DED0C8B84B004466B
:100C200000210291039100200090019080468146AE
:100C300082462778657C032D01DA002505E02846E9
:100C400005EBD0714910C91CCDB2A67C9FED418A3D
:100C5000DFED410A9FED410AB0EE40BA08EE60BAFE
:100C6000DFED3F8ADFED3F0A9FED3C0AF0EE40BA30
:100C700048EEE0BA9FED3CAADFED370A9FED370A58
:100C8000B0EE40DA0AEE60DADFED38AADFED350AC1
:100C90009FED320AF0EE40DA4AEEE0DA9FED329A4A
:100CA000DFED2D0A9FED2D0AB0EE40CA09EE60CAB5
:100CB000DFED2E9ADFED2B0A9FED280AF0EE40CAF9
:100CC00049EEE0CAE078A02807DCE078602804DB81
:100CD000002027494861824601E04FF0010A20794F
:100CE000A02807DC2079602804DB00202049086167
:100CF000814601E04FF001096079A0283ADC607973
:100D0000602837DB00201A4988614FF0010833E082
:100D100058050020E14300081D440008FD4200087A
:100D200018000020900300209C000020A80600204E
:100D30001B000020DE00002024000020E500002031
:100D4000CC03002019000020482900204C0100207D
:100D50001001002092762CC000002043000000000B
:100D6000ABAA2AC00000C04292762C40ABAA2A400F
:100D7000B00300204FF000082079A0280EDB207976
:100D800000EE100AF8EE400AB0EE4B0A08EE200A18
:100D9000BDEEC00A8B4880ED040A10E0207960287F
:100DA0000DDC207900EE100AF8EE400AB0EE6B0A76
:100DB00008EEA00ABDEEC00A824880ED040AE07881
:100DC000A0280EDBE07800EE100AF8EE400AB0EE44
:100DD0004D0A0AEE200ABDEEC00A7A4880ED050AE7
:100DE00010E0E07860280DDCE07800EE100AF8EE04
:100DF000400AB0EE6D0A0AEEA00ABDEEC00A7148C4
:100E000080ED050A6079A0280EDB607900EE100AFB
:100E1000F8EE400AB0EE4C0A09EE200ABDEEC00A18
:100E2000684880ED060A10E0607960280DDC607982
:100E300000EE100AF8EE400AB0EE6C0A09EEA00AC5
:100E4000BDEEC00A5F4880ED060A00BF07F0010052
:100E500088B35D480068401C5B490860084600682C
:100E600001280DD105F0CAF8584A106051607F2D55
:100E700003DB96205349886001E05248856064E0B6
:100E800005F0BCF8CDE902015049DDE902200B680C
:100E90004968D31A60EB010040F6C4120021D21A4F
:100EA00081410CD20020484908607F2D04DB962048
:100EB0004449886002E006E04248856045E0002041
:100EC0004049886041E0C7F3800088B3404800682B
:100ED000401C3F4908600846006801280DD105F014
:100EE0008DF83C4A106051607F2D03DB9620354918
:100EF000C86001E03348C56027E005F07FF8CDE920
:100F000000013449DDE900200B684968D31A60EB21
:100F1000010040F6C4120021D21A81410CD20020F7
:100F20002B4908607F2D04DB96202649C86002E02B
:100F300006E02448C56008E000202249C86004E0BB
:100F4000002020498860C86000BF00BF402E03DA3F
:100F500000201C49486014E0402E05DB802E03DA97
:100F60000120184948600CE0802E05DBC02E03DA12
:100F700002201449486004E0C02E02DB032011491E
:100F80004860B8F1010F11D1B9F1010F02D0BAF1E7
:100F9000010F0BD1012010490870104890ED0C0A88
:100FA000BDEEC00A074880ED060A02E000200A49AB
:100FB00008700448FFF768FC002004B0BDEC0C8BFF
:100FC000BDE8F087B003002028000020300000209A
:100FD0002C000020380000201A000020700600209D
:100FE00030B50446002003E0155C4D5D2554401CDF
:100FF0009842F9DB30BD30B590B00346002008E0E0
:10100000441894FBF2F502FB15441C5D0DF80040FA
:10101000401C9042F4DB002003E01DF800401C540B
:10102000401C9042F9DB10B030BD70B5049C03E069
:1010300011F8015B00F8015B1D00A3F10103F7D17A
:1010400003E012F8015B00F8015B2500A4F1010444
:10105000F7D170BD70B50446002004E00D5C165C4D
:1010600075402554401C9842F8DB70BD2DE9F047CF
:10107000ADF5AB6D81468A46174698463823FE4A41
:1010800039460DF5A460FFF7ABFF002506E00DF52E
:10109000A460405D0DF2045148556D1C1C2DF6DB1B
:1010A000002507E00DF5A46105F11C00085C383946
:1010B00048556D1C1C2DF5DB002524E0EF48415DF3
:1010C0001C220DF20450FFF796FFEC48415D1C22F4
:1010D0000DF59D60FFF78FFF1C2003460DF59D6207
:1010E0000DF2045100900DF59660FFF79EFF05EBA1
:1010F00045016CAA02EB01103023E14A0DF596611F
:10110000FFF76EFF6D1C102DD8DB4023DD4A5146E2
:101110005CA8FFF765FF00240AE05CA8005D54A905
:1011200008555CA904F12000085C4CA90855641C12
:10113000202CF2DB0025AAE03023D34A4CA930A8AA
:10114000FFF74EFFB8F1000F01D0284601E0C5F1CE
:101150000F0000EB40006CA901EB0012302330A916
:1011600024A8FFF777FF002411E000260CE004EB31
:10117000440006EB400024A9085C04EB440118AAD3
:1011800002EB41018855761C062EF0DB641C082C0E
:10119000EBDB002446E004EB440218AB03EB420215
:1011A000527904EB44030DF1600C1CF8133042EA51
:1011B000430004EB440218AB03EB42025278D20026
:1011C00004EB44030CEB43039B7842EA830204EBF9
:1011D00044030CEB4303DB7842EA430204EB440391
:1011E0000CEB43031B7942EA0301002617E0A74AF0
:1011F00002EB841202EB0012525CC6F1030C0123D5
:1012000003FA0CF31A400AB1012200E0002204EBB9
:1012100044030DF1600C0CEB43039A55761C042E2D
:10122000E5DB641C082CB6DB00240FE000260AE096
:1012300004EB440018A901EB4000805D06EB84013B
:1012400010AA5054761C042EF2DB641C082CEDDB33
:1012500020238F4A10A908A8FFF7C2FE202308AA5E
:1012600054A96846FFF7F6FE002404E04CA8005D90
:1012700054A90855641C202CF8DB002404E01DF858
:1012800004004CA90855641C202CF8DB6D1C102DA3
:10129000FFF652AF2020034654AA4CA900903CA868
:1012A000FFF7C3FE40237B4A3CA94846FFF798FE60
:1012B0000DF5AB6DBDE8F08710B503785B100B70D2
:1012C0000378DB075B0E447843EAA4034B70437852
:1012D0009B075B0E847843EAE4038B7083785B079B
:1012E0005B0EC47843EA2413CB70C3781B075B0EF4
:1012F000047943EA64130B710379DB065B0E4479CE
:1013000043EAA4134B7143799B065B0E847943EA4D
:10131000E4138B71837903F07F03CB71002204E027
:101320008B5C5B061B0E8B54521C082AF8DB10BD2D
:10133000027802F0FE02437842EAD3120A70427841
:1013400002F07E025200837842EA93124A70827859
:1013500002F03E029200C37842EA53128A70C278C9
:1013600002F01E02D200037942EA1312CA70027917
:1013700002F00E021201437942EAD3020A71427965
:1013800002F006025201837942EA93024A7182799D
:1013900002F002029201C37942EA53028A71704755
:1013A0002DE9F041B2B005460E461746984669460B
:1013B0003846FFF781FF002436E02046E21704EBB1
:1013C0005272D210B25C2146E31704EB5373DB1068
:1013D000A4EBC303C3F1070C012303FA0CF31A4077
:1013E0000AB1012200E0002212AB1A552046E21792
:1013F00004EB5272D2101DF802202146E31704EBD1
:101400005373DB10A4EBC303C3F1070C012303FAEE
:101410000CF31A400AB1012200E0002202AB1A5577
:10142000002022A90855641C402CC6DB434602AAB2
:1014300012A922A8FFF71AFE002402E00020285576
:10144000641C082CFADB00242CE022A8005D40B3C9
:10145000E21704EB5272D210AA5C2146E31704EBA8
:101460005373DB10A4EBC303C3F1070C012303FA8E
:101470000CF31A4320460FE05A1601089217010890
:1014800092160108C216010802170108A2170108E6
:101490003217010852170108E31704EB5373DB10EE
:1014A000EA54641C402CD0DB32B0BDE8F08170B54A
:1014B0008CB006460C4615460020089009900A900C
:1014C0000B90049005900690079000900190029078
:1014D0000390072D16DD20680890A088ADF8240041
:1014E000A0798DF826000F2D05DAEA1FE11D04A86A
:1014F0000DF0F4FE0FE0D4F807000490D4F80B00D0
:10150000059008E02A46214608A80DF0E7FE24A130
:1015100003C9CDE90401012308AA04A96846FFF71D
:101520003FFF00983060019870600CB070BD70B5DE
:1015300006460D4600240FE02CB92A5D1BA130465B
:101540000DF0D0FC07E02A5D04EB44013144481E55
:1015500018A10DF0C7FC641C082CEDDB70BD30B584
:1015600089B004460D460020079008900DF1230035
:10157000411E821E08ABCDE90232CDE90410001FE6
:10158000411E831E07AACDE900100CA128460DF0CC
:10159000D5FD079820600898606009B030BD000054
:1015A000687A6E6A726F626F74000000253032785C
:1015B000000000002D2530327800000025782D2510
:1015C000782D25782D25782D25782D25782D2578B1
:1015D0002D25780070B505460C46012006F065FC07
:1015E00000BF612006F003FC0028FAD045F25550F8
:1015F00006F048FB284606F048FB204606F048FB6C
:1016000006F049FB06F04CFB70BD10B506F043FB3D
:1016100010BD4FF480700E49488380000D4908804A
:1016200020200B4908830C4908804002891E08804D
:1016300002200A490880C001088080200880042018
:1016400004490880891E088008200880704700002F
:10165000000002401A0C02401A0402401A0802401C
:101660001FB5002102910391009101910124FEA078
:1016700004F006FD04F0C2FC643041F10001CDE944
:10168000000129E0142004F075FCF84804F02FFD57
:10169000A8B9F7480078012805D10020F44908705E
:1016A00004F0010419E004F0A9FCCDE9020101A84D
:1016B0000DC80099891A98410ED200240DE004F05B
:1016C0009DFCCDE90201DDE90231DDE90020D21AFD
:1016D000884101D2002400E0D4E700BF204604B0D6
:1016E00010BD70B58CB000210A910B910891099141
:1016F00000250020059006900790142168460DF003
:1017000086FE0126002404F079FC643041F10001DA
:10171000CDE90801D748006820F07F454E208DF8BC
:1017200014004A208DF815005F208DF81600280D52
:101730008DF81700C5F303408DF81800C5F303308A
:101740008DF81900C5F303208DF81A00C5F30310B6
:101750008DF81B0005F00F008DF81C0003240FE02E
:1017600005A8005D0A2805DA05A8005D303005A946
:10177000085504E005A8005D373005A90855641C2C
:10178000092CEDDBBCA168460DF09CFD05A968465F
:101790000DF098FD684604F073FC2AE0142004F074
:1017A000E9FBB24804F0A3FCB0B9B14800780128C5
:1017B00005D10020AE49087006F001061AE004F0D9
:1017C0001DFCCDE90A01DDE90830DDE90A219A1A9C
:1017D00088410ED200260DE004F010FCCDE90A018C
:1017E000DDE90830DDE90A12591A904101D20026DC
:1017F00000E0D3E700BF142168460DF008FE04F0B6
:10180000FDFB643041F10001CDE908019948806891
:1018100020F07F454E208DF814004A208DF81500E9
:101820005F208DF81600280D8DF81700C5F30340D2
:101830008DF81800C5F303308DF81900C5F30320A7
:101840008DF81A00C5F303108DF81B0005F00F008A
:101850008DF81C0003240FE005A8005D0A2805DAB6
:1018600005A8005D303005A9085504E005A8005D15
:10187000373005A90855641C092CEDDB80A16846AA
:101880000DF020FD05A968460DF01CFD684604F02A
:10189000F7FB2AE0142004F06DFB744804F027FCE9
:1018A000B0B973480078012805D10020704908704C
:1018B00006F001061AE004F0A1FBCDE90A01DDE91A
:1018C0000A32DDE90810C91A90410ED200260DE057
:1018D00004F094FBCDE90A01DDE90830DDE90A21D5
:1018E0009A1A884101D2002600E0D3E700BF3046B3
:1018F0000CB070BD70B58CB0044600210A910B91FC
:101900000891099100260020059006900790142167
:1019100068460DF07CFD012504F070FB643041F158
:101920000001CDE9080120680590606806902089D3
:10193000ADF81C0050A168460DF0C4FC05A968462E
:101940000DF0C0FC684604F09BFB29E0142004F075
:1019500011FB464804F0CBFBB0B94548007801289C
:1019600005D100204249087005F0010519E004F096
:1019700045FBCDE90A01DDE90A32DDE90810C91AA3
:1019800090410DD200250CE004F038FBCDE90A01AE
:1019900009A80DC80899891A984101D2002500E0CC
:1019A000D4E700BF142168460DF031FD04F026FB9A
:1019B000643041F10001CDE90801206805906068BC
:1019C00006902089ADF81C002DA168460DF07AFC28
:1019D00005A968460DF076FC684604F051FB29E045
:1019E000142004F0C7FA214804F081FBB0B9204864
:1019F0000078012805D100201D49087005F0010577
:101A000019E004F0FBFACDE90A01DDE90A31DDE96C
:101A10000820D21A88410DD200250CE004F0EEFA1D
:101A2000CDE90A0109A80BC8089A511A984101D2B8
:101A3000002500E0D4E700BF28460CB070BD70B5AB
:101A40008CB0044600210A910B910891099100265F
:101A5000002006900790142101A80DF0D8FC012564
:101A600004F0CCFA64300FE0415400004829002013
:101A70004B010020DC04002041542B4E414D450019
:101A800041542B4E414D420041F10001CDE9080186
:101A900020680690A088ADF81C00FDA101A80DF0FB
:101AA00011FC06A901A80DF00DFC01A804F0E8FA4C
:101AB00029E0142004F05EFAF74804F018FBA8B9F6
:101AC000F6480078012805D10020F449087005F097
:101AD000010519E004F092FACDE90A0109A80BC842
:101AE000089A511A98410ED200250DE004F086FAAA
:101AF000CDE90A01DDE90A32DDE90810C91A904191
:101B000001D2002500E0D4E700BF142101A80DF0A8
:101B10007EFC04F073FA643041F10001CDE9080164
:101B200020680690A088ADF81C00DDA101A80DF08A
:101B3000C9FB06A901A80DF0C5FB01A804F0A0FA95
:101B400029E0142004F016FAD34804F0D0FAB0B912
:101B5000D2480078012805D10020D049087005F04E
:101B6000010519E004F04AFACDE90A01DDE908307F
:101B7000DDE90A12591A90410DD200250CE004F05B
:101B80003DFACDE90A0109A80DC80899891A9841BA
:101B900001D2002500E0D4E700BF28460CB070BD9C
:101BA00030B58BB004460021089109910691079148
:101BB00000200590142168460DF029FC012504F051
:101BC0001DFA643041F10001CDE9060104F1300055
:101BD000C0B28DF81400B4A168460DF073FB05A9DE
:101BE00068460DF06FFB684604F04AFA2AE01420BC
:101BF00004F0C0F9A84804F07AFAB0B9A748007810
:101C0000012805D10020A549087005F001051AE05A
:101C100004F0F4F9CDE90801DDE90831DDE9062039
:101C2000D21A88410ED200250DE004F0E7F9CDE983
:101C30000801DDE90831DDE90620D21A884101D228
:101C4000002500E0D3E700BF28460BB030BD30B51B
:101C50008BB004460021089109910691079100205C
:101C60000590142168460DF0D2FB012504F0C6F959
:101C7000643041F10001CDE9060104F13000C0B249
:101C80008DF814008AA168460DF01CFB05A9684672
:101C90000DF018FB684604F0F3F92AE0142004F074
:101CA00069F97D4804F023FAB0B97C48007801282E
:101CB00005D100207949087005F001051AE004F00B
:101CC0009DF9CDE90801DDE90831DDE90620D21AE8
:101CD00088410ED200250DE004F090F9CDE908010D
:101CE000DDE90831DDE90620D21A884101D200255C
:101CF00000E0D3E700BF28460BB030BD30B58BB055
:101D00000446002108910991069107910020059051
:101D1000142168460DF07BFB012504F06FF9643057
:101D200041F10001CDE9060104F13000C0B28DF8A7
:101D3000140061A168460DF0C5FA05A968460DF0CA
:101D4000C1FA684604F09CF92AE0142004F012F964
:101D5000514804F0CCF9B0B950480078012805D1B9
:101D600000204E49087005F001051AE004F046F91C
:101D7000CDE90801DDE90831DDE90620D21A884104
:101D80000ED200250DE004F039F9CDE90801DDE9B6
:101D90000831DDE90620D21A884101D2002500E091
:101DA000D3E700BF28460BB030BD30B58BB004463A
:101DB00000210891099106910791002005901421B6
:101DC00068460DF024FB012504F018F9643041F158
:101DD0000001CDE9060104F13000C0B28DF8140015
:101DE00037A168460DF06EFA05A968460DF06AFA4B
:101DF000684604F045F92AE0142004F0BBF82648B0
:101E000004F075F9B0B925480078012805D1002003
:101E10002249087005F001051AE004F0EFF8CDE959
:101E20000801DDE90831DDE90620D21A88410ED229
:101E300000250DE004F0E2F8CDE90801DDE9083104
:101E4000DDE90620D21A884101D2002500E0D3E75F
:101E500000BF28460BB030BD30B58BB00446002122
:101E60000891099106910791002005901421684678
:101E70000DF0CDFA012504F0C1F8643041F1000104
:101E8000CDE9060104F13000C0B28DF814001BE06A
:101E900041542B50494E4500482900204B01002059
:101EA00041542B50494E420041542B42415544006D
:101EB00041542B50494F310041542B4455414C0063
:101EC00041542B4849474800B0A168460DF0FAF943
:101ED00005A968460DF0F6F9684604F0D1F82AE045
:101EE000142004F047F8AB4804F001F9B0B9AA484F
:101EF0000078012805D10020A749087005F00105E8
:101F00001AE004F07BF8CDE90801DDE90630DDE9EF
:101F10000812591A90410ED200250DE004F06EF817
:101F2000CDE90801DDE90831DDE90620D21A884152
:101F300001D2002500E0D3E700BF142168460DF070
:101F400066FA04F05BF8643041F10001CDE9060166
:101F500004F13000C0B28DF8140090A168460DF075
:101F6000B1F905A968460DF0ADF9684604F088F8A6
:101F700029E0142003F0FEFF864804F0B8F8A8B961
:101F800085480078012805D100208349087005F0B4
:101F9000010519E004F032F8CDE9080107A80DC8E1
:101FA0000699891A98410ED200250DE004F026F812
:101FB000CDE90801DDE90831DDE90620D21A8841C2
:101FC00001D2002500E0D4E700BF28460BB030BDA9
:101FD00030B58BB004460021089109910691079114
:101FE00000200590142168460DF011FA012504F037
:101FF00005F8643041F10001CDE9060104F130003B
:10200000C0B28DF8140067A168460DF05BF905A910
:1020100068460DF057F9684604F032F82AE01420BB
:1020200003F0A8FF5B4804F062F8B0B95A480078A2
:10203000012805D100205849087005F001051AE073
:1020400003F0DCFFCDE90801DDE90831DDE9062018
:10205000D21A88410ED200250DE003F0CFFFCDE962
:102060000801DDE90831DDE90620D21A884101D2F4
:10207000002500E0D3E700BF28460BB030BD10B507
:102080000124FFF7EDFAFFF72CFB04400120FFF7D6
:10209000DEFD04400620FFF783FD04400020FFF72B
:1020A0002DFE04400020FFF780FE04400020FFF7D3
:1020B000D3FE04400120FFF78BFF0440204610BDF3
:1020C00010B50024334804F012F8002852D13248E9
:1020D000007801284ED100202F4908702D48C07883
:1020E00043280BD12B4800794F2807D12948407944
:1020F0004E2803D12748807945280FD02548C0783D
:10210000432811D1234800794F280DD12148407927
:102110004E2809D11F488079422805D10124012089
:1021200022490870204610BD1A48C0784C280BD1AF
:1021300018480079532807D116484079542803D10C
:102140001448807945280FD01248C0784C2811D106
:102150001048007953280DD10E484079542809D1F0
:102160000C488079422805D1002400200F490870CE
:102170002046D8E70D480078012800D1D3E70B4866
:10218000007808B90020CEE72046CCE741542B491F
:102190004D4D4500482900204B01002041542B495A
:1021A0004D4D420041542B4E4F54490047000020F2
:1021B0001CB50121880505F0AEFF4FF4406000908A
:1021C00002208DF805008DF8040000208DF807002E
:1021D00001208DF806006946F84805F07FFA0422D0
:1021E0000A21F64805F005FB04220B21F34805F00F
:1021F00000FB1CBD1FB50020ADF804004FF480604B
:10220000ADF80A000001ADF80C00ED4800906946F9
:10221000EC4805F04CFB0121EA4805F0C4FB012124
:10222000E84805F0ECFB1FBD70B5044600BF4FF455
:102230000031E44805F0DDFC0028F8D10121E14837
:1022400005F0BDFB00BFE049DE4805F0B0FC00280A
:10225000F9D00022D021DB4805F0C9FB00BFDB49E3
:10226000D84805F0A4FC0028F9D02146D54805F04F
:1022700042FC00BFD549891CD24805F098FC0028D3
:10228000F8D00121CF4805F09AFB00BFCE49CD48D8
:1022900005F08DFC0028F9D00122D021C94805F0B5
:1022A000A6FB00BFC849491CC64805F080FC0028B1
:1022B000F8D000BFC4493F31C24805F078FC00287F
:1022C000F8D0C04805F019FC05460021BD4805F0CE
:1022D00096FB0121BB4805F07EFB284670BD10B57A
:1022E0004FF40060B5491A3108800A2003F059FE06
:1022F0004FF48060B149183108800A2003F051FE84
:102300004FF40060AD49183108800A2003F049FEFF
:1023100010BD10B5FFF7E3FF10BD10B54FF400601E
:10232000A649183108800A2003F03BFE4FF4806074
:10233000A249183108800A2003F033FE4FF40060F0
:102340009E491A3108800A2003F02BFE4FF480606A
:102350009A491A3108800A2003F023FE10BD10B5F7
:102360004FF400609549183108800A2003F019FEE7
:102370004FF480609149183108800A2003F011FE63
:102380008E481030006800F400641CB1FFF7A7FF0E
:10239000002010BD4FF4806088491A3108800A205F
:1023A00003F0FFFD0120F4E770B5054671B6002487
:1023B00021E005FA04F000F0800028B14FF400603D
:1023C0007E491831088004E04FF400607B491A31DF
:1023D00008800A2003F0E5FD4FF48060774918314A
:1023E00008800A2003F0DDFD4FF4806073491A3144
:1023F0000880601CC4B2082CDBDB0A2003F0D1FD8E
:10240000FFF7ADFF064661B6304670BD70B50826D1
:10241000002471B64FF400606849183108801FE04D
:102420000A2003F0BEFD4FF4806064491A31088031
:102430000A2003F0B6FD4FF480606049183108802F
:102440000A2003F0AEFD6006040E5C481030006800
:1024500000F400650DB144F001040A2003F0A1FD71
:102460003000A6F10101CEB2DAD14FF480605349B9
:102470001A3108800A2003F094FD61B6204670BD31
:1024800010B504462CB94FF400604C491A3108804D
:1024900004E04FF400604949183108800A2003F035
:1024A00080FD4FF480604549183108800A2003F010
:1024B00078FD4FF4806041491A3108800A2003F00A
:1024C00070FD10BD2DE9F04105460E461746FFF799
:1024D00024FF05F0FE00FFF767FF8046B8F1000F0C
:1024E00002D10020BDE8F08100240AE0305DFFF752
:1024F0005BFF8046B8F1000F01D12046F2E7601C77
:10250000C4B23800A7F10101CFB2EFD1FFF7E7FE67
:102510000A2003F046FD2046E4E72DE9F041074696
:102520000D461646FFF7F9FE47F00100FFF73CFFA6
:102530008046B8F1000F02D10020BDE8F0810024F0
:102540000CE0FFF763FF28550020FFF799FF0A20F2
:1025500003F027FD701EC6B2601CC4B2012EF0DC71
:10256000FFF754FF28550120FFF78AFF0A2003F0E8
:1025700018FDFFF7B4FE0A2003F013FD601CC4B27F
:102580002046DAE770B50446FFF7C7FE04F0FE0008
:10259000FFF70AFF05460DB9002070BDFFF79FFE4B
:1025A0000A2003F0FEFC0120F7E72DE9F05F8046EA
:1025B0000C46154665B9BDE8F09F000000040240D6
:1025C000503403000058004001000300820007005F
:1025D00071B62046E11704EB5171C910A4EBC1019B
:1025E000C1F10801CFB2AF4200D9EFB2002651E0ED
:1025F000FFF793FE2112A02202EB4101C8B2FFF7C0
:10260000D3FEA246E11704EB11610912A4EB0121EC
:10261000C8B2FFF7C9FE05E098F80000FFF7C4FE56
:1026200008F101083800A7F10101CFB2F4D1FFF79A
:1026300056FE4FF0000BD94616E00A2003F0D1FCFD
:1026400009F1010000F0FF09FFF767FE2112A02247
:1026500002EB4101C8B2FFF7A7FE8346FFF73FFE3A
:10266000BBF1000F00DD02E0B9F10A0FE5DB00BFAE
:10267000B9F10A0F01D161B69DE73E44E01984B279
:10268000AE4200D307E0A81B082801D9082701E0C3
:10269000A81BC7B2ACE700BF61B600BF8BE72DE94E
:1026A000F04105460C4617464FF0000871B6FFF79B
:1026B00034FE2112A02202EB4101C8B2FFF774FEE2
:1026C0002646E11704EB11610912A4EB0121C8B2FF
:1026D000FFF76AFEFFF721FE2112A12202EB410162
:1026E000C8B2FFF761FE4FF0000808E0FFF78EFE6A
:1026F00028700020FFF7C4FE6D1C08F10108781E49
:102700004045F3D8FFF782FE28700120FFF7B8FE9E
:10271000FFF7E5FD61B6BDE8F0812DE9F041044623
:102720000E46174671B6FFF7F8FD04F0FE00FFF7FE
:102730003BFE054605B91DE03046FFF735FE054670
:1027400005B917E0FFF7E9FD44F00100FFF72CFEA3
:10275000054605B90EE0FFF759FE38700120FFF776
:102760008FFEFFF7BCFD0A2003F01BFC61B60120C1
:10277000BDE8F081FFF7B3FD0A2003F012FC61B65B
:102780000020F5E7F8B506460C4615468DF80040E2
:102790008DF8015071B6022269463046FFF792FE6D
:1027A000074661B6002F01DD0120F8BD0020FCE7DF
:1027B0002DE9F84F80460C4615460DB9BDE8F88F57
:1027C00071B62046E11704EBD1614911A4EB411128
:1027D000C1F12001CFB2AF4200D9EFB20026BA4614
:1027E00052E0FFF79AFDA020FFF7DEFDA346E117B8
:1027F00004EB1161C1F30720FFF7D6FDE11704EBED
:1028000011610912A4EB0121C8B2FFF7CDFD05E06B
:1028100098F80000FFF7C8FD08F101083800A7F19B
:102820000101CFB2F4D1FFF75AFD0020009081469C
:1028300012E00A2003F0D5FB09F1010000F0FF09C6
:10284000FFF76BFDA020FFF7AFFD0090FFF747FDFE
:102850000098002800DD02E0B9F10A0FE9DB00BFB3
:10286000B9F10A0F01D161B6A8E7564404EB0A009A
:1028700084B2AE4200D308E0A81B202801D920274B
:1028800001E0A81BC7B2BA46ABE700BF61B600BF04
:1028900094E72DE9F04105460C4617464FF0000835
:1028A00071B6FFF73AFDA020FFF77EFD2646E1173F
:1028B00004EB1161C1F30720FFF776FDE11704EB8C
:1028C00011610912A4EB0121C8B2FFF76DFDFFF7FA
:1028D00024FDA120FFF768FD4FF0000808E0FFF796
:1028E00095FD28700020FFF7CBFD6D1C08F1010855
:1028F000781E4045F3D8FFF789FD28700120FFF7C7
:10290000BFFDFFF7ECFC61B6BDE8F08110B5012119
:102910001F2005F0CDFB0121084605F00DFC01212B
:10292000084605F0F8FB0121022005F0F4FB012127
:10293000082005F0F0FB0121042005F0ECFB01214B
:10294000102005F0E8FB0121202005F0E4FB012127
:10295000080405F0F1FB0121480405F0EDFB01211D
:10296000880405F0E9FB0121402005F0D4FB01219A
:10297000C80305F0D0FB0121880405F0CCFB012140
:10298000080205F0D9FB0121880305F0D5FB10BD35
:1029900008B500F093FC4FF4C06005F093F92720D0
:1029A0008DF8000001208DF8010002208DF8020052
:1029B00001208DF80300684605F089F908BD1CB5B3
:1029C0000320009002208DF8040000208DF80600FE
:1029D00002208DF8050000208DF807006946F848B0
:1029E00004F07CFE02220021F54804F002FF0222DE
:1029F0000121F34804F0FDFEC02000906946F04834
:102A000004F06CFE02220621ED4804F0F2FE0222E0
:102A10000721EB4804F0EDFEC02000906946E9482C
:102A200004F05CFE02220621E64804F0E2FE0222E7
:102A30000721E44804F0DDFE4FF4004000906946B1
:102A4000DF4804F04BFE082000906946DD4804F0A2
:102A500045FE01220F21DA4804F0CBFE01220321BA
:102A6000D84804F0C6FE4FF4D44000906946D648DA
:102A700004F034FE01220921D34804F0BAFE0122F9
:102A80000B21D14804F0B5FE01220D21CE4804F0FF
:102A9000B0FE01220E21CC4804F0ABFE4FF40070D2
:102AA00000906946C74804F019FE03220921C54871
:102AB00004F09FFE4FF4807000906946C14804F016
:102AC0000DFE03220821BF4804F093FE0C20009065
:102AD0006946BB4804F002FE03220221B84804F014
:102AE00088FE03221146B64804F083FE03200090BE
:102AF0008DF804006946B34804F0F0FD02208DF81B
:102B000004004FF4E05000906946AD4804F0E6FD43
:102B10000A221146AA4804F06CFE0A220B21A8489A
:102B200004F067FE0A220C21A54804F062FE4FF46F
:102B3000E05000906946A54804F0D0FD06220A2125
:102B4000A24804F056FE06220B21A04804F051FED4
:102B500006220C219D4804F04CFE4FF4D850009002
:102B600069469B4804F0BAFD07220821984804F002
:102B700040FE07220921964804F03BFE07220B2164
:102B8000934804F036FE07220C21914804F031FEF0
:102B90004FF40070009000208DF804008DF80600BE
:102BA00003208DF8050002208DF80700694684484F
:102BB00004F094FD4FF48070009001208DF8040023
:102BC00000208DF8060002208DF8050000208DF809
:102BD000070069467A4804F081FD4FF44060009098
:102BE00001208DF8040002208DF8050001208DF8E9
:102BF000060000208DF807006946724804F06EFD5B
:102C00004FF48040009001208DF8040002208DF8E0
:102C1000050000208DF8060001208DF807006946A8
:102C2000684804F05BFD4EF20120009000208DF812
:102C3000040002208DF8050000208DF806008DF8B4
:102C400007006946614804F049FD4FF4C1700090E7
:102C500001208DF8040002208DF8050000208DF879
:102C600006008DF807006946584804F037FD01203A
:102C7000009000208DF8040002208DF8050000204F
:102C80008DF8060001208DF807006946504804F0D1
:102C900025FD40F20E40009001208DF80400022036
:102CA0008DF8050000208DF806008DF807006946B4
:102CB000474804F013FD40F2FF50009001208DF8CA
:102CC000040002208DF8050000208DF806008DF824
:102CD000070069463C4804F001FD20200090694649
:102CE000374804F0FBFC202000906946354804F08A
:102CF000F5FC1CBD7FB50021364A11605160684665
:102D000005F041F94FF47A720198B0FBF2F1B1F19C
:102D1000807F00D31DE021F07F40401E4FF0E02275
:102D2000506150170F22002807DA13071D0E2A4B97
:102D300000F00F04241F1D5503E013071C0E274B42
:102D40001C5400BF00204FF0E0229061072010616A
:102D500000BF7FBD38B50022214B1B68214C23608A
:102D60001F4B1B1D1B6863601D4B08331B68A36052
:102D7000002022E01B4B13F820308DF80030194B57
:102D800033F820301B0A8DF80130164B53F82030F1
:102D90001B0C8DF80230134B53F820301B0E8DF8AE
:102DA0000330002106E01DF801501346521C0E4C62
:102DB000E554491C0429F6DB401C0328DADB38BD46
:102DC00000000240000402400010024000080240DF
:102DD000000C02404001002018ED00E000E400E09B
:102DE000107AFF1FDC040020E804002010B50C223C
:102DF0006E496F48FEF75BFB10BD10B504F0CEFBCB
:102E000001280CD004F0DCF904F048FB552004F054
:102E100076FB04F0ADFB04F04EFB04F0DEF910BDD0
:102E200010B504F0BBFB01280CD104F0C9F904F083
:102E300035FBAA2004F063FB04F09AFB04F03BFB93
:102E400004F0CBF910BDF8B50026FFF7D6FFFEF76A
:102E5000E0FB03F075F800F07EF900F0A0FE00F052
:102E6000C3F9FFF756FA00F035FB00F054FA00F012
:102E7000D5FA4FF4E13003F0E5F8002500E06D1CD1
:102E80004C488542FBDB00F081FFD8B900204A495D
:102E9000097821F00101491C474A11700221474A73
:102EA000118000BF00E0401C45498842FBDB022145
:102EB000424A921C1180002000E0401C4049884298
:102EC000FBDB00BF61B602F0A1F9FDF72BFDFFF7B8
:102ED00041FFFFF78BFF4FF47A710420FEF77AFB76
:102EE0003848007818BB0024FFF7C9F80646012EC1
:102EF00002D101F0FAFF19E02F48007820F002001B
:102F0000801C2D49087002202C490880002400E014
:102F1000641C2B488442FBDB02202849891C088062
:102F2000002400E0641C26488442FBDB00BF2648E6
:102F30000079012804D0022814D0042825D118E0F3
:102F40000020224908702248224B234A0121009088
:102F5000224806F0B9FCFFF72BF9FFF74BF900F018
:102F600056FF13E0FFF724F9FFF744F900F04FFF95
:102F70000CE001201549087019481A4B1A4A012122
:102F800000901A480AF049FB00E000BF00BFF8BDFE
:102F900010B571B6FFF7BAFCFFF7FAFCFFF70FFDAB
:102FA000FFF7A8FEFFF74FFF002010BDE804002048
:102FB0004E00002080F0FA02400000201808024075
:102FC0008096980057000020A80600205600002098
:102FD000E00100206002002084340020F429002059
:102FE000B80100200C0300207C010020C437002021
:102FF00010B5FFF7CDFF02F07CFA002010BD0000F5
:1030000070B5044600251AE02020F849488304F0F2
:10301000800018B12020F649088003E02020F44900
:10302000891C0880012002F0BCFF2020EF490883A2
:10303000012002F0B6FF6006040E681CC5B2082D20
:10304000E2DB2020E949088370BD2DE9F041074605
:103050000C4615461E460020FFF7D2FF0020FFF762
:10306000CFFF0020FFF7CCFF0020FFF7C9FF06F0DD
:103070001F0040F0E0084046FFF7C2FF2846FFF778
:10308000BFFF2046FFF7BCFF3846FFF7B9FFFF2020
:10309000FFF7B6FFFF20FFF7B3FFFF20FFF7B0FFFA
:1030A000FF20FFF7ADFFBDE8F08110B51F23002220
:1030B00011466420FFF7C9FF10BD10B5002211466C
:1030C000CC4805F019FF0021CA4805F0A7FC10BD47
:1030D00010B500220421C74805F00EFF0021C548A5
:1030E00005F09CFC10BD10B50446962C00D9962422
:1030F000C4F1990404B9012401220021BD4805F05E
:10310000FBFE00220421BB4805F0F6FE2146B9482B
:1031100005F0E9FD0121B74805F080FC10BD10B5B0
:103120000446962C00D99624C4F1990404B90124CC
:1031300001220421AF4805F0DFFE00221146AD4810
:1031400005F0DAFE2146AB4805F0CFFD0121A94884
:1031500005F064FC10BD10B588B0A74800684008B1
:10316000400042F21071B0FBF1F0401E84B2982092
:103170000690ADF814400020ADF81C00ADF8160024
:1031800005A99C4805F0C1FB7020ADF800000120A6
:10319000ADF8020002900020ADF80C006946954899
:1031A00005F081FC7020ADF800000220ADF80C00A5
:1031B0006946904805F03EFC08218E4805F01CFC4D
:1031C00000218C4805F0C3FD00218A4805F0C8FDA8
:1031D00000221146874805F08FFE00220421854811
:1031E00005F08AFE08B010BD30B589B000244FF458
:1031F0008070824908838000488300BF7E48006851
:1032000046F2A811B0FBF1F50795ADF81840002083
:10321000ADF82000ADF81A0006A9794805F075FB55
:103220006020ADF804000120ADF8060000200390F6
:103230000220ADF8100001A9714805F0FBFB002148
:103240006F4805F084FD01216D4805F0E7FB09B0EA
:1032500030BD70B504460D4625B14FF48060674916
:10326000088303E04FF48060644948832146644842
:1032700005F039FD70BD6348006800F0010008B139
:10328000012070470020FCE701205F4908700620FC
:10329000012181404209920002F1E022C2F80011AE
:1032A00000BF7047062001218140584A430942F877
:1032B000231000BF00205449087070470EB500214C
:1032C000022005F03DFA0120019000208DF8080051
:1032D00008208DF8090001208DF80A0001A803F0EC
:1032E000B1FE012003F010FF06208DF8000002203F
:1032F0008DF801008DF8020000208DF8030068466B
:1033000004F0E5FC062001218140414A430942F8CE
:10331000231000BF0EBD30B589B000BF0024364871
:10332000006849F27041B0FBF1F0451E0795ADF819
:1033300018400020ADF82000ADF81A0006A9354865
:1033400005F0E3FA6020ADF804000120ADF80600B6
:103350002948006849F27041B0FBF1F000EB8000B1
:1033600080006421B0FBF1F003900020ADF8100064
:1033700001A9284805F05EFB0021264805F0E7FC7E
:103380000021244805F04AFB09B030BD10B50121E9
:10339000204805F043FB10BD10B500211D4805F085
:1033A0003DFB10BD0146C1EB01108200D01702EBBE
:1033B000105000137047014608033C2290FBF2F0C6
:1033C00070471548D0ED430A60EE800AFDEEE00A32
:1033D00010EE900A70471049D1ED430A00EE100A32
:1033E000B8EEC01A81EE200A7047000000000240CB
:1033F00018040240004001402C010020001002404F
:1034000000480140100802400200002080E100E076
:1034100080E200E000440140A806002000B58BB027
:103420000021E14803F01FFC002001904FF4807060
:103430000490002003904FF48030029001A803F024
:10344000FBFB002005908DF818008DF819000790FF
:10345000099001208DF8280005A9D34803F0BDFB91
:10346000022301220821D04803F03DFC0121CE486F
:1034700003F0F9FB0BB000BD10B5022301220821B7
:10348000C94803F030FCC84803F089FC00BF0221A2
:10349000C54803F0A5FD0028F9D0C348C06C84B22C
:1034A0002411E0B210BD10B5022301220921BE484B
:1034B00003F019FCBC4803F072FC00BF0221BA48BB
:1034C00003F08EFD0028F9D0B748C06C84B22411F7
:1034D000E0B210BD00B585B00420B44908800220D8
:1034E000891E08800020ADF800004FF48270ADF80E
:1034F00002000020ADF80400ADF80600ADF80800A9
:103500004815ADF80A001020ADF80C000020ADF809
:103510000E000720ADF810006946A54804F02CFF06
:103520000121A34805F00BF805B000BD10B5044615
:1035300000BF02219E4805F0BAF80028F9D02146C4
:103540009B4805F07DF800BF0121994805F0AFF8D0
:103550000028F9D0964805F070F8C0B210BD2DE9EA
:10356000F04104460E461746002571B68020914969
:103570000880052002F015FD4FF480708D49088009
:103580008020891E08804FF000081DE06D108948DA
:103590000A38006800F40070B0F5007F01D145F4EE
:1035A00000454FF480708349891E0880012002F095
:1035B000F8FC4FF480707F490880012002F0F1FC94
:1035C00008F1010000F0FF08B8F1100FDEDB61B672
:1035D000680B3870C5F30310207005F00F00401C15
:1035E00030702078102839D2DFE800F0080B0E1177
:1035F00014171A1D202326292C2F32355F20207006
:103600002FE0492020702CE04B20207029E04D2035
:10361000207026E04F20207023E05120207020E011
:10362000552020701DE0592020701AE06520207080
:1036300017E06720207014E05D20207011E0692001
:1036400020700EE06D2020700BE07120207008E0EB
:103650007520207005E07920207002E05D20207048
:1036600000BF00BFBDE8F081002070472DE9F041A8
:103670004FF00008FFF717FF07464F480168006842
:10368000401C4D4A10604D4840F8217010460068BB
:10369000052805D10020114608600120484908701E
:1036A000002500264648007800285AD0012412E060
:1036B000424850F82400414951F82510884200DD65
:1036C00025463E4850F824003C4951F826108842CF
:1036D00000DA2646641C052CEADB384850F8250041
:1036E00038490968384A12681144884204DD35486F
:1036F0000068324941F82500304850F82600314929
:103700000968314A1268891A884204DA2D4800682B
:103710002A4941F82600294800682A4908600124FE
:1037200008E0264850F8240026490968084425493D
:103730000860641C052CF4DB22480068052190FB1E
:10374000F1F0204908600846077800688B2819DAEC
:1037500008460068852801DC4FF002084FF0010898
:1037600010E016490968154A52681144134A9268D4
:103770001144124AD2688818C11700EB9171891060
:10378000104A116071B6114880F82D7100EE107A60
:10379000B8EE400ADFED0E0A20EE200A80ED4D0A59
:1037A00061B64046BDE8F081002001401A0C02409D
:1037B000003C00401A08024058000020F404002099
:1037C000640000205C00002060000020A8060020AB
:1037D0006666CA3D30B587B005460C460020ADF898
:1037E00004004FF6FF7002900020ADF80C00ADF819
:1037F000060001A9284605F088F800231A4603218F
:10380000284605F0F6FD0020ADF81000ADF81200D6
:103810000120ADF814000020ADF81600ADF8180036
:1038200014B9ADF8120002E00220ADF8120004A9AC
:10383000284605F041FC0420ADF810000020ADF84A
:10384000120004A9284605F037FC00206862002118
:10385000284605F0E3F807B030BD0820FE4908808F
:103860000020091D0880FC490C310880FB480068D5
:103870008008FB49B0FBF1F0401EF7492831088071
:103880004FF6FF70091D08600120F34914310880CC
:103890000020F14924310860EF4910310880704759
:1038A00010B5F04908680121FFF794FFED49486819
:1038B0000121FFF78FFFEB4988680121FFF78AFF9D
:1038C000E849C8680121FFF785FFFFF7C6FF10BD73
:1038D0004FF0804000884FF6FE7108404FF0804165
:1038E0000880E14800884FF6FE710840DE490880F4
:1038F000DE4800884FF6FE710840DC490880DC484D
:1039000000884FF6FE710840D949088000204FF02A
:1039100080414862D44924310860D4492431086088
:10392000D34924310860CC4924310860CA49103198
:103930000880C948008840F00100C7490880080590
:10394000008840F0010009050880C748008840F061
:103950000100C5490880C548008840F00100C349FE
:103960000880C348008840F00100C14908807047C2
:1039700070B50546B84800884FF6FE710840B64954
:103980000880080500884FF6FE7108404FF080411E
:103990000880B54800884FF6FE710840B24908809B
:1039A000B24800884FF6FE710840B0490880B04820
:1039B00000884FF6FE710840AD490880A6482430C3
:1039C000006883B20BB94FF6FF7300221AE0A548D6
:1039D00050F82260706A04B200EE903AF8EE600A85
:1039E000DFEDA41A81EEA01A00EE904AF8EEE00A8C
:1039F00021EE200AFDEEC00A10EE900A45F82200E2
:103A0000501CC2B2042AE2DBFFF762FF70BD92488D
:103A100000884FF6FE7108408F490880080500882D
:103A20004FF6FE7108404FF0804108808E480088B4
:103A30004FF6FE7108408C4908808C4800884FF68C
:103A4000FE71084089490880894800884FF6FE7158
:103A5000084087490880704770B505460C4600202D
:103A6000002115B141F0010101E040F0010014B165
:103A700041F0020101E040F0020012B141F0040106
:103A800001E040F0040013B141F0080101E040F012
:103A90000800794E3183708370BD70B505460C46C1
:103AA0000020002115B141F0100100E080B214B1F6
:103AB00041F0200100E080B212B141F0400100E08D
:103AC00080B213B141F0800100E080B26A4E3183D0
:103AD000708370BD10B5694C6063A163E2632364B9
:103AE00010BD30B589B0002400BF5C48006846F2C4
:103AF000A811B0FBF1F50795ADF818400020ADF81E
:103B00002000ADF81A0006A95C4804F0FEFE602013
:103B1000ADF804000120ADF806000020039002205B
:103B2000ADF8100001A9554804F084FF082153485E
:103B300005F00DF90120ADF806000020039001A961
:103B40004E4804F0B0FF08214C4805F009F9012067
:103B5000ADF806000020039001A9484804F0F0FFEA
:103B60000821464805F009F90120ADF806000020BB
:103B7000039001A9414805F049F808213F4805F0A4
:103B800005F901213D4804F02BFF00213B4804F0DA
:103B900045FF0121394805F032FB09B030BD10B5B1
:103BA000FFF79FFF01231A4619461846FFF775FFD6
:103BB00000231A4619461846FFF74EFF00231A46FF
:103BC00019461846FFF786FFFFF76AFE00202C49CA
:103BD000087010BDF0B587B02948007808B907B063
:103BE000F0BD6846FFF7C4FE002422E05DF8241013
:103BF000244800EB8410C163224800EB84165DF872
:103C00002410B3EE000A304601F0EDF90546002D10
:103C100007DA012006A90855684204A921F8140012
:103C200005E0002006A9085504A921F81450601CDD
:103C3000C4B2042CDADB9DF81B309DF81A209DF8E5
:103C400019109DF81800FFF707FFBDF81630BDF8F2
:103C50001420BDF8121017E0001400402C010020C1
:103C600040420F00680000200004004000080040AF
:103C7000000C00400024F449001002400000014004
:103C800078000020B0060020BDF81000FFF722FFEA
:103C900000BFA4E710B5002406E0284901EB84101A
:103CA00001F060F9601CC4B2042CF6DBFFF710FED3
:103CB00071B601202249087061B60121214804F043
:103CC000ADFE10BD10B500211E4804F0A7FE71B670
:103CD00000201B49087061B600231A461946184691
:103CE000FFF7F8FE01231A4619461846FFF7D5FEDE
:103CF00000231A4619461846FFF7AEFEFFF787FE67
:103D000010BD7FB5054671B6002407E00B4800EBF7
:103D10008410C06B4DF82400601CC4B2042CF5DB89
:103D200061B6002407E05DF82400FFF73BFB45F88F
:103D30002400601CC4B2042CF5DB7FBDB00600205B
:103D4000780000200000014010B5044664B9FE4A26
:103D50007521D020FEF7E1FCFB480078682801D1EE
:103D6000012010BD0020FCE7012C0CD17520FEF7CE
:103D70005BFAF549087008460078682801D10120EF
:103D8000EFE70020EDE7F0480078EAE710B50124FE
:103D90000020FFF7D9FF08B9002010BD00226B21D9
:103DA000D020FEF7EFFC044001221921D020FEF7BD
:103DB000E9FC044004221A21D020FEF7E3FC044071
:103DC00008221B21D020FEF7DDFC044008221C2124
:103DD000D020FEF7D7FC04402046DEE710B54FF4B4
:103DE0008041DA4803F0DCFC08B9012010BD002056
:103DF000FCE770B504462046FEF716FA0546611C3E
:103E0000C8B2FEF711FA064606EB052070BD70B584
:103E100000240EE04720FFF7ECFF00B2CC4921F868
:103E20001400002500E06D1CCA488542FBDB601CC5
:103E3000C4B20A2CEEDB002409E0C54830F91400B6
:103E4000C54909680844C4490860601CC4B20A2C0A
:103E5000F3DBC14800680A2190FBF1F0BE4908601D
:103E600070BD70B52DED048B04460D464720FFF75D
:103E7000C0FF00B26081B4F90A10B74A1268881A0C
:103E80000DF0DFF841EC190B9FEDB40B53EC102B48
:103E90000CF022FF41EC180B0CF038FE6861BDEC11
:103EA000048B70BD0FB42DED020B10B52DED108BF2
:103EB0009DED160AB5EEC00AF1EE10FA35D09DED73
:103EC000160A10EE101A08460DF04CFB41EC1B0BC5
:103ED0009DED150A10EE101A08460DF043FB41EC5B
:103EE0001C0BB0EE4B1AF0EE6B1AB0EE4C0AF0EE73
:103EF0006C0A0BF065FFB0EE40AAF0EE60AA9FEDF1
:103F0000990B53EC102B51EC1A0B0DF001F941EC0D
:103F1000190B9FED960B53EC102B0CF0DDFE41ECD2
:103F2000180B0CF0F3FD934908609DED170A10EE95
:103F3000101A08460DF016FB41EC1F0B9FED8E0B7F
:103F400053EC102B0DF0E4F841EC1D0B8C4890ED78
:103F5000030A10EE101A08460DF004FB41EC1E0B8C
:103F600053EC1D2B0CF004FE41EC1B0B854890ED2F
:103F7000010A10EE101A08460DF0F4FA41EC1C0B81
:103F800053EC1B2B0DF0C4F841EC190B7D4890ED60
:103F9000000A7848D0ED000A20EE200A10EE101A30
:103FA00008460DF0DFFA41EC1A0B53EC192B0CF01C
:103FB000DFFD41EC180B0CF0A9FD7149C8609DEDC7
:103FC000160AB5EEC00AF1EE10FA37D09DED160ACA
:103FD00010EE101A08460DF0C5FA41EC1B0B9DEDD2
:103FE000140AB1EE400A10EE101A08460DF0BAFAA3
:103FF00041EC1C0BB0EE4B1AF0EE6B1AB0EE4C0A13
:10400000F0EE6C0A0BF0DCFEB0EE40AAF0EE60AA17
:104010009FED540B53EC102B51EC1A0B0DF078F86C
:1040200041EC190B9FED510B53EC102B0CF054FE8F
:1040300041EC180B0CF06AFD534908609DED180A1D
:1040400010EE101A08460DF08DFA41EC1F0B9FED93
:104050004A0B53EC102B0DF05BF841EC1D0B48485C
:1040600090ED040A10EE101A08460DF07BFA41ECB0
:104070001E0B53EC1D2B0CF07BFD41EC1B0B414840
:1040800090ED010A10EE101A08460DF06BFA41ECA3
:104090001C0B53EC1B2B0DF03BF841EC190B394872
:1040A00090ED000A3848D0ED000A20EE200A10EE0C
:1040B000101A08460DF056FA41EC1A0B53EC192B66
:1040C0000CF056FD41EC180B0CF020FD2C4908615A
:1040D0009DED140AB5EEC00AF1EE10FA58D09DED30
:1040E000140A10EE101A08460DF03CFA41EC1B0BB6
:1040F0009DED150A10EE101A08460DF033FA41EC4A
:104100001C0BB0EE4B1AF0EE6B1AB0EE4C0AF0EE50
:104110006C0A0BF055FEB0EE40AAF0EE60AA9FEDDF
:10412000110B53EC102B51EC1A0B0CF0F1FF41EC7E
:10413000190B9FED0E0B53EC102B0CF0CDFD41EC49
:10414000180B0CF0E3FC21E0940000200008024072
:1041500044050020400D030090000020FCA9F1D28E
:104160004D62504000000000008066406E861BF0EB
:10417000F9210940880000207B14AE47E17A943F82
:104180002C0500207C0000208C0000205149086094
:104190009DED190A10EE101A08460DF0E3F941ECF6
:1041A000180B9FED4D0B53EC102B0DF0AFF80FD308
:1041B0009DED190A10EE101A08460DF0D3F941ECE6
:1041C000180B9FED470B53EC102B0CF065FF2CD216
:1041D0009DED190A10EE101A08460DF0C3F941ECD6
:1041E0001C0B1FED1B0B53EC102B0CF091FF41EC43
:1041F0001A0B3D4890ED050A10EE101A08460DF016
:10420000B1F941EC1B0B53EC1A2B0CF0B1FC41EC57
:10421000190B9FED310B53EC102B0CF079FF41EC97
:10422000180B0CF073FC304948612F4890ED050ADB
:1042300010EE101A08460DF095F941EC180B1FED21
:10424000370B53EC102B0DF061F816D2264890ED89
:10425000050A10EE101A08460DF084F941EC190B0E
:104260009FED220B53EC102B0DF092F841EC180B44
:104270000CF04CFC1C49486126E01B4890ED050AF7
:1042800010EE101A08460DF06DF941EC180B9FED79
:10429000190B53EC102B0CF0FFFE15D2124890EDC9
:1042A000050A10EE101A08460DF05CF941EC190BE6
:1042B0009FED0E0B53EC102B0CF05AFC41EC180B3D
:1042C0000CF024FC08494861BDEC108B10BC5DF873
:1042D0001CFB000084000020000000000000F03FF4
:1042E000000000000000F0BF2C05002000000000CE
:1042F0000080764000000000008066C01CB556A11A
:1043000003C9CDE900014FF0FF3055490860042092
:1043100054490880702000F041F93F21002000F04E
:10432000D2F8322001F052FE1921112000F0CBF812
:104330000021012000F0C7F80121022000F0C3F89D
:104340000321084600F0BFF80021042000F0BBF86C
:104350004548807900F07F01052000F0B4F826215F
:10436000062000F0B0F805226946002000F0D8F9D8
:10437000002407E01DF804001130C0B20DF804005D
:10438000601CC4B2052CF5DB0521684600F0B9F9C4
:104390001CBD0120324908607047314800787047E1
:1043A00000202F490860704710B52D48006801288B
:1043B00000D110BD04202B490880012000F00DFA27
:1043C00000F0BAF800F0ACF8702000F0E7F8042034
:1043D0002449891E088001202149086000BFE8E7C0
:1043E00070B50446002121611E480A38006800F0BB
:1043F000010008B1002070BD04F1140000F0FEF8C7
:104400000546202D07DDD4F81401401CC4F8140122
:104410004FF0FF30EFE725612846ECE710B5044682
:10442000042010490880002000F0D7F900F078F847
:10443000217C04F1140000F028F904200949891EA8
:104440000880142001F0ADFD042006490880FFF724
:10445000A7FF206910BD0000009845711000000002
:10446000980000201A0C0240A806002070B50446EF
:104470000220E34908802046FFF758F8FF20FFF7A5
:1044800055F805460220DE49891E0880284670BD81
:104490002DE9F04104460E4617460220D84908800F
:1044A0002046FFF743F8002505E0FF20FFF73EF820
:1044B0007855681CC5B2B542F7DB0220D049891E89
:1044C0000880BDE8F08170B504460D460220CC4955
:1044D000088044F02000FFF729F82846FFF726F867
:1044E0000220C749891E088070BD2DE9F0410546AC
:1044F0000E4617460220C249088045F02000FFF70B
:1045000015F8002404E0305DFFF710F8601CC4B219
:10451000BC42F8DB0220BA49891E0880BDE8F08160
:1045200010B50220B6490880E120FEF7FFFF022007
:10453000B349891E088010BD10B50220B04908801B
:10454000E220FEF7F3FF0220AD49891E088010BD6E
:1045500010B50220AA490880E320FEF7E7FF0220F9
:10456000A749891E088010BD10B50220A449088003
:10457000FF20FEF7DBFF0220A149891E088010BD45
:1045800010B502209E4908800720FEF7CFFF0446A1
:1045900002209B49891E0880204610BD70B5044644
:1045A000002504F07004FFF7EBFF05460220944954
:1045B00008802720FEF7BAFF44EA0500FEF7B6FFA1
:1045C00002208F49891E0880FFF7DAFF70BD10B501
:1045D000FFF7D6FF00F0700010BD10B5022088492B
:1045E00008806020FEF7A2FFFF20FEF79FFF044631
:1045F00002208349891E0880204610BD70B50646FA
:10460000FFF7EBFF0446202C03DDFFF795FF212089
:1046100070BD0CB90020FBE70220794908806120B9
:10462000FEF784FF002505E0FF20FEF77FFF7055B1
:10463000681CC5B2A542F7DB02207149891E0880BB
:10464000FFF77AFF2046E3E72DE9F04105460E46E5
:10465000202E01DD202000E030460746FFF760FFF6
:10466000022067490880A020FEF760FF002404E0D4
:10467000285DFEF75BFF601CC4B2BC42F8DB022081
:104680005F49891E0880BDE8F08170B505460C467B
:10469000202C00DC04B970BD022059490880B020EC
:1046A000FEF744FF03E015F8010BFEF73FFF200083
:1046B000A4F10101CCB2F6D102205149891E088033
:1046C00000BFE8E72DE9F04105460E46202E01DD4A
:1046D000202000E030460746022049490880A820F3
:1046E000FEF724FF002404E0285DFEF71FFF601C96
:1046F000C4B2BC42F8DB02204149891E0880BDE8F3
:10470000F08170B504460D46052D01DD052000E061
:1047100028460646324621461020FFF7E6FE70BDC9
:104720002DE9F04104460E461546052D01DD052014
:1047300000E028460746052C01DD052000E0204664
:10474000804608F10A01C8B23A463146FFF7CDFE6D
:10475000BDE8F08170B505460620FFF787FE0446E8
:1047600024F0280415B944F0200408E0012D02D1FA
:1047700024F0280403E0022D01D144F0080421466E
:104780000620FFF7A0FE70BD70B505460620FFF7B6
:104790006DFE20F0070435B1012D06D0022D07D0A3
:1047A000032D0BD107E000BF09E044F0020406E04E
:1047B00044F0040403E044F0060400E000BF00BF3E
:1047C00021460620FFF77FFE70BD10B5044604F0B9
:1047D0007F010520FFF777FE10BD70B5044600206D
:1047E000FFF744FE054614B925F0010503E0012C4E
:1047F00001D145F0010529460020FFF764FE70BD98
:104800001A0C024070B50446FF2020700120607031
:10481000FE48007800F00F00A070FEF744FE054649
:10482000FEF72AFE064671B6F84880F82D5180F84A
:104830002C6190F82D01FF2803D1FE20F34981F867
:104840002D01F24890F82D01E070F04890F82C010D
:10485000FF2803D1FE20ED4981F82C01EB4890F8A8
:104860002C012071E94890F82D0100EE100AB8EEF5
:10487000400ADFEDE70A20EE200AE44880ED4D0A09
:1048800090F82C0100EE100AB8EE400ADFEDE10AC4
:1048900020EE200ADD4880ED4C0A61B6FEF7E4FE0A
:1048A000C007000E60710120DB490870002070BD58
:1048B00010B50446FEF7DFFCD8490860D8480078F8
:1048C000022805D10120D74908600020D44908708A
:1048D000D3480078012804D1D34908600020D0498A
:1048E0000870CE48006860BBCE48006801280ED131
:1048F000CE4908600020CB490860CD490860CD480A
:104900000068401CCB4908600120C3490870C648B4
:10491000006801280ED1C84908600020C24908601B
:10492000C3490860C3480068401CC24908600120B0
:10493000B949087000F090FD38B90220BF490880DD
:1049400003E00220BD49891E0880B9480068052897
:1049500023DBB6480068012802D10020B349086073
:10496000B5480068012802D10020B3490860B44866
:104970000068AA49096888420BD00120AC49086048
:10498000AC480068401CAB4908600120A24908708F
:104990000BE00020A049087007E0A5480068401C13
:1049A000A349086001209C490870A24800687F283C
:1049B00002D100209F490860FF2020700220607013
:1049C0009248007800F00F00A070944800788001B1
:1049D0009649097800EB41109749097800EB0110DE
:1049E000E0709448007820719148007860718B489D
:1049F000006893490860002010BD08B50246507851
:104A000000909DF8000000F0F00000909DF800007C
:104A1000001100909DF8000010B1072804D101E0BA
:104A2000002008BD0720FCE74FF0FF30F9E72DE933
:104A3000F05F04460D460027002604B11DB94FF073
:104A4000FF30BDE8F09F7148006808280CDD6878E9
:104A500000F00F006D490978093901228A401040A1
:104A600068B94FF0FF30ECE7A87868490978491E2B
:104A700001228A40104010B94FF0FF30E1E74FF4B7
:104A8000FA7001F0C3FA6F4A03C24FF000085F48A2
:104A90000068092812DA00260AE0A8780121B1404E
:104AA000084018B108F1010000F0FF08701CC6B200
:104AB00056480068401EB042EFDC22E000260AE0C3
:104AC000A8780121B140084018B108F1010000F0B8
:104AD000FF08701CC6B2082EF2DB00260CE06878D6
:104AE00000F00F000121B140084018B108F10100A9
:104AF00000F0FF08701CC6B2444800680938B04294
:104B0000EDDC032000EB8800C6B24048006820605E
:104B1000AF5DC7F30110606007F0800010B16068FE
:104B2000404200E060686060B8F1000F06D0B8F164
:104B3000010F05D0B8F1020F06D103E0AF7C04E00D
:104B4000EF7C02E02F7D00E000BF00BFA85DC0F356
:104B5000801030B17F2F02DB9620E06007E0E76035
:104B600005E07F2F02DB9620A06000E0A760701CAC
:104B70002F5C07F07F00206108F10F0015F800900E
:104B800009F0C0004FF6FF7101EA4009206948446E
:104B90002061701C2F5C07F0800010B1206940423A
:104BA00000E020692061B01C2F5C07F07F0060618D
:104BB00008F10F0015F800A00AF030004FF6FF7161
:104BC00001EAC00A606950446061B01C2F5C07F0C4
:104BD000800010B16069404200E060696061F01CD3
:104BE0002F5C07F07F00A06108F10F0015F800B0FE
:104BF0000BF00C004FF6FF7101EA401BA06958440E
:104C0000A061F01C2F5C07F080001DE0A8060020CA
:104C10006666CA3DEB6A243F9C000020AC00002081
:104C200000000020B0000020B4000020B8000020E8
:104C3000C4000020C0000020BC0000201A08024070
:104C4000A8000020F800002010B1A069404200E058
:104C5000A069A0610020F4E670B504460B4600256B
:104C600004B113B94FF0FF3070BD002104E0585C6F
:104C7000FE2800D16D1C491C9142F8DB082D02D1A1
:104C800000250120F0E7002106E0605C5E5CB04298
:104C900001D00020E8E7491C9142F6DB0120E3E760
:104CA000F0B5054600242F4600260DE008223946BF
:104CB0003A48FFF7D1FFC4B20CB9083703E0012C22
:104CC00001D12046F0BD761C202EEFDB2046F9E70F
:104CD00070B504460D4604B115B94FF0FF3070BDF4
:104CE000687D00F0800068B100202D4908602D49E2
:104CF0000880687D00F07F00401CA4F800010120BE
:104D000084F8020194F8020120B326480088401C70
:104D100000B22449088000260BE006F11600295C49
:104D20001F4802680068401C1D4B1860A154701C8D
:104D3000C6B2022EF1DBB4F800011A49B1F9001035
:104D4000884207D1012084F80301002084F8020181
:104D50001449088094F80301012816D12046FFF772
:104D60009FFF012809D142F2107001F04FF90E4A5D
:104D700003C201200D49087002E000200B490870B1
:104D80004FF4827120460AF020FB05480068FF2896
:104D900002D30020024908600020A0E74E00002056
:104DA000A0000020C800002000010020A400002076
:104DB00001460022002000BF04E08B5C0344D8B20F
:104DC000531CDAB2202AF8D391F820300344D8B229
:104DD000704710B50446222120460AF0F6FA5A2000
:104DE000207000206070A070E07020716071A07170
:104DF000E07120726072A072E07220730320607311
:104E00001220A0739620E073002020745A2084F8AA
:104E100020002046FFF7CCFF84F8210010BD10B51C
:104E20000446222120460AF0D0FA5A2020700020A1
:104E30006070A070E07020716071A071E0712072EC
:104E40006072A072E0722073032060731220A0735E
:104E50009620E073012020745A2084F82000204618
:104E6000FFF7A6FF84F8210010BD70B5054622218A
:104E700028460AF0AAFA222200212846FDF709FD59
:104E80002846FFF795FF064628785A2823D195F83B
:104E900020005A2803D195F82100B04223D01B48A6
:104EA000007820F0080008301849087002201849DE
:104EB0000880002400E0641C16488442FBDB0220CA
:104EC0001349891C0880002400E0641C11488442B6
:104ED000FBDB002070BD2846FFF77BFF222200216C
:104EE0002846FDF765FC0120F4E700B589B02421D0
:104EF00068460AF08CFA6846FFF791FF22220021EB
:104F00006846FDF755FC002009B000BD40000020B8
:104F10001808024080969800014601EE901AB8EEFB
:104F2000E12ADFEDB42AC2EE221ADFEDB32A80EEC9
:104F3000222ADFEDB22A42EE221AB0EE611AB04800
:104F4000006846F2A812B0FBF2F001EE900AF8EE0B
:104F5000611A61EE811A81EEA02AFDEEC21A11EEED
:104F6000900A70479FEDA70A80ED080A9FEDA50AF9
:104F700080ED090A9FEDA30A80ED0A0A0021C162B3
:104F8000704700B50246F0EE401AC2ED001AC2EDBD
:104F9000010A82ED021A31EEA00A30EE010A82ED1A
:104FA000030AB0EE002AB0EE610A02EE010A82EDB9
:104FB000040A82ED051A0020D0629148006846F28A
:104FC000A811B0FBF1F090619FED8F0A82ED070A06
:104FD0001046FFF7C7FF00BDC1627047816170478F
:104FE00080ED070A70472DE9F0412DED028B044654
:104FF0000E46B0EE408A0027002594ED090A84EDA4
:105000000A0A94ED080A84ED090AE06A801B00EEA2
:10501000100AB8EEC00A84ED080A94ED030AD4ED34
:10502000080A20EE200AD4ED040A94ED091A00EED5
:10503000C10AD4ED050A94ED0A1A00EE810ABDEE0C
:10504000C00A10EE108A206B40442063206BA169D7
:10505000884202DDA069206307E0206BA169494214
:10506000884202DAA069404220633046FEF79AF98E
:105070000746002F00DA7F42D4ED070AB0EE600A3F
:10508000F0EE480A3846FFF747FF0546206BA84276
:1050900001DD256305E0206B6942884201DA684240
:1050A0002063206BBDEC028BBDE8F08180ED000A2F
:1050B000C0ED010A80ED021A70EE201A71EE811A1D
:1050C000C0ED031AB0EE002AF0EE401A42EE011ACB
:1050D000C0ED041A80ED051A96218161DFED491AB1
:1050E000C0ED071ADFED471AC0ED081ADFED451ACB
:1050F000C0ED091ADFED431AC0ED0A1ADFED411ABF
:10510000C0ED0B1ADFED3F1AC0ED0C1A70470146D7
:10511000D1ED080AC1ED090AD1ED070AC1ED080A6F
:10512000D1ED0A0A91ED0B1A70EEC10AC1ED070A22
:10513000D1ED030A91ED071A60EE810A91ED041A90
:10514000D1ED081A41EE610A91ED051AD1ED091A67
:1051500041EE210AB0EE600AD1ED0C0A70EE800A31
:10516000C1ED0C0A91ED0C1AD1ED060AF8EEE00A39
:10517000B4EEE01AF1EE10FA06DDD1ED060AF8EE13
:10518000E00AC1ED0C0A14E091ED0C1A8869404266
:1051900000EE900AF8EEE00AB4EEE01AF1EE10FA32
:1051A00007D28869404200EE900AF8EEE00AC1EDAD
:1051B0000C0AD1ED0C0AFDEEE00A10EE900A7047E1
:1051C0000146086B704780ED000AC0ED010A80EDD2
:1051D000021A70EE201A71EE811AC0ED031AB0EEB9
:1051E000002AF0EE401A42EE011AC0ED041A80EDDA
:1051F000051A70470000BB430000CC419A99993FC3
:105200002C0100200000000000002F4310B52DED00
:10521000068B90B0FE4AD2E901311068D268CDE920
:1052200001310392009007A8FFF71FFE9DF82900A7
:10523000F84908609DF82A00F74908609DF82C009D
:10524000F64908709DF82B00962804DC9DF82B0089
:10525000F349086002E09620F149086006AA04A913
:1052600005A8FEF77CF942F2A001EE480AF0CFF85B
:105270009DF81000EB4908609DF8140088719DF8B6
:10528000180000F0070008719DF8180000F00700F2
:1052900006909DF81800022802D10120487105E00F
:1052A0009DF8180010B90020DE49487100240DE077
:1052B000DC49083101EB84109FEDDB1ADFEDDB0ADE
:1052C0009FEDDB0AFFF75DFE601CC4B2042CEFDB30
:1052D0009FEDD51ADFEDD70A9FEDD70AD748FFF724
:1052E000E5FE0020CF49A1F80801CA4890ED000A68
:1052F000B8EEC00AC848D0ED000AF8EEE00A9FED0B
:10530000D01A00EE810ADFEDCF0A60EE200AB0EE7F
:10531000001A80EE810A9FEDCC1AC0EE010A9FEDC3
:10532000CB0A80EE801A084680ED431A00243FE045
:10533000684600EB840090ED000A9FEDC51AC0EEB0
:10534000010A9FEDC10A20EE808A18EE100A0CF0C7
:1053500009F941EC1A0BB0EE4A0AF0EE6A0A0AF0BB
:1053600017FFB0EE409AF0EE609A51EC190B0BF07B
:10537000CDFB0146B74840F8241018EE100A0CF097
:10538000F1F841EC1A0BB0EE4A0AF0EE6A0A0AF0A4
:105390009BFEB0EE409AF0EE609A51EC190B0BF0C8
:1053A000B5FB0146AB48103040F82410601CC4B275
:1053B000022CBDDB02243FE0684600EB840090ED48
:1053C000000ADFEDA30A80EE201A9FED9F0A21EE6E
:1053D000000AB0EE408A18EE100A0CF0C3F841EC57
:1053E0001A0BB0EE4A0AF0EE6A0A0AF0D1FEB0EEED
:1053F000409AF0EE609A51EC190B0BF087FB95493F
:1054000041F8240018EE100A0CF0ACF841EC1A0B2D
:10541000B0EE4A0AF0EE6A0A0AF056FEB0EE409A82
:10542000F0EE609A51EC190B0BF070FB89491031CA
:1054300041F82400601CC4B2042CBDDB4FF49A7107
:105440008548A0F89810FAF796FFFDF79FFF002017
:1054500010B0BDEC068B10BD70B5FEF70DF804461C
:1054600071B600EE104AB8EE400ADFED7C0A20EE7D
:10547000200A6C4880ED4C0A80F82C4161B6FEF79A
:10548000F5F8C5B28DB176480078052805DA74487C
:105490000078401C7249087011E0052070490870BE
:1054A000022070490880284670BD00206C490870B1
:1054B0006D48007818B902206A49891C08800020CC
:1054C000F2E710B569480078401C68490870084642
:1054D0000078022804DBFEF77DFB0020634908709A
:1054E0006348007820B163480078401C6149087027
:1054F00010BD4FF00108B8F1000F19D00025494840
:105500000079042802DC47480079451C0DE00220A0
:1055100054490880C82000F02DFD02205149891C03
:105520000880C82000F026FD6D1E002DEFD100BFC1
:105530004FF47A7000F06AFD4F4A03C24FF47A705C
:1055400000F064FD4D4A03C24FF4FA7000F05EFDB6
:105550004B4A03C2012000F059FD4A4A03C242F2FD
:10556000107000F053FD484A03C20F2000F04EFDBA
:10557000464A03C2192000F049FD454A03C2FEF71E
:1055800089FB8DE33C4903C900F048FD78B34FF433
:105590007A7000F03BFD384A03C2FFF75DFF022836
:1055A0001CD13C480068401C3A4908600846006825
:1055B00041F2883188421ADB0020FAF71EFF0022F0
:1055C00011461046FAF78CFF00210846FBF7D6F883
:1055D00000210846FBF7F1F800BFFEE72D48006800
:1055E000002804DD2B480068401E2A490860234932
:1055F00003C900F013FD28B14FF47A7000F006FDE6
:105600001E4A03C20748007905287DD244E0000005
:10561000A4190108D0000020D40000205700002069
:10562000D8000020A8060020000000005C8F423D4A
:1056300048E13A3E1F856B3DCDCC4C3E70060020C4
:105640000AD7233C00008045DB0F49404260E53C1F
:1056500000003443E0070020A8260020EB6A243F26
:10566000E600002018080240E4000020E7000020C7
:10567000DE000020DF000020E8000020F000002015
:10568000F80000201801002000010020080100207F
:1056900010010020E0000020DFE800F0168203B7D0
:1056A000FE00FB480068401CF94908604FF4806028
:1056B000F84908801F23642200210846FDF7C5FC35
:1056C0000120F549087000BFF1480068012803D1A6
:1056D0000020EF49086004E04FF48060ED49891C28
:1056E0000880FBF749FAED4903C900F097FC10B3B5
:1056F0000120EB4908700020FAF77FFE00221146D6
:105700001046FAF7EDFE00E0B8E200210846FBF78C
:1057100035F800210846FBF750F8FEF745FE4FF438
:10572000FA7000F073FCDD4A03C242F2107000F020
:105730006DFCDC4A03C2D848007810BBD94903C9C4
:1057400000F06CFCE8B10120D54908700020FAF7A0
:1057500054FE002211461046FAF7C2FE0021084608
:10576000FBF70CF800210846FBF727F8FEF71CFEB4
:105770000020CD49087042F2107000F047FCC94A81
:1057800003C2C748007850B1C8480078032806DB38
:10579000FEF70AFE0020C5490870C14908706EE294
:1057A0004FF48060BB4908801F230022642110460B
:1057B000FDF74BFCBE49BF4804F0BBFABE48C07CB5
:1057C000012805D10020BC49C8740846FBF722FA1D
:1057D000BA4903C900F022FCB0B1B94800780128E9
:1057E0000DD1B849B848FEF73CFBB64890ED050A24
:1057F000B1EE400AB54880ED0B0AFFF788FC0F2098
:1058000000F004FCAD4A03C239E24FF48060A149C4
:1058100008801F23642211461046FDF716FC1F2343
:10582000642211461046FDF710FCFDF724FD012807
:105830007ED1A7480068401CA54908604FF48070DD
:10584000A44908834FF4FA6000F094FB4FF4807091
:10585000A0494883FAF734FD0120FAF7CEFD4FF452
:10586000FA6000F087FB0020FAF7C7FD4FF4FA70EA
:1058700000F080FB0A210020FAF740FD40F6C4103A
:1058800000F078FB0A210120FAF738FD4FF4FA60A6
:1058900000F070FB8E4800E06BE00068012867D1E3
:1058A000642200210846FAF786FE4FF4FA6000F001
:1058B00061FB002211461046FAF77DFE6FF063028D
:1058C00000210846FAF777FE4FF4FA6000F052FB29
:1058D000002211461046FAF76EFE4FF47A7000F07F
:1058E00049FB002211466420FAF765FE4FF4FA6086
:1058F00000F040FB002211461046FAF75CFE002241
:1059000011466FF06300FAF756FE4FF4FA6000F0AC
:1059100031FB002211461046FAF74DFE4FF47A7023
:1059200000F028FB002264211046FAF744FE00E054
:105930001EE04FF4FA6000F01DFB002211461046F5
:10594000FAF739FE00226FF063011046FAF733FED2
:105950004FF4FA6000F00EFB002211461046FAF7F1
:105960002AFE4FF47A7000F005FB002058490860C9
:1059700085E14FF48060474908801F23002264219D
:105980000846FDF762FB5448007801287ED10024C8
:10599000002652480078092879D2DFE800F078051F
:1059A0002C5354B7D0E9FB00002405E04B49601CA0
:1059B000085C4B490855641C0A2CF7DB4848FBF788
:1059C00099FF0646012E04D14649474A1268885479
:1059D00004E000204349444A126888544248006861
:1059E000401C4149086008460068B0F5006F01D1CD
:1059F000002008603CE1002405E03849601C085C98
:105A00003A490855641C062CF7DB3848FCF717F8B0
:105A10000646012E04D13349334A1268885404E003
:105A200000203049304A126888542F480068401CD2
:105A30002D49086008460068B0F5006F01D10020CC
:105A4000086015E114E12A48B0F89800000A2549D9
:105A5000254A1268885424480068401C224908607E
:105A6000234890F898001F491F4A126888541E481E
:105A70000068401C1C4908601E48007819491A4AF1
:105A80001268885418480068401C35E0F5E0EEE0E4
:105A900020010020180C0240E5000020F800002042
:105AA000DE00002000010020A4000020DF00002014
:105AB00084340020F4290020AE37002008010020A3
:105AC0001A000020140500200805002070060020A0
:105AD0002401002000000240600100207429002001
